:100000000C9468010C9490010C9490010C94900154
:100010000C9490010C9490010C9490010C9490011C
:100020000C9490010C9490010C9490010C9490010C
:100030000C9490010C9490010C9490010C949001FC
:100040000C9432330C9490010C94DE020C941A033D
:100050000C9490010C9490010C9490010C949001DC
:100060000C9490010C949001084AD73B3BCE016E52
:1000700084BCBFFDC12F3D6C74319ABD56833DDAFF
:100080003D00C77F11BED9E4BB4C3E916BAAAABE0E
:10009000000000803F05A84CCDB2D44EB93836A937
:1000A000020C50B9918688083CA6AAAA2ABE000074
:1000B00000803F0664EC1B3C04BC163E3BE5B93CAB
:1000C000C93C37C29E5A3D660498083EEA69AAAA0E
:1000D0003E000000803F2020202020202020004ED5
:1000E0006F206D61762064617461210020202020E2
:1000F0002020202020202020207C202020202020A4
:10010000202020202020207CC620202020202020ED
:100110002020202020C57C202020202020202020DE
:10012000202020207C202020202020202020202073
:1001300020207C0013001400120011001820202041
:100140002020001820209091200016202020202020
:10015000004D696E696D4F53442D4578747261206E
:10016000322E347C506C616E65207238303700005E
:10017000407A10F35A00A0724E18090010A5D4E876
:100180000000E87648170000E40B54020000CA9A09
:100190003B000000E1F5050000809698000000405B
:1001A000420F000000A086010000001027000000A0
:1001B00000E803000000006400000000000A0000E6
:1001C0000000000100000000002C76D888DC674F9A
:1001D0000823DFC1DFAE59E1B1B796E5E3E453C6CA
:1001E0003AE651997696E8E6C28426EB898C9B62C2
:1001F000ED407C6FFCEFBC9C9F40F2BAA56FA5F46C
:1002000090055A2AF75C936B6CF9676DC11BFCE093
:10021000E40D47FEF520E6B500D0ED902E030094E6
:100220003577050080841E080000204E0A0000007B
:10023000C80C333333330F986E12831141EF8D2185
:1002400014893BE65516CFFEE6DB18D1844B381BEC
:10025000F77C1D901DA4BBE424203284725E2281B1
:1002600000C9F124ECA1E53D276E616E00696E6660
:100270000000000000240027002A000000000025E4
:100280000028002B000000000023002600290004A5
:10029000040404040404040202020202020303032D
:1002A0000303030102040810204080010204081027
:1002B00020010204081020000000070002010000D5
:1002C0000304060000000000000000006803552C35
:1002D00011241FBECFEFD8E0DEBFCDBF14E0A0E0F9
:1002E000B1E0E0EBF4E702C005900D92AE34B10747
:1002F000D9F716E0AEE4B4E001C01D92A63AB1070A
:10030000E1F712E0C0EDD2E004C02297FE010E94A6
:10031000523ACC3CD107C9F70E94EF350C94563ABB
:100320000C940000283008F027E03327DA01990FF9
:10033000311D87FD916000966105710539F43260C9
:100340002E5F3D9330E32A95E1F708959F3F30F00B
:1003500080387105610509F03C5F3C5F3D93913049
:1003600008F08068911DDF93CF931F930F93FF9246
:10037000EF92192F987F9695E92F96959695E90F0C
:10038000FF27E753FE4F99273327EE24FF24A701C9
:10039000E70105900894079428F4360FE71EF81E2D
:1003A000491F511D660F771F881F991F0694A1F7DB
:1003B0000590079428F4E70EF81E491F561FC11D2B
:1003C000770F881F991F661F0694A1F70590079461
:1003D00028F4F80E491F561FC71FD11D880F991FFB
:1003E000661F771F0694A1F70590079420F4490F24
:1003F000561FC71FD81F990F661F771F881F0694A7
:10040000A9F784911095177041F0D695C795579527
:100410004795F794E7941A95C1F7EFE6F1E06894F1
:100420001590159135916591959105907FE27395A1
:10043000E118F10A430B560BC90BD009C0F7E10CC8
:10044000F11E431F561FC91FD01D7EF4703311F4D7
:100450008A95E6CFE894015030F0080F0AF400279F
:10046000021708F4202F2395022F7A3328F079E31E
:100470007D932A95E9F710C07D932A9589F6069415
:1004800097956795379517951794E118F10A430BDF
:10049000560BC90BD00998F023957E9173957A334A
:1004A00008F070E37C932013B8F77E9170617D9320
:1004B00030F0839571E37D9370E32A95E1F7112481
:1004C000EF90FF900F911F91CF91DF91992787FDBA
:1004D00090950895FA01AA27283051F1203181F131
:1004E000E8946F936E7F6E5F7F4F8F4F9F4FAF4F3C
:1004F000B1E03ED0B4E03CD0670F781F891F9A1F4F
:10050000A11D680F791F8A1F911DA11D6A0F711D02
:10051000811D911DA11D20D009F468943F912AE00E
:10052000269F11243019305D3193DEF6CF010895F6
:10053000462F4770405D4193B3E00FD0C9F7F6CF27
:10054000462F4F70405D4A3318F0495D31FD4052EF
:10055000419302D0A9F7EACFB4E0A6959795879585
:1005600077956795BA95C9F7009761057105089564
:100570009B01AC010A2E0694579547953795279510
:10058000BA95C9F7620F731F841F951FA01D0895A8
:10059000FC010590615070400110D8F7809590954E
:1005A0008E0F9F1F0895FC01615070400190011053
:1005B000D8F7809590958E0F9F1F08951F920F92E8
:1005C0000FB60F9211242F933F934F938F939F93C6
:1005D000EF93FF934091C6002091850630918606E7
:1005E0002F5F3F4F8091890690918A0628233923F7
:1005F00080918706909188062817390779F08091B5
:10060000850690918606E0918B06F0918C06E80FA6
:10061000F91F40833093860620938506FF91EF9162
:100620009F918F914F913F912F910F900FBE0F90FF
:100630001F9018951F920F920FB60F9211242F93AF
:100640003F938F939F93EF93FF9320918F06309169
:10065000900680918D0690918E0628173907E9F053
:1006600080918F0690919006E0919306F091940608
:10067000E80FF91F80818093C60080918F069091CA
:100680009006019620919106309192068223932341
:100690009093900680938F0610C020918D06309124
:1006A0008E0680918F06909190062817390729F4BD
:1006B0008091C1008F7D8093C100FF91EF919F9148
:1006C0008F913F912F910F900FBE0F901F90189513
:1006D0008F92AF92CF92EF92FF920F931F9380ED84
:1006E00094E060E045EC50E024EC30E000EC10E0F9
:1006F000F1ECEF2EF12CCC24C394E8E9AE2E70E29D
:10070000872E0E948F2C8DEE94E00E948D2A1F91DF
:100710000F91FF90EF90CF90AF908F9008958091C0
:10072000FF048130C1F40E947A3368517C4F8F4FAF
:100730009F4F60930005709301058093020590938D
:1007400003051092FF0490E080910405882309F4CA
:1007500091E0909304050E947A3320910005309136
:1007600001054091020550910305261737074807F8
:10077000590718F481E08093FF040895AF92BF9267
:10078000CF92DF92EF92FF920F931F9380916405B7
:10079000882399F5609174057091750580917605AF
:1007A0009091770520E030E040EA50E40E94BB38A9
:1007B00018161CF580915E058B30F8F081E080936F
:1007C000640580E090E0A0E0B0E08093BD059093E8
:1007D000BE05A093BF05B093C0050E947A3328EEF2
:1007E00033E040E050E00E94133A209355053093E7
:1007F00056054093570550935805A0907005B0904A
:100800007105C0907205D0907305C601B50120E056
:1008100030E040E85FE30E94BB38181694F5E090A2
:10082000BD05F090BE050091BF051091C0050E9466
:100830007A33209176063091770640917806509170
:100840007906621B730B840B950B0E9491379B01F9
:10085000AC01C601B5010E94C63820E030E04AE78D
:1008600054E40E94F8369B01AC01C801B7010E9414
:100870002B366093BD057093BE058093BF059093A2
:10088000C005A0905A05B0905B05C0905C05D09063
:100890005D056091840570918505882777FD8095B9
:1008A000982F0E94933720E030E040E251E40E940C
:1008B000C6387B018C010E947A33209176063091F4
:1008C00077064091780650917906621B730B840B72
:1008D000950B0E9491379B01AC01C801B7010E94A2
:1008E000C63820E03AEB4BE55AE40E94F8369B010B
:1008F000AC01C601B5010E942B3660935A05709376
:100900005B0580935C0590935D050E947A3360934C
:100910007606709377068093780690937906809197
:100920006405813009F098C06091510570915205BD
:1009300080915305909154050E9493377B018C015F
:100940002091CB053091CC054091CD055091CE053D
:100950000E94BB38181644F4E092CB05F092CC0507
:100960000093CD051093CE05E0905F05F0906005F3
:100970000091610510916205C801B7012091CF0572
:100980003091D0054091D1055091D2050E94BB38DD
:10099000181644F4E092CF05F092D0050093D105EB
:1009A0001093D205E0907005F090710500917205EA
:1009B00010917305C801B7012091D3053091D4057A
:1009C0004091D5055091D6050E94BB38181644F4C5
:1009D000E092D305F092D4050093D5051093D60587
:1009E000E0907405F09075050091760510917705FB
:1009F000C801B7012091D7053091D8054091D9059C
:100A00005091DA050E94BB38181644F4E092D705DD
:100A1000F092D8050093D9051093DA05E0901B05F4
:100A2000F0901C0500911D0510911E05C801B7012D
:100A30002091DB053091DC054091DD055091DE050C
:100A40000E94BB38181644F4E092DB05F092DC05F6
:100A50000093DD051093DE051F910F91FF90EF903D
:100A6000DF90CF90BF90AF90089586E996E06AE757
:100A700073E00E941F338823B1F586E696E6A6E66A
:100A8000B0E48093050590930605A0930705B09305
:100A9000080580E090E0A0E8BFE38093090590930B
:100AA0000A05A0930B05B0930C0580E180930D051A
:100AB0008CE080930E058AEB90E090931005809374
:100AC0000F058AE08093E30210921205109211053F
:100AD0008BE18093130588EE93E090931505809346
:100AE00014058AE137C082E598EBAEE0B0E480936C
:100AF000050590930605A0930705B093080585E8C2
:100B00009BEEA1E5B0E48093090590930A05A093BC
:100B10000B05B0930C0589E180930D0586E6809363
:100B20000E058BEB90E09093100580930F0582E10A
:100B30008093E30280E09DE7909312058093110576
:100B40008CE18093130580EA94E1909315058093DE
:100B500014058EE1809316050895CF93DF9386E9FF
:100B600096E06CE773E00E941F338093650586E989
:100B700096E06EE773E00E941F338093630586E979
:100B800096E060E873E00E941F338093660586E973
:100B900096E06EE873E00E941F3380939E0586E91D
:100BA00096E066E773E00E941F3380936D0586E947
:100BB00096E06AE873E00E941F3380938E0586E911
:100BC00096E064E873E00E941F338093B30586E9E2
:100BD00096E066E873E00E941F338093B20586E9D1
:100BE00096E06CE873E00E941F338093690586E904
:100BF00096E062E973E00E941F338093670586E9FF
:100C000096E064E973E00E941F3380936805C0E0BA
:100C1000D0E0BE0168567C4F86E996E00E941F3303
:100C2000FE01E855FA4F8083882321F02196C830D1
:100C3000D10579F7C855DA4F1982DF91CF91089520
:100C4000BC0186E996E00E941F3308956091290552
:100C500070912A0580912B0590912C0520E030E0C1
:100C600040EC51E40E94C63820E030E044EB53E40D
:100C70000E94F8360E9429390E9460379B01235058
:100C8000304037FF03C09B012B5E3F4FA5E3B5E02B
:100C9000F901E050FC4F80818C932F5F3F4F28314A
:100CA000310514F020E030E0119685E0A034B8075B
:100CB00079F710923C0508952F923F924F925F92E0
:100CC0006F927F928F929F92AF92BF92CF92DF925C
:100CD000EF92FF920F931F93DF93CF9300D000D03A
:100CE00000D0CDB7DEB7182F662E209117053091B2
:100CF00018052A35310530F0C9018D549F4F8935CB
:100D00009105E8F437FF02C02D543F4FC90137FF6A
:100D100003C0909581959F4F8A3191053CF0B9EDC4
:100D20008B2E912CA8EF2A2E312C1DC00A975CF136
:100D3000F0ED8F2E912CE3EF2E2E312C20C02B3591
:100D4000310514F0235B3040C90137FF03C0909593
:100D500081959F4F8A31910554F07BEE872E912C1F
:100D60006BEF262E312C57E0A52EB12C15C00A971B
:100D700054F042EE842E912C35EF232E312C28E0B6
:100D8000A22EB12C09C096EC892E912C8DEC282E28
:100D9000312C09E0A02EB12C6091190570911A0533
:100DA000882777FD8095982F0E94933727EA32E9AC
:100DB0004BE25CEB0E94C6380E949A3920E030E09A
:100DC00040EA50E40E94C63820E030E040E951E4B7
:100DD0000E94C6380E94293920E030E044E352E402
:100DE0000E942B360E946037712EBEEBCB2EBFEFD8
:100DF000DB2E9B01442737FD4095542F29833A83EE
:100E00004B835C83ADEE4A2EA4E05A2E4AEF5FEF8F
:100E1000240E351E6091170570911805882777FDFF
:100E20008095982F0E94933725E33AEF4EE85CE3D4
:100E30000E94C6380E949A397B018C01B60188272E
:100E400077FD8095982F0E9493379B01AC01C801D4
:100E5000B7010E94C6387B018C0169817A818B8140
:100E60009C810E9493379B01AC01C801B7010E948D
:100E70002B360E9460379B01CB0101978A35910583
:100E800008F071C062E170E00E94003A8B012F5FB0
:100E90003F4FAEEEBFEF6A9FC0016B9F900D7A9FF0
:100EA000900D1124820F931F62E070E00E94003ABF
:100EB0006D837E83E62CE01A4E2D4C5F8DEE94E020
:100EC000672D0E94E12A00D000D000D0EDB7FEB718
:100ED0003196ADB7BEB712965C924E92119720E054
:100EE00031E0338322838D819E81880D991D958306
:100EF00084830E946E2C4DB75EB74A5F5F4F0FB67A
:100F0000F8945EBF0FBE4DBF8D819E818A159B05F3
:100F100054F1043011053CF593E0E90EC201672D50
:100F20004E2D0E94E12A00D000D000D0EDB7FEB7D0
:100F30003196ADB7BEB712965C924E92119720E0F3
:100F400031E0338322834D815E81420D531D5583F1
:100F500044830E946E2C8DB79EB706960FB6F89408
:100F60009EBF0FBE8DBFACE0B0E0CA0EDB1E739417
:100F7000BEE4CB16D10409F04DCF26960FB6F894F7
:100F8000DEBF0FBECDBFCF91DF911F910F91FF90BC
:100F9000EF90DF90CF90BF90AF909F908F907F9019
:100FA0006F905F904F903F902F9008959F92AF92D7
:100FB000BF92CF92DF92EF92FF920F931F938823FD
:100FC00009F481E0880F8257613009F06FC0A0906A
:100FD0000505B0900605C0900705D0900805E82EDD
:100FE000FF24E7FCF09490900D054DB75EB7465195
:100FF00050400FB6F8945EBF0FBE4DBF0DB71EB781
:101000000F5F1F4F8DEE94E0ADB7BEB712969C9365
:101010008E93119783E091E0F801938382838DE1B1
:1010200090E095838483C601B50120911B05309122
:101030001C0540911D0550911E050E94C638D8011F
:1010400016966D937D938D939C9319971A969C9207
:101050001A971B961C921B971D96FC92EE921C975A
:101060000894E11CF11C1F96FC92EE921E97C6019B
:10107000B50120911F053091200540912105509127
:1010800022050E94C638F801608B718B828B938B8E
:10109000948A158A0E946E2C4DB75EB74A5E5F4FE8
:1010A0000FB6F8945EBF0FBE4DBF57C0282F332731
:1010B00027FD30958DEE94E0623049F5ADB7BEB7AF
:1010C0001C970FB6F894BEBF0FBEADBFEDB7FEB70D
:1010D000319612969C938E93119789E191E09383B8
:1010E0008283358324832F5F3F4F3783268380910C
:1010F0002305909124059187808785E090E0938770
:1011000082870E946E2CEDB7FEB73C9621C04DB78A
:101110005EB7485050400FB6F8945EBF0FBE4DBF4B
:10112000EDB7FEB73196ADB7BEB712969C938E93CE
:10113000119783E291E093838283358324832F5F29
:101140003F4F378326830E946E2CEDB7FEB738964B
:101150000FB6F894FEBF0FBEEDBF1F910F91FF9029
:10116000EF90DF90CF90BF90AF909F9008950F9336
:101170001F93282F462F8DEE94E0622F0E94AC2AF9
:101180008DEE94E00E94222B80912505882319F48E
:1011900028E231E038C0813019F42DE231E033C06B
:1011A000823019F422E331E02EC027E331E08330AE
:1011B00019F428E331E027C0843019F42DE331E03D
:1011C00022C0853019F422E431E01DC0863019F4C4
:1011D00027E431E018C0873019F42CE431E013C063
:1011E0008A3019F421E531E00EC08B3019F426E580
:1011F00031E009C08C3019F42BE531E004C08F30A8
:1012000011F420E631E000D000D000D0EDB7FEB7F9
:1012100031960DEE14E0ADB7BEB712961C930E9347
:10122000119785E691E093838283358324830E941E
:101230006E2C8DB79EB706960FB6F8949EBF0FBE64
:101240008DBFC8010E94062B1F910F9108950F9327
:101250001F93282F462F0DEE14E0C801622F0E9425
:10126000AC2AC8010E94222B8091260560E00E94D2
:10127000D607C8010E94062B1F910F9108950F9366
:101280001F93282F462F0DEE14E0C801622F0E94F5
:10129000AC2AC8010E94222B8DB79EB70A970FB6C1
:1012A000F8949EBF0FBE8DBFEDB7FEB73196ADB7B8
:1012B000BEB712961C930E93119788E691E0938324
:1012C000828383EC90E09583848385E395E0978324
:1012D000868387E890E0918780870E946E2C8DB787
:1012E0009EB70A960FB6F8949EBF0FBE8DBFC80179
:1012F0000E94062B1F910F9108950F931F93282F83
:10130000462F0DEE14E0C801622F0E94AC2AC801DE
:101310000E94222B8DB79EB70A970FB6F8949EBFF6
:101320000FBE8DBFEDB7FEB73196ADB7BEB7129603
:101330001C930E9311978FE691E0938382838091A3
:10134000290590912A05A0912B05B0912C05848345
:101350009583A683B78385E090E0918780870E947C
:101360006E2C8DB79EB70A960FB6F8949EBF0FBE2F
:101370008DBFC8010E94062B1F910F9108950F93F6
:101380001F93282F462F0DEE14E0C801622F0E94F4
:10139000AC2AC8010E94222B8DB79EB70C970FB6BE
:1013A000F8949EBF0FBE8DBFEDB7FEB73196ADB7B7
:1013B000BEB712961C930E93119787E791E0938323
:1013C00082838091410590914205A0914305B0919F
:1013D000440584839583A683B783809145059091C6
:1013E0004605A0914705B091480580879187A2875F
:1013F000B3870E946E2C8DB79EB70C960FB6F894EB
:101400009EBF0FBE8DBFC8010E94062B1F910F917A
:1014100008950F931F93282F462F8DEE94E0622F8F
:101420000E94AC2A8DEE94E00E94222B8091490507
:10143000823011F42FE105C0833011F42FE001C098
:101440002AE280914A0590914B05883C910520F055
:1014500080910405811120E28DB79EB708970FB6E1
:10146000F8949EBF0FBE8DBFEDB7FEB731960DEE5F
:1014700014E0ADB7BEB712961C930E93119785E892
:1014800091E0938382832483158280914C05868327
:1014900017820E946E2C8DB79EB708960FB6F894EF
:1014A0009EBF0FBE8DBFC8010E94062B1F910F91DA
:1014B00008950F931F93282F462F0DEE14E0C801B7
:1014C000622F0E94AC2AC8010E94222B8DB79EB7C2
:1014D0000A970FB6F8949EBF0FBE8DBFEDB7FEB74B
:1014E0003196ADB7BEB712961C930E9311978BE849
:1014F00091E09383828380914D0590914E05A09158
:101500004F05B091500584839583A683B7838DE002
:1015100090E0918780870E946E2C8DB79EB70A96C7
:101520000FB6F8949EBF0FBE8DBFC8010E94062B58
:101530001F910F9108950F931F93282F462F0DEEA3
:1015400014E0C801622F0E94AC2AC8010E94222B1D
:101550008DB79EB70A970FB6F8949EBF0FBE8DBF8A
:10156000EDB7FEB73196ADB7BEB712961C930E938A
:10157000119783E991E0938382838091170590917D
:1015800018059583848385E090E09783868386E0C1
:1015900090E0918780870E946E2C8DB79EB70A9647
:1015A0000FB6F8949EBF0FBE8DBFC8010E94062BD8
:1015B0001F910F9108950F931F93282F462F0DEE23
:1015C00014E0C801622F0E94AC2AC8010E94222B9D
:1015D0008DB79EB70A970FB6F8949EBF0FBE8DBF0A
:1015E000EDB7FEB73196ADB7BEB712961C930E930A
:1015F000119783E991E093838283809119059091FB
:101600001A059583848385E090E09783868387E03D
:1016100090E0918780870E946E2C8DB79EB70A96C6
:101620000FB6F8949EBF0FBE8DBFC8010E94062B57
:101630001F910F910895CF92DF92EF92FF920F9337
:101640001F93CF93DF93282F462FCDEED4E0CE010A
:10165000622F0E94AC2ACE010E94222B609151057C
:101660007091520580915305909154050E949337D3
:101670002091090530910A0540910B0550910C0508
:101680000E94C6386B017C0120E03CE34CE156E44B
:101690000E94BB381816C4F58DB79EB70C970FB6CD
:1016A000F8949EBF0FBE8DBF0DB71EB70F5F1F4FC3
:1016B000ADB7BEB71296DC93CE9311978BE991E04C
:1016C000F801938382838BE090E09583848360911B
:1016D00014057091150580E090E00E9491379B0100
:1016E000AC01C701B6010E94F836D80116966D9379
:1016F0007D938D939C931997809113051A968C93E3
:101700001A971B961C9221C08DB79EB70C970FB6E7
:10171000F8949EBF0FBE8DBFEDB7FEB73196ADB743
:10172000BEB71296DC93CE93119785EA91E093832E
:1017300082838BE090E095838483C682D782E086A3
:10174000F18680910E05828713860E946E2CEDB77C
:10175000FEB73C960FB6F894FEBF0FBEEDBF8DEE00
:1017600094E00E94062BDF91CF911F910F91FF9083
:10177000EF90DF90CF900895EF92FF920F931F9319
:10178000282F462F1DEEE12E14E0F12EC701622F07
:101790000E94AC2AC7010E94222B0E947A3328EEB5
:1017A00033E040E050E00E94133A8091550590915B
:1017B0005605A0915705B0915805281B390B4A0BC7
:1017C0005B0BCA01B9010E9491376093E4027093E8
:1017D000E5028093E6029093E7020E9460378B0156
:1017E0009C018DB79EB70A970FB6F8949EBF0FBEA7
:1017F0008DBFEDB7FEB73196ADB7BEB71296FC926E
:10180000EE9211978FEA91E093838283C8016CE393
:1018100070E00E94003A758364838AE390E09783C6
:101820008683C8016CE370E00E94003A918780874C
:101830000E946E2C8DB79EB70A960FB6F8949EBF85
:101840000FBE8DBFC7010E94062B1F910F91FF9005
:10185000EF900895CF93DF93282F462FCDEED4E05D
:10186000CE01622F0E94AC2ACE010E94222B86E973
:1018700096E068E773E00E941F33813051F58DB721
:101880009EB70A970FB6F8949EBF0FBE8DBFEDB7F7
:10189000FEB73196ADB7BEB71296DC93CE931197D3
:1018A00089EB91E09383828387E190E09583848341
:1018B00080915905992787FD90959783868385E2C6
:1018C00090E0918780870E946E2C8DB79EB70A9614
:1018D0002CC0ADB7BEB71C970FB6F894BEBF0FBEF5
:1018E000ADBFEDB7FEB731961296DC93CE9311974C
:1018F00083EC91E09383828387E190E095838483F6
:1019000080915A0590915B05A0915C05B0915D05B1
:1019100086839783A087B18781E090E09387828751
:101920000E946E2C8DB79EB70C960FB6F8949EBF92
:101930000FBE8DBF8DEE94E00E94062BDF91CF91FC
:1019400008950F931F93282F462F0DEE14E0C80122
:10195000622F0E94AC2AC8010E94222B8DB79EB72D
:1019600008970FB6F8949EBF0FBE8DBFEDB7FEB7B8
:101970003196ADB7BEB712961C930E9311978DECAE
:1019800091E09383828380915E058483158285E252
:1019900090E0978386830E946E2C8DB79EB7089641
:1019A0000FB6F8949EBF0FBE8DBFC8010E94062BD4
:1019B0001F910F910895BF92CF92DF92EF92FF9205
:1019C0000F931F93282F462F8DEE94E0622F0E94D5
:1019D000AC2A8DEE94E00E94222B8091FF0481308E
:1019E00009F03AC180914905823028F4DD24D3946E
:1019F000BB24B39402C0DD24BB2460915F057091C9
:101A000060058091610590916205209105053091F6
:101A1000060540910705509108050E94C6387B01D4
:101A20008C016091630570E0882777FD8095982F81
:101A30000E9493379B01AC01C801B7010E94F136A7
:101A400088234CF480916405813029F4CC24C3941C
:101A5000DD24D39401C0CC246091650570E080E062
:101A600090E00E9491379B01AC01C801B7010E9430
:101A7000BB38181624F411E0DD24D39401C010E023
:101A80006091660570E080E090E00E94913720E070
:101A900030E040E251E40E94F8369B01AC016091D5
:101AA0004D0570914E0580914F05909150050E9413
:101AB000F13687FD10C0409167058091590599273F
:101AC00087FD9095242F30E08217930714F4442368
:101AD00011F440E003C041E0DD24D3942091E802FA
:101AE0003091E9028091680590E0281739075CF48D
:101AF0002D593F4F41F080916905882321F431E051
:101B0000DD24D39401C030E080916A058823C9F4B4
:101B1000DD2069F08B2D90E001968C0D911D810FD9
:101B2000911D840F911D830F911D029739F485ED4E
:101B300091E090936C0580936B0503C081E08093E6
:101B40006A0580916A05813069F491E0B91639F42B
:101B500082EE91E090936C0580936B0503C082E068
:101B600080936A0580916A05823069F4A1E0CA1603
:101B700039F48FEE91E090936C0580936B0503C070
:101B800083E080936A0580916A05833061F41130A7
:101B900039F48CEF91E090936C0580936B0503C052
:101BA00084E080936A0580916A05843061F4413055
:101BB00039F489E092E090936C0580936B0503C043
:101BC00085E080936A0520916A05253041F4313023
:101BD00031F486E192E090936C0580936B052F5F62
:101BE00020936A05B1E0DB1639F480916D058330EE
:101BF00018F41092EA020AC080916E0590916F0568
:101C0000805B944018F481E08093EA02263010F063
:101C100010926A0500D000D000D0EDB7FEB7319623
:101C20008DEE94E0ADB7BEB712969C938E9311974C
:101C300085E691E09383828380916B0590916C059A
:101C4000958384830E946E2C8DB79EB706960FB63F
:101C5000F8949EBF0FBE8DBF8DEE94E00E94062BC0
:101C60001F910F91FF90EF90DF90CF90BF9008955C
:101C7000CF92DF92EF92FF920F931F93282F462F60
:101C80000DEEC02E04E0D02EC601622F0E94AC2AB9
:101C9000C6010E94222B6091780570917905809190
:101CA0007A0590917B052091090530910A054091B4
:101CB0000B0550910C050E94C63820E030E040E74B
:101CC00052E40E94C6382DEC3CEC4CEC5DE30E94E3
:101CD000C6387B018C0160917C0570917D058091F7
:101CE0007E0590917F0526E636E646E65FE30E9494
:101CF000C6389B01AC01C801B7010E942B36609326
:101D00007C0570937D0580937E0590937F052DB7AC
:101D10003EB72E5030400FB6F8943EBF0FBE2DBFD9
:101D20000DB71EB70F5F1F4FEDB7FEB7D282C1824E
:101D300023E232E0F8013383228325E130E035836A
:101D4000248320E030E040E251E40E94F8360E9413
:101D50006037882777FD8095982F0E94933720E081
:101D600030E040E251E40E94C638F8016683778390
:101D700080879187809116058287138680E290E0A4
:101D8000958784870E946E2C2DB73EB7225F3F4F08
:101D90000FB6F8943EBF0FBE2DBFC6010E94062BA2
:101DA0001F910F91FF90EF90DF90CF900895EF92E9
:101DB000FF920F931F93282F462F8DEEE82E84E07D
:101DC000F82EC701622F0E94AC2AC7010E94222B65
:101DD0008DB79EB70A970FB6F8949EBF0FBE8DBF02
:101DE0000DB71EB70F5F1F4FEDB7FEB7F282E1824E
:101DF0008BE891E0F8019383828360918405709170
:101E00008505882777FD8095982F0E9493372AE0D3
:101E100037ED43E25CE30E94C638F80164837583C2
:101E2000868397838EE090E0918780870E946E2C56
:101E30008DB79EB70A960FB6F8949EBF0FBE8DBFA2
:101E4000C7010E94062B1F910F91FF90EF900895FC
:101E5000CF92DF92EF92FF920F931F93282F462F7E
:101E60003DEEE32E34E0F32EC701622F0E94AC2A30
:101E7000C7010E94222B8DB79EB748970FB6F894E2
:101E80009EBF0FBE8DBF0DB71EB70F5F1F4FEDB7C3
:101E9000FEB7F282E1828FE292E0F80193838283BF
:101EA00080EB90E09583848360918605709187052F
:101EB00080918805909189052091090530910A0546
:101EC00040910B0550910C050E94C6389058F801BE
:101ED000668377838087918780910E05828713863A
:101EE00090E2C92ED12CD586C48681EB90E09787ED
:101EF000868760918A0570918B0580918C05909101
:101F00008D0520E030E048EC52E40E94F836209144
:101F100005053091060540910705509108050E947E
:101F2000C638F801608B718B828B938B80910D0585
:101F3000848B158AD78AC68A0E946E2C8DB79EB76D
:101F400048960FB6F8949EBF0FBE8DBFC7010E9482
:101F5000062B1F910F91FF90EF90DF90CF90089587
:101F6000DF92EF92FF920F931F9320918E05253001
:101F700029F480918F059091900514C0263029F4A2
:101F800080919105909192050DC0273029F48091A0
:101F900093059091940506C0283041F480919505F1
:101FA0009091960590936F0580936E058091EA025B
:101FB000882361F490916D0580919705891719F038
:101FC00081E08093980590939705DAC02430D1F58D
:101FD00090912505892F8650823008F4D1C08091D8
:101FE00099058917A9F0909399050E947A33609317
:101FF0009A0570939B0580939C0590939D05909105
:1020000099058091EB02981719F4DD24D39401C04F
:10201000DD240E947A3320919A0530919B054091EE
:102020009C0550919D05621B730B840B950B615DA4
:1020300077408040904008F495C0809125058093BA
:10204000EB0290C080919E0520916E0530916F0546
:10205000882351F544E0213D340740F480919705F1
:10206000882321F081E08093980588C0C901815DB3
:1020700094408B3E910540F480919705813021F08A
:1020800081E0809398050DC02C5B354008F478C042
:1020900080919705823009F473C081E080939805A0
:1020A00082E0809397056CC080919F059091A00578
:1020B000D901A81BB90BCD01B7FF03C0909581953D
:1020C0009F4F853691050CF45BC08091A1059091DE
:1020D000A205A901481B590BCA015FEF8D3995076D
:1020E00034F1843691051CF58DEE94E00E94062BA8
:1020F000E0909A05F0909B0500919C0510919D053C
:1021000088EE93E0A0E0B0E0E80EF91E0A1F1B1F66
:102110000E947A33DD246E157F058007910710F445
:10212000DD24D3941092A2051092A1051BC00E9439
:102130007A3360939A0570939B0580939C059093E6
:102140009D0580919F059091A0059093A205809395
:10215000A10580916E0590916F059093A0058093E5
:102160009F050EC0DD2061F081E08093980580918D
:1021700097058F5F80939705833010F01092970535
:102180001F910F91FF90EF90DF900895EF92FF92D3
:102190000F931F93282F462F8DEE94E0622F0E94FD
:1021A000AC2A8DEE94E00E94222BE090A305F090E3
:1021B000A4050091A5051091A605C801B70120E06E
:1021C00030E040E050E00E94F13688234CF4C80132
:1021D000B70120E030E044EB53E40E942B3602C00C
:1021E000C801B7012091290530912A0540912B059E
:1021F00050912C050E942A3620E030E044EB53E455
:102200000E94F83620E030E040E851E40E94C638F1
:102210000E94293920E030E040E151E40E942B3651
:102220000E9460376093A7058091A705813114F063
:10223000805103C018161CF0805F8093A705609141
:102240001B0570911C0580911D0590911E052AE0CB
:1022500037ED43E25CE30E94C6387B018C0160915C
:102260001F0570912005809121059091220524EA97
:1022700030E74DE75FE30E94C6389B01AC01C8011F
:10228000B7010E942B3660931F0570932005809341
:102290002105909322058091A70561E00E94D60751
:1022A0008DEE94E00E94062B1F910F91FF90EF900E
:1022B0000895CF93DF93282F462FCDEED4E0CE01A3
:1022C000622F0E94AC2ACE010E94222B0E947A33F8
:1022D00028EE33E040E050E00E94133ACA01B90111
:1022E0002CE330E040E050E00E94133A25E631E074
:1022F000623071058105910588F400D000D000D0CE
:10230000EDB7FEB73196ADB7BEB71296DC93CE935C
:1023100011973383228388EA95E010C000D000D063
:1023200000D0EDB7FEB73196ADB7BEB71296DC93CD
:10233000CE931197338322838CEE92E0958384832E
:102340000E946E2C8DB79EB706960FB6F8949EBF6E
:102350000FBE8DBF8DEE94E00E94062BDF91CF91D2
:102360000895BF92CF92DF92EF92FF920F931F9347
:10237000282F462F8DEE94E0622F0E94AC2A8DEE1E
:1023800094E00E94222B9091690590FD4FC0C0906F
:10239000B2058091B1058C1510F4C092B105B090D2
:1023A000B3058091B105B81610F4B092B105992328
:1023B00069F4DD246091B10570E06C197D0988270E
:1023C00077FD8095982F0E94933711C0983071F552
:1023D00080919505909196056AE070E00E94EC3935
:1023E000DD246C197D0980E090E00E9491377B012B
:1023F0008C016B2D70E06C197D09882777FD809525
:10240000982F0E9493379B01AC01C801B7010E942D
:10241000F83620E030E048EC52E40E94C6380E94D2
:1024200060377093E9026093E80213C0913039F489
:102430008091B1058093E8021092E9020AC09930B8
:1024400041F480919505909196059093E9028093CF
:10245000E8026091E8027091E902882777FD809593
:10246000982F0E94933720E030E048EC52E40E941D
:10247000BB38181634F484E690E09093E902809318
:10248000E8028DB79EB70A970FB6F8949EBF0FBEAD
:102490008DBFEDB7FEB731960DEE14E0ADB7BEB708
:1024A00012961C930E93119787E492E09383828394
:1024B00089E090E0958384838091E8029091E9021D
:1024C0009783868385E290E0918780870E946E2CB7
:1024D0008DB79EB70A960FB6F8949EBF0FBE8DBFFC
:1024E000C8010E94062B1F910F91FF90EF90DF9083
:1024F000CF90BF900895EF92FF920F931F93282FD4
:10250000462F5DEEE52E54E0F52EC701622F0E94A6
:10251000AC2AC7010E94222B8DB79EB70A970FB62F
:10252000F8949EBF0FBE8DBF0DB71EB70F5F1F4F34
:10253000EDB7FEB7F282E1828FE492E0F801938377
:1025400082838091E30290E02091C9053091CA0511
:10255000829FB001839F700D929F700D1124209176
:10256000110530911205620F731F80E090E00E9408
:10257000913720E030E04AE754E40E94F836F80151
:10258000648375838683978380910F0590911005EE
:10259000918780870E946E2C8DB79EB70A960FB6E2
:1025A000F8949EBF0FBE8DBFC7010E94062B1F91DE
:1025B0000F91FF90EF9008952F923F924F925F926C
:1025C0006F927F928F929F92AF92BF92CF92DF9243
:1025D000EF92FF920F931F93DF93CF9300D0CDB76D
:1025E000DEB76DEE262E64E0362EC1016BE043E0CF
:1025F0000E94AC2AC1010E94222BC090E402D0901C
:10260000E502E090E602F090E702809009059090E4
:102610000A05A0900B05B0900C0540900505509060
:102620000605609007057090080580910E05898366
:1026300090910D059A83EDB7FEB7E854F0400FB6C0
:10264000F894FEBF0FBEEDBF0DB71EB70F5F1F4F53
:102650003282218287E592E0F8019383828388E0C9
:1026600090E095838483C701B60120E030E040E725
:1026700052E40E94F8360E946037F801778366833F
:102680008AE390E091878087C701B6010E94603796
:10269000DC01CB016CE370E00E94003AF801938703
:1026A00082878BE090E095878487C501B4012091F3
:1026B000CB053091CC054091CD055091CE050E94BF
:1026C000C638F80166877787808B918B8981828BEA
:1026D000138A8FE890E0958B848BC501B40120911B
:1026E000BD053091BE054091BF055091C0050E94C7
:1026F000C638F801668B778B808F918F8981828FA6
:10270000138E83E190E0958F848FC301B2012091F5
:10271000CF053091D0054091D1055091D2050E944E
:10272000C6380E946037F801778F668F8A8180A350
:1027300011A284E190E093A382A3C301B20120918E
:10274000D3053091D4054091D5055091D6050E940E
:10275000C6380E946037F80175A364A38A8186A3F6
:1027600017A282E190E091A780A7C501B401209152
:10277000D7053091D8054091D9055091DA050E94CE
:10278000C6380E946037F80173A762A7898184A7C1
:1027900015A68DE190E097A786A7C301B20120910D
:1027A000DB053091DC054091DD055091DE050E948E
:1027B000C6380E946037F80171AB60AB8A8182AB8A
:1027C00013AA87E190E095AB84AB80915A05909174
:1027D0005B05A0915C05B0915D0586AB97ABA0AFA2
:1027E000B1AF81E090E093AF82AF83E090E095AF2E
:1027F00084AF025C1F4F8091410590914205A091EA
:102800004305B0914405F80181939193A193B1934D
:1028100084E090E0819391938091450590914605E5
:10282000A0914705B091480580839183A283B3832B
:102830000E946E2C8DB79EB7885B9F4F0FB6F894A1
:102840009EBF0FBE8DBFC1010E94062B0F900F903F
:10285000CF91DF911F910F91FF90EF90DF90CF907C
:10286000BF90AF909F908F907F906F905F904F90B0
:102870003F902F900895CF92DF92EF92FF920F93A7
:102880001F93CF93DF93282F462FCDEED4E0CE01B8
:10289000622F0E94AC2ACE010E94222B6091BD05BE
:1028A0007091BE058091BF059091C00520910905EA
:1028B00030910A0540910B0550910C050E94C638D5
:1028C0006B017C0120E03CE34CE156E40E94BB3804
:1028D0001816C4F58DB79EB70C970FB6F8949EBF27
:1028E0000FBE8DBF0DB71EB70F5F1F4FADB7BEB781
:1028F0001296DC93CE9311978BE991E0F8019383C4
:1029000082838FE890E095838483609114057091B1
:10291000150580E090E00E9491379B01AC01C70152
:10292000B6010E94F836D80116966D937D938D936B
:102930009C931997809113051A968C931A971B965E
:102940001C9221C08DB79EB70C970FB6F8949EBF0E
:102950000FBE8DBFEDB7FEB73196ADB7BEB71296BD
:10296000DC93CE93119785EA91E0938382838FE87D
:1029700090E095838483C682D782E086F186809139
:102980000E05828713860E946E2CEDB7FEB73C962B
:102990000FB6F894FEBF0FBEEDBF8DEE94E00E941F
:1029A000062BDF91CF911F910F91FF90EF90DF9059
:1029B000CF900895EF92FF920F931F93282F462FE9
:1029C0008DEE94E0622F0E94AC2A8DEE94E00E947E
:1029D000222B8091DF059091E00564E670E00E9473
:1029E000EC3980E090E00E949137209129053091E8
:1029F0002A0540912B0550912C050E942A367B0117
:102A00008C0120E030E044EB53E40E94F83620E0F3
:102A100030E040E851E40E94C63820E030E040E871
:102A20005FE30E942B360E9429390E946037862F6F
:102A30006093E105161614F0805F03C061311CF04D
:102A400080518093E105C801B70120E030E044E304
:102A500053E40E94BB3818164CF4C801B70120E0BB
:102A600030E044EB53E40E942A3615C0C801B70198
:102A700020E030E044E353EC0E94F13688234CF42C
:102A8000C801B70120E030E044EB53E40E942B364C
:102A900002C0C801B7010E94653770932405609396
:102AA00023058091E10562E00E94D6078DEE94E057
:102AB0000E94062B1F910F91FF90EF900895EF92C7
:102AC000FF920F931F93CF93DF93282F462F8DEE06
:102AD00094E0622F0E94AC2A8DEE94E00E94222B9B
:102AE0002091270530912805121613062CF0211588
:102AF000310559F128593E4FB901882777FD809556
:102B0000982F0E9493372091290530912A054091F2
:102B10002B0550912C050E942A3620E030E044EB32
:102B200053E40E94F83620E030E040E851E40E948F
:102B3000C6380E94293920E030E040E85FE30E9477
:102B40002B360E94603760932D0580912D0587FFFD
:102B500003C0805F80932D0580912D05882319F493
:102B600080E180932D05E0902E05F0902F050091D7
:102B7000300510913105C801B70120E030EC49E77C
:102B800054E40E94BB3818162CF480E090ECA9E7BE
:102B9000B4E40EC0C801B70120E030EC49E754ECC2
:102BA0000E94F136882364F480E090ECA9E7B4EC4D
:102BB00080932E0590932F05A0933005B093310597
:102BC0008DB79EB742970FB6F8949EBF0FBE8DBFCC
:102BD0000DB71EB70F5F1F4FCDEED4E0EDB7FEB7B8
:102BE000D283C18383EB92E0F8019383828387E5EC
:102BF00090E09583848380E790E09783868380913B
:102C00003205808711861386128660913305709194
:102C1000340580E090E00E949137209109053091C1
:102C20000A0540910B0550910C050E94C638F80129
:102C3000648775878687978780910E05808B118AB8
:102C40000E946E2C8DB79EB742960FB6F8949EBF29
:102C50000FBE8DBF80912D0560E00E94D607809148
:102C600025058A3029F08F3019F0873009F047C0E8
:102C7000EDB7FEB770970FB6F894FEBF0FBEEDBF6D
:102C80000DB71EB70F5F1F4F8DEE94E092838183C7
:102C900085EC92E0F8019383828380E290E0958353
:102CA000848388E590E09783868385E690E091872A
:102CB000808760912E0570912F058091300590914D
:102CC00031052091090530910A0540910B0550917D
:102CD0000C050E94C638F801628773878487958740
:102CE00080910E05868717860E946E2C8DB79EB741
:102CF00040960FB6F8949EBF0FBE8DBF10C000D097
:102D000000D0EDB7FEB7D283C18386ED90E0948307
:102D100083830E945D2C0F900F900F900F908DEE8B
:102D200094E00E94062BDF91CF911F910F91FF90AD
:102D3000EF9008950F931F93282F462F0DEE14E068
:102D4000C801622F0E94AC2AC8010E94222B00D029
:102D500000D0EDB7FEB7128301838FED90E094832E
:102D600083830E945D2C0F900F900F900F90C801ED
:102D70000E94062B1F910F910895CF92DF92EF9240
:102D8000FF920F931F937C01D62EC72E0DEE14E0F9
:102D9000C8016E2D4D2D0E94AC2AC8010E94222B25
:102DA00000D000D0EDB7FEB7128301838CEE90E027
:102DB000948383830E945D2C0F900F900F900F904F
:102DC000C8010E94062BC70101966D2D7C2D0E9423
:102DD0005C061F910F91FF90EF90DF90CF900895C8
:102DE000EF92FF920F931F93CF93DF93282F462FDD
:102DF000CDEED4E0CE01622F0E94AC2ACE010E941B
:102E0000222B86E996E062E773E00E941F33882355
:102E100081F000D000D0EDB7FEB7D283C18384E348
:102E200091E0948383830E945D2C0F900F900F900C
:102E30000F908DB79EB70A970FB6F8949EBF0FBE3E
:102E40008DBF0DB71EB70F5F1F4F7DEEE72E74E0ED
:102E5000F72EEDB7FEB7F282E18283ED92E0F80142
:102E60009383828360915F05709160058091610515
:102E70009091620520910505309106054091070566
:102E8000509108050E94C638F801648375838683D3
:102E9000978380910D05808711860E946E2C8DB7D7
:102EA0009EB70A960FB6F8949EBF0FBE8DBFC7019E
:102EB0000E94062BDF91CF911F910F91FF90EF9011
:102EC0000895EF92FF920F931F93CF93DF93282FD4
:102ED000462FCDEED4E0CE01622F0E94AC2ACE0167
:102EE0000E94222B86E996E060E773E00E941F3380
:102EF000882381F000D000D0EDB7FEB7D283C18324
:102F000086E391E0948383830E945D2C0F900F9061
:102F10000F900F908DB79EB70A970FB6F8949EBF8B
:102F20000FBE8DBF0DB71EB70F5F1F4FEDEEEE2E1C
:102F3000E4E0FE2EEDB7FEB7F282E18283ED92E08F
:102F4000F80193838283609170057091710580917F
:102F50007205909173052091050530910605409109
:102F60000705509108050E94C638F80164837583EF
:102F70008683978380910D05808711860E946E2C31
:102F80008DB79EB70A960FB6F8949EBF0FBE8DBF41
:102F9000C7010E94062BDF91CF911F910F91FF90E7
:102FA000EF900895EF92FF920F931F93CF93DF93CB
:102FB000282F462FCDEED4E0CE01622F0E94AC2AFE
:102FC000CE010E94222B86E996E06EE673E00E9415
:102FD0001F33882381F000D000D0EDB7FEB7D28335
:102FE000C18388E391E0948383830E945D2C0F90DA
:102FF0000F900F900F908DB79EB70A970FB6F89469
:103000009EBF0FBE8DBF0DB71EB70F5F1F4FFDEEEA
:10301000EF2EF4E0FF2EEDB7FEB7F282E1828BEDEA
:1030200092E0F80193838283609174057091750535
:1030300080917605909177052091090530910A05D8
:1030400040910B0550910C050E94C638F80164832D
:1030500075838683978380910E05808711860E94F1
:103060006E2C8DB79EB70A960FB6F8949EBF0FBE12
:103070008DBFC7010E94062BDF91CF911F910F9149
:10308000FF90EF900895EF92FF920F931F93CF93CD
:10309000DF93282F462FCDEED4E0CE01622F0E9481
:1030A000AC2ACE010E94222B86E996E06CE673E002
:1030B0000E941F33882381F000D000D0EDB7FEB707
:1030C000D283C1838AE391E0948383830E945D2C41
:1030D0000F900F900F900F908DB79EB70A970FB675
:1030E000F8949EBF0FBE8DBF0DB71EB70F5F1F4F69
:1030F000ADEEEA2EA4E0FA2EEDB7FEB7F282E18241
:103100008BED92E0F801938382836091800570914A
:103110008105809182059091830520910905309168
:103120000A0540910B0550910C050E94C638F80124
:10313000648375838683978380910E0580871186CB
:103140000E946E2C8DB79EB70A960FB6F8949EBF5C
:103150000FBE8DBFC7010E94062BDF91CF911F913B
:103160000F91FF90EF900895AF92BF92CF92DF92B0
:10317000EF92FF920F931F93282F462F8DEE94E02E
:10318000622F0E94AC2A8DEE94E00E94222B809147
:103190005E059091B405882309F4ADC0992319F414
:1031A00081E08093B405A0907005B0907105C09047
:1031B0007205D0907305C601B50120E030E040E013
:1031C00050E00E94F136882309F448C060918405DC
:1031D00070918505882777FD8095982F0E949337F9
:1031E00020E030E040E251E40E94C6387B018C01CF
:1031F000C601B501209105053091060540910705EE
:10320000509108050E94C6389B01AC01C801B70166
:103210000E94F8362DEC3CEC4CEC5DE30E94C63885
:103220007B018C016091B5057091B6058091B70561
:103230009091B80526E636E646E65FE30E94C6387A
:103240009B01AC01C801B7010E942B366093B50504
:103250007093B6058093B7059093B805E090B505D7
:10326000F090B6050091B7051091B805C801B701F7
:1032700020E030E040E050E00E94BB38181674F5C2
:10328000C801B70120E03CE34CE156E40E94F1366E
:10329000181624F18DB79EB70C970FB6F8949EBF01
:1032A0000FBE8DBFEDB7FEB731968DEE94E0ADB792
:1032B000BEB712969C938E93119783EC91E0938303
:1032C000828386E190E095838483E682F78200879B
:1032D000118781E090E093878287DDC000D000D025
:1032E0008DEE94E0ADB7BEB712969C938E93119776
:1032F0008AE491E0F7C0992311F1809174059091CF
:103300007505A0917605B09177058093B9059093E6
:10331000BA05A093BB05B093BC058091BD05909103
:10332000BE05A091BF05B091C0058093C1059093E3
:10333000C205A093C305B093C4051092B405E090F4
:103340007805F090790500917A0510917B05C80108
:10335000B7012DEC3CEC4CE45DEB0E94F136882388
:103360000CF0A4C0E0907405F0907505009176050E
:10337000109177056091B9057091BA058091BB05F0
:103380009091BC05A80197010E942A369B01AC01CF
:10339000C801B7010E94F8367B018C016091BD0520
:1033A0007091BE058091BF059091C0052091C10527
:1033B0003091C2054091C3055091C4050E942A3640
:1033C0009B01AC01C801B7010E94C63820910905D4
:1033D00030910A0540910B0550910C050E94C638AA
:1033E0006093C5057093C6058093C7059093C80583
:1033F00020E03CE34CE156E40E94BB38181664F42C
:1034000080E09CE3ACE1B6E48093C5059093C605EB
:10341000A093C705B093C805E090C505F090C60518
:103420000091C7051091C805C801B70120E03CEC28
:103430004CED56E40E94F136882309F46AC0C801B5
:10344000B70120E030E040E050E00E94BB381816A1
:103450000CF05FC0EDB7FEB73C970FB6F894FEBF17
:103460000FBEEDBF31968DEE94E0ADB7BEB71296AC
:103470009C938E93119783EC91E09383828388E1F0
:1034800090E095838483E682F7820087118780919C
:103490000E05828713860E946E2CEDB7FEB73C9610
:1034A0000FB6F894FEBF0FBEEDBF33C0C801B70121
:1034B0002DEC3CEC4CE45DEB0E94BB388823BCF067
:1034C0008091190590911A0597FF11C000D000D086
:1034D0008DEE94E0ADB7BEB712969C938E93119784
:1034E00083E491E014969C938E9313970CC000D0C4
:1034F00000D08DEE94E0EDB7FEB7928381838CE32C
:1035000091E0948383830E945D2C0F900F900F9025
:103510000F908DEE94E00E94062B1F910F91FF906B
:10352000EF90DF90CF90BF90AF9008950F931F93CF
:103530000DEE14E0C80165E045E00E94AC2AC80128
:103540000E94222B00D000D0EDB7FEB7128301837A
:1035500081E591E0948383830E945D2C0F900F900E
:103560000F900F90C8010E94062B1F910F91089594
:103570000E94961A0E9435050895EF92FF920F93CC
:103580001F93809164058130D9F560917405709125
:103590007505809176059091770520E030E040E256
:1035A00051E40E94BB3818160CF1609170057091BF
:1035B0007105809172059091730520E030E040E83C
:1035C0005FE30E94BB3818168CF080915E05823054
:1035D00068F48091510590915205A0915305B091E6
:1035E000540585369105A105B10554F00E947A3342
:1035F0006093F5027093F6028093F7029093F802BD
:103600000E947A330E9491377B018C016091E20520
:103610007091E3058091E4059091E50520E030E8A4
:1036200049E055E40E942B369B01AC01C801B7016B
:103630000E94BB38181694F48091F902823039F058
:103640008DEE94E00E946F2B82E08093F90285E07A
:1036500090E06AE070E00E949A16AFC20E947A334E
:1036600068557B41804090402091F5023091F602F0
:103670004091F7025091F80226173707480759077B
:1036800070F48091F902813039F08DEE94E00E945F
:103690006F2B81E08093F9020E94DC128EC2809130
:1036A000540480FF08C06091AE048091AC0490E0A7
:1036B00070E00E94DB0C80918E05843010F00E9437
:1036C000B00F80919805882321F48091F902882316
:1036D00041F08DEE94E00E946F2B109298051092AD
:1036E000F90280919705823009F467C2A82FB0E0F3
:1036F000FD01E25BFB4F808181FF0BC0FD01E65ABB
:10370000FB4F6081A85ABB4F8C9190E070E00E9403
:10371000DB0A80919705A82FB0E0FD01E25BFB4F2B
:10372000808182FF0BC0FD01E25AFB4F6081A45AE9
:10373000BB4F8C9190E070E00E949B0A80919705AE
:10374000A82FB0E0FD01E25BFB4F808183FF0BC03F
:10375000FD01EE59FB4F6081A05ABB4F8C9190E068
:1037600070E00E94590A80919705A82FB0E0FD01F2
:10377000E25BFB4F808185FF0BC0FD01EA59FB4FE7
:103780006081AC59BB4F8C9190E070E00E94090AB7
:1037900080919705A82FB0E0FD01E25BFB4F80818F
:1037A00087FF0BC0FD01E259FB4F6081A459BB4F5D
:1037B0008C9190E070E00E94BF0980919705A82F3E
:1037C000B0E0FD01E25BFB4F808184FF0BC0FD0197
:1037D000EE58FB4F6081A059BB4F8C9190E070E098
:1037E0000E942A0C80919705A82FB0E0FD01E25BB2
:1037F000FB4F808186FF0BC0FD01E659FB4F6081C6
:10380000A859BB4F8C9190E070E00E94DA1480912F
:103810009705A82FB0E0FD01E05BFB4F808180FFA2
:103820000BC0FD01EA58FB4F6081AC58BB4F8C9137
:1038300090E070E00E943F0980919705A82FB0E0CA
:10384000FD01E05BFB4F808181FF0BC0FD01E6586D
:10385000FB4F6081A858BB4F8C9190E070E00E94B4
:103860007D098091E605813051F580919705A82F5B
:10387000B0E0FD01E05BFB4F808184FF0BC0FD01E8
:10388000EE57FB4F6081A058BB4F8C9190E070E0E9
:103890000E941B0B80919705A82FB0E0FD01E05B13
:1038A000FB4F808183FF0BC0FD01E258FB4F60811D
:1038B000A458BB4F8C9190E070E00E942709809142
:1038C0009705A82FB0E0FD01E05BFB4F808187FFEB
:1038D0000BC0FD01E657FB4F6081A857BB4F8C9191
:1038E00090E070E00E94BC0B809132058823A9F023
:1038F00080919705A82FB0E0FD01E05BFB4F808130
:1039000086FF0BC0FD01EA57FB4F6081AC57BB4FF0
:103910008C9190E070E00E945F1580919705A82F30
:10392000B0E0FD01EE5AFB4F808182FF0BC0FD012C
:10393000EE56FB4F6081A057BB4F8C9190E070E03A
:103940000E94431880919705A82FB0E0FD01EE5A20
:10395000FB4F808187FF0BC0FD01EA56FB4F608162
:10396000AC56BB4F8C9190E070E00E94D2178091D2
:103970009705A82FB0E0FD01EE5AFB4F808183FF31
:103980000BC0FD01E656FB4F6081A856BB4F8C91E2
:1039900090E070E00E94611780919705A82FB0E039
:1039A000FD01EE5AFB4F808181FF0BC0FD01E25605
:1039B000FB4F6081A456BB4F8C9190E070E00E9459
:1039C000F01680919705A82FB0E0FD01EE5AFB4F4D
:1039D000808184FF0BC0FD01EE55FB4F6081A05636
:1039E000BB4F8C9190E070E00E94A10C80919705F4
:1039F000A82FB0E0FD01EE5AFB4F808185FF0BC080
:103A0000FD01EA55FB4F6081AC55BB4F8C9190E0B6
:103A100070E00E94B70880919705A82FB0E0FD01E3
:103A2000EE5AFB4F808186FF0BC0FD01E655FB4F30
:103A30006081A855BB4F8C9190E070E00E94BD164C
:103A400080919705A82FB0E0FD01EE5AFB4F8081D1
:103A500080FF0BC0FD01E257FB4F6081A457BB4FB5
:103A60008C9190E070E00E94D70E80919705A82F6E
:103A7000B0E0FD01EC5AFB4F808182FF0BC0FD01DD
:103A8000EE54FB4F6081A055BB4F8C9190E070E0ED
:103A90000E94C61080919705A82FB0E0FD01EC5A56
:103AA000FB4F808183FF0BC0FD01EA54FB4F608117
:103AB000AC54BB4F8C9190E070E00E94380E809126
:103AC0009705A82FB0E0FD01EC5AFB4F808184FFE1
:103AD0000BC0FD01E654FB4F6081A854BB4F8C9195
:103AE00090E070E00E94280F80919705A82FB0E029
:103AF000FD01EC5AFB4F808186FF0BC0FD01E254B3
:103B0000FB4F6081A454BB4F8C9190E070E00E9409
:103B1000B11180919705A82FB0E0FD01EC5AFB4F41
:103B2000808187FF0BC0FD01EE53FB4F6081A054E5
:103B3000BB4F8C9190E070E00E94B4188091970583
:103B4000A82FB0E0FD01EC5AFB4F808185FF0BC030
:103B5000FD01EA53FB4F6081AC53BB4F8C9190E069
:103B600070E00E94591180919705A82FB0E0FD01E7
:103B7000EA5AFB4F808181FF0BC0FD01E653FB4FEA
:103B80006081A853BB4F8C9190E070E00E947B1243
:103B900080919705A82FB0E0FD01EA5AFB4F808184
:103BA00082FF0BC0FD01E253FB4F6081A453BB4F6A
:103BB0008C9190E070E00E943B148091540485FF4A
:103BC0000EC0E0919705F0E0DF01AA53BB4F6C9166
:103BD000EC53FB4F808190E070E00E9459110E94ED
:103BE0008F031F910F91FF90EF900895CF93DF9374
:103BF000EC018DEE94E00E94A82AC817D9073CF08A
:103C00008DEE94E00E949D2A892B09F42397CE0122
:103C1000DF91CF910895EF92FF920F931F93CF936F
:103C2000DF930091970510E08AEF90E0089F700104
:103C3000099FF00C189FF00C1124C70188569F4F64
:103C40000E942006F801E25BFB4F882319F0808177
:103C5000806102C080818F7E808380919705C82F0C
:103C6000D0E0C70186569F4F0E942006C059DB4F07
:103C7000888380919705C82FD0E0C70184569F4F55
:103C80000E94200690E00E94F61DCE58DB4F8883EC
:103C90000091970510E0C70106960E942006F801E2
:103CA000E25BFB4F882319F08081826002C0808133
:103CB0008D7F808380919705C82FD0E0C70108963B
:103CC0000E942006C85ADB4F888380919705C82F31
:103CD000D0E0C7010A960E94200690E00E94F61DDF
:103CE000C65ADB4F88830091970510E0C7010C96F8
:103CF0000E942006F801E25BFB4F882319F08081C7
:103D0000846002C080818B7F808380919705C82F5B
:103D1000D0E0C7010E960E942006C45ADB4F88836C
:103D200080919705C82FD0E0C70140960E942006D9
:103D300090E00E94F61DC25ADB4F888300919705E0
:103D400010E0C70142960E942006F801E25BFB4F9B
:103D5000882319F08081886002C08081877F8083FA
:103D600080919705C82FD0E0C70144960E94200695
:103D7000C05ADB4F888380919705C82FD0E0C701D8
:103D800046960E94200690E00E94F61DCE59DB4F19
:103D900088830091970510E0C7014E960E94200687
:103DA000F801E25BFB4F882319F08081806202C03A
:103DB00080818F7D808380919705C82FD0E0C701D7
:103DC00080960E942006CC59DB4F8883809197050E
:103DD000C82FD0E0C70182960E94200690E00E9482
:103DE000F61DCA59DB4F88830091970510E0C70183
:103DF00084960E942006F801E25BFB4F882319F0AD
:103E00008081806402C080818F7B80838091970550
:103E1000C82FD0E0C70186960E942006C859DB4F04
:103E2000888380919705C82FD0E0C70188960E94AB
:103E3000200690E00E94F61DC659DB4F8883009152
:103E4000970510E0C7018A960E942006F801E25B00
:103E5000FB4F882319F08081806802C080818F77B2
:103E6000808380919705C82FD0E0C7018C960E946F
:103E70002006C459DB4F888380919705C82FD0E076
:103E8000C7018E960E94200690E00E94F61DC2593E
:103E9000DB4F88830091970510E0C701C0960E9410
:103EA0002006F801E05BFB4F882319F080818160D8
:103EB00002C080818E7F808380919705C82FD0E0DB
:103EC000C701C2960E942006CC58DB4F88838091A0
:103ED0009705C82FD0E0C701C4960E94200690E045
:103EE0000E94F61DCA58DB4F88830091970510E0A9
:103EF000C701C6960E942006F801E05BFB4F8823AD
:103F000019F08081826002C080818D7F80838091E2
:103F10009705C82FD0E0C701C8960E942006C85850
:103F2000DB4F888380919705C82FD0E0C701CA96E0
:103F30000E94200690E00E94F61DC658DB4F888341
:103F40000091970510E0C701885B9F4F0E942006F3
:103F5000F801E05BFB4F882319F08081806102C08B
:103F600080818F7E808380919705C82FD0E0C70124
:103F7000865B9F4F0E942006C058DB4F888380914C
:103F80009705C82FD0E0C701845B9F4F0E94200691
:103F900090E00E94F61DCE57DB4F88830091970575
:103FA00010E0C7018E5B9F4F0E942006F801E05B86
:103FB000FB4F882319F08081886002C08081877F51
:103FC000808380919705C82FD0E0C7018C5B9F4FFD
:103FD0000E942006C458DB4F888380919705C82F24
:103FE000D0E0C7018A5B9F4F0E94200690E00E94AC
:103FF000F61DC258DB4F88830091970510E0C7017A
:104000008A5A9F4F0E942006F801E05BFB4F8823ED
:1040100019F08081806402C080818F7B80838091D1
:104020009705C82FD0E0C701885A9F4F0E942006ED
:10403000CC57DB4F888380919705C82FD0E0C7010C
:10404000865A9F4F0E94200690E00E94F61DCA5794
:10405000DB4F88830091970510E0C70182569F4F80
:104060000E942006F801E05BFB4F882319F0808155
:10407000806802C080818F77808380919705C82FE8
:10408000D0E0C70180569F4F0E942006C857DB4FE3
:10409000888380919705C82FD0E0C7018E559F4F28
:1040A0000E94200690E00E94F61DC657DB4F8883D1
:1040B0000091970510E0C7018E599F4F0E9420067E
:1040C000F801EE5AFB4F882319F08081816002C00D
:1040D00080818E7F808380919705C82FD0E0C701B3
:1040E0008C599F4F0E942006C457DB4F88838091D4
:1040F0009705C82FD0E0C7018A599F4F0E9420061C
:1041000090E00E94F61DC257DB4F8883009197050F
:1041100010E0C70182599F4F0E942006F801EE5A15
:10412000FB4F882319F08081846002C080818B7FDF
:10413000808380919705C82FD0E0C70180599F4F99
:104140000E942006C057DB4F888380919705C82FB7
:10415000D0E0C7018E589F4F0E94200690E00E9439
:10416000F61DCE56DB4F88830091970510E0C701FE
:1041700084579F4F0E942006F801EE5AFB4F882378
:1041800019F08081806802C080818F778083809160
:104190009705C82FD0E0C70182579F4F0E94200685
:1041A000CC56DB4F888380919705C82FD0E0C7019C
:1041B00080579F4F0E94200690E00E94F61DCA562D
:1041C000DB4F88830091970510E0C7018E569F4F03
:1041D0000E942006F801EE5AFB4F882319F08081D7
:1041E000826002C080818D7F808380919705C82F77
:1041F000D0E0C7018C569F4F0E942006C456DB4F6B
:10420000888380919705C82FD0E0C7018A569F4FB9
:104210000E94200690E00E94F61DC256DB4F888364
:104220000091970510E0C7018C589F4F0E9420060F
:10423000F801EE5AFB4F882319F08081886002C094
:104240008081877F808380919705C82FD0E0C70148
:104250008A589F4F0E942006C856DB4F8883809162
:104260009705C82FD0E0C70188589F4F0E942006AD
:1042700090E00E94F61DC656DB4F8883009197059B
:1042800010E0C70186589F4F0E942006F801EE5AA1
:10429000FB4F882319F08081806102C080818F7E6E
:1042A000808380919705C82FD0E0C70184589F4F25
:1042B0000E942006C056DB4F888380919705C82F47
:1042C000D0E0C70182589F4F0E94200690E00E94D4
:1042D000F61DCE55DB4F88830091970510E0C7018E
:1042E00080589F4F0E942006F801EE5AFB4F88230A
:1042F00019F08081806202C080818F7D80838091EF
:104300009705C82FD0E0C7018E579F4F0E94200607
:10431000CC55DB4F888380919705C82FD0E0C7012B
:104320008C579F4F0E94200690E00E94F61DCA55B0
:10433000DB4F88830091970510E0C7018A579F4F94
:104340000E942006F801EE5AFB4F882319F0808165
:10435000806402C080818F7B808380919705C82F05
:10436000D0E0C70188579F4F0E942006C855DB4FF9
:10437000888380919705C82FD0E0C70186579F4F4B
:104380000E94200690E00E94F61DC655DB4F8883F0
:104390000091970510E0C7018C559F4F0E942006A1
:1043A000F801EC5AFB4F882319F08081816002C02C
:1043B00080818E7F808380919705C82FD0E0C701D0
:1043C0008A559F4F0E942006C455DB4F88838091F9
:1043D0009705C82FD0E0C70188559F4F0E9420063F
:1043E00090E00E94F61DC255DB4F8883009197052F
:1043F00010E0C70180559F4F0E942006F801EC5A3B
:10440000FB4F882319F08081846002C080818B7FFC
:10441000808380919705C82FD0E0C7018E549F4FAD
:104420000E942006C055DB4F888380919705C82FD6
:10443000D0E0C7018C549F4F0E94200690E00E945C
:10444000F61DCE54DB4F88830091970510E0C7011D
:104450008A549F4F0E942006F801EC5AFB4F882394
:1044600019F08081886002C08081877F808380917D
:104470009705C82FD0E0C70188549F4F0E9420069F
:10448000CC54DB4F888380919705C82FD0E0C701BB
:1044900086549F4F0E94200690E00E94F61DCA5449
:1044A000DB4F88830091970510E0C70184549F4F2C
:1044B0000E942006F801EC5AFB4F882319F08081F6
:1044C000806102C080818F7E808380919705C82F94
:1044D000D0E0C70182549F4F0E942006C854DB4F92
:1044E000888380919705C82FD0E0C70180549F4FE3
:1044F0000E94200690E00E94F61DC654DB4F888380
:104500000091970510E0C701845A9F4F0E94200632
:10451000F801EC5AFB4F882319F08081806402C0B7
:1045200080818F7B808380919705C82FD0E0C70161
:10453000825A9F4F0E942006C454DB4F888380918B
:104540009705C82FD0E0C701805A9F4F0E942006D0
:1045500090E00E94F61DC254DB4F888300919705BE
:1045600010E0C7018E539F4F0E942006F801EC5ABD
:10457000FB4F882319F08081806802C080818F778B
:10458000808380919705C82FD0E0C7018C539F4F3F
:104590000E942006C054DB4F888380919705C82F66
:1045A000D0E0C7018A539F4F0E94200690E00E94EE
:1045B000F61DCE53DB4F88830091970510E0C701AD
:1045C00088539F4F0E942006F801EC5AFB4F882326
:1045D00019F08081806202C080818F7D808380910C
:1045E0009705C82FD0E0C70186539F4F0E94200631
:1045F000CC53DB4F888380919705C82FD0E0C7014B
:1046000084539F4F0E94200690E00E94F61DCA53DB
:10461000DB4F88830091970510E0C7018C529F4FB4
:104620000E942006F801EA5AFB4F882319F0808186
:10463000826002C080818D7F808380919705C82F22
:10464000D0E0C7018A529F4F0E942006C853DB4F1B
:10465000888380919705C82FD0E0C70188529F4F6B
:104660000E94200690E00E94F61DC653DB4F88830F
:104670000091970510E0C70180529F4F0E942006CD
:10468000F801EA5AFB4F882319F08081846002C048
:1046900080818B7F808380919705C82FD0E0C701F0
:1046A0008E519F4F0E942006C453DB4F8883809118
:1046B0009705C82FD0E0C7018C519F4F0E9420065C
:1046C00090E00E94F61DC253DB4F8883DF91CF91AB
:1046D0001F910F91FF90EF90089586E996E064E7AF
:1046E00073E00E941F33882339F086E996E064E77F
:1046F00073E040E00E94263386E996E062EA73E0C8
:104700000E941F33823039F086E996E062EA73E056
:1047100042E00E94263386E996E064EA73E00E9454
:104720001F33843039F086E996E064EA73E044E0B0
:104730000E94263386E996E066EA73E00E941F3302
:10474000813039F086E996E066EA73E041E00E9444
:10475000263308958F929F92AF92BF92CF92DF92AD
:10476000FF920F931F93CF93DF93F62E4901C82E2C
:10477000DD248601000F111F5801AC0CBD1CE501A2
:10478000CC0FDD1FCC0FDD1FCA59D94F18828B818A
:104790009C818430910509F48EC0853091055CF4CC
:1047A0008230910509F443C0833091050CF0BFC0FD
:1047B0009923C4F44FC28730910509F443C188306E
:1047C000910544F48530910509F4DEC0069709F09F
:1047D00041C207C18830910509F47AC1099709F0EF
:1047E00039C2E7C18EEF681709F034C282E090E069
:1047F0009C838B8380E790E0C89ED001C99EB00D5A
:10480000D89EB00D1124AA50BA4F13961C9213973C
:1048100088E390E0C89EF001C99EF00DD89EF00D8F
:104820001124EE0FFF1FE850FA4F6083A4C1E5E6A4
:10483000E61788F489818F5F8983F501EE0FFF1FEA
:10484000EE0FFF1FE859F94F80818F5F8083188238
:1048500081E090E02DC080E790E0C89EF001C99E05
:10486000F00DD89EF00D1124EA50FA4F63831D829B
:1048700080818627282F2295207F282730E0522FFD
:104880004427C90163E0880F991F6A95E1F748271B
:104890005927818190E04827592784E0359527954D
:1048A0008A95E1F7422753275183408384E090E0C3
:1048B0009C838B83CFC18CE190E0C89EF001C99EA0
:1048C000F00DD89EF00D1124EE0FFF1FEE0FFF1F0D
:1048D000E650FA4F608380E790E0C89EF001C99EE1
:1048E000F00DD89EF00D1124EA50FA4F80818627F2
:1048F000282F2295207F282730E0522F4427C901F6
:10490000B3E0880F991FBA95E1F7482759278181AD
:1049100090E048275927A4E035952795AA95E1F717
:10492000422753275183408383E090E0C1CF80E743
:1049300090E0C89EF001C99EF00DD89EF00D1124A4
:10494000EA50FA4F658380818627282F2295207FA1
:10495000282730E0522F4427C90163E0880F991FB0
:104960006A95E1F748275927818190E04827592720
:1049700004E0359527950A95E1F74227532751839F
:10498000408385E090E094CF80E790E0C89EF001FE
:10499000C99EF00DD89EF00D1124EA50FA4F66839F
:1049A00080818627282F2295207F282730E0522FCC
:1049B0004427C901B3E0880F991FBA95E1F748274A
:1049C0005927818190E048275927A4E035952795FC
:1049D000AA95E1F7422753275183408386E090E070
:1049E00067CF80E790E0C89EF001C99EF00DD89E89
:1049F000F00D1124EA50FA4F678380818627282F13
:104A00002295207F282730E0522F4427C90163E0F8
:104A1000880F991F6A95E1F748275927818190E00F
:104A20004827592794E0359527959A95E1F742272D
:104A30005327518340838381882309F446C087E04C
:104A400090E036CF6D81F80183E0EE0FFF1F8A956D
:104A5000E1F7E01BF10B319603E0EE0FFF1F0A9523
:104A6000E1F7E60FF11DEA50FA4FF0826F5F6D83B8
:104A700080E790E0C89EF001C99EF00DD89EF00D31
:104A80001124EA50FA4F80818F25282F2295207F0C
:104A9000282730E0522F4427C901B3E0880F991F1F
:104AA000BA95E1F748275927818190E0482759278F
:104AB000A4E035952795AA95E1F74227532751831E
:104AC00040838381681709F0C5C088E090E0F0CE8C
:104AD00080E790E0C89ED001C99EB00DD89EB00D71
:104AE0001124AA50BA4F9C911796EC911797F0E0B9
:104AF000E050FD4F80818927482F4295407F48270D
:104B000050E0342F2227CA01E3E0880F991FEA956D
:104B1000E1F72827392711968C91119790E02827E3
:104B2000392774E0559547957A95E1F7242735277D
:104B300011963C932E93862F90E030708217930746
:104B4000F9F0F501EE0FFF1FEE0FFF1FE859F94FC7
:104B500080818F5F8083188281E090E09C838B83CB
:104B6000FEEFFF1609F076C082E090E09C838B8315
:104B700013961C9213978FEF9FEF8D939C936AC0AF
:104B800089E090E09C838B83F80153E0EE0FFF1FD8
:104B90005A95E1F7E01BF10B319643E0EE0FFF1F52
:104BA0004A95E1F78D81E80FF11DEA50FA4F6083D5
:104BB00051C0262F30E080E790E0C89EB001C99E2A
:104BC000700DD89E700D11246A507A4FFB018181BF
:104BD00090E028173907E9F0F501EE0FFF1FEE0FFF
:104BE000FF1FE859F94F80818F5F8083188281E031
:104BF00090E09C838B83FEEFFF1661F582E090E0EE
:104C00009C838B83EB011B828FEF9FEF99838883BB
:104C100021C081E0888381E090E09C838B83F80150
:104C200023E0EE0FFF1F2A95E1F7E01BF10B319611
:104C300093E0EE0FFF1F9A95E1F78D81E80FF11DCC
:104C4000E950FA4FF082DA01FB0180E701900D9202
:104C50008150E1F7D601AA0FBB1FAC0DBD1DAA0FF5
:104C6000BB1FAA0FBB1FAA59B94F8C91813069F5A0
:104C70008CE190E0C89EF001C99EF00DD89EF00D29
:104C80001124EE0FFF1FEE0FFF1FE650FA4F808139
:104C900016968C93169718968D919C911997892B3F
:104CA00021F41B961C921E921A97F601EE0FFF1F1D
:104CB000EC0DFD1DEE0FFF1FEE0FFF1FEA59F94F20
:104CC00080859185019691878087F601EE0FFF1F01
:104CD000EC0DFD1DEE0FFF1FEE0FFF1FDF01AA59A8
:104CE000B94F16968C9116978F5FE4018E831896B4
:104CF0008D919C91199799878887E859F94F808100
:104D00008A871B8610828C91DF91CF911F910F9122
:104D1000FF90DF90CF90BF90AF909F908F900895BD
:104D2000AF92BF92CF92DF92EF92FF920F931F93B9
:104D3000DF93CF93CDB7DEB7CC57D0400FB6F89402
:104D4000DEBF0FBECDBF8E01035F1F4F5E01089413
:104D5000A11CB11CEE24E39425E1C22ED12CCC0E73
:104D6000DD1EE0C180ED94E00E94112DF82E8091AF
:104D7000E7058823E1F40E947A3360527E44804044
:104D80009040A8F40E947A33695873418040904063
:104D900070F0FAE0FF1619F02DE0F21631F4809170
:104DA000E8058F5F8093E80502C01092E80580E077
:104DB0006F2DA80195010E94AA23882309F4AEC192
:104DC0000E947A330E9491376093E2057093E30565
:104DD0008093E4059093E505E092E7058C898132A4
:104DE00009F47BC1823290F4883109F454C08931CE
:104DF00030F48823F1F0813009F090C12CC08D315E
:104E000009F463C18E3109F089C1CBC08E3309F436
:104E1000EBC08F3338F4833209F41DC18A3209F0B4
:104E20007DC114C18A3409F474C0883A09F076C18E
:104E300032C1E092E9058A898093EA058B898093E3
:104E4000EB05F80180858093250586858093EC0528
:104E50001092ED0563C1F8016689778980E090E0E2
:104E60000E94913720E030E04AE754E40E94F8368F
:104E700060934D0570934E0580934F0590935005B8
:104E8000F801808D918D909385058093840586A18E
:104E90008093590543C1F80160897189828993899A
:104EA0000E94933720E836E948E15BE40E94F83637
:104EB00060934105709342058093430590934405A8
:104EC000F80164897589868997890E94933720E85B
:104ED00036E948E15BE40E94F8366093450570933B
:104EE00046058093470590934805F601848D80938D
:104EF0004905858D80934C05828D938D9093E005B7
:104F00008093DF058489958990934B0580934A05AA
:104F100005C1F60180819181A281B38180935F05F3
:104F200090936005A0936105B0936205848195819B
:104F3000A681B7818093700590937105A093720547
:104F4000B0937305F801608D718D882777FD80958A
:104F5000982F0E9493376093290570932A058093B8
:104F60002B0590932C05F801828D80935E05808936
:104F70009189A289B3898093800590938105A0933C
:104F80008205B0938305F60184859585A685B7854E
:104F90008093780590937905A0937A05B0937B056B
:104FA000BDC0F801608971898289938921EE3EE252
:104FB00045E652E40E94C6380E94603770931A0595
:104FC00060931905F801648575858685978521EEBE
:104FD0003EE245E652E40E94C6380E946037709374
:104FE0001805609317059AC0F801868D978D9093E8
:104FF00028058093270580A191A190933405809383
:10500000330580899189A289B3898093860590931D
:105010008705A0938805B093890584899589A68919
:10502000B78980938A0590938B05A0938C05B093E4
:105030008D05808D918DA28DB38D80932E059093DB
:105040002F05A0933005B093310568C0F801808525
:105050008093320563C0F601848595859093900511
:1050600080938F058685978590939205809391050F
:10507000F801808D918D9093940580939305F601AE
:10508000828993899093960580939505F801858D83
:105090008093B10543C0F60180819181A281B381E3
:1050A0008093A3059093A405A093A505B093A605AE
:1050B00084819581A681B78180931B0590931C05FF
:1050C000A0931D05B0931E0529C0F8018489958918
:1050D0009093CA058093C90521C0F801608D718D38
:1050E000828D938D0E9493372FE632E143E85AEB8D
:1050F0000E94C6389B01AC016091800570918105CA
:1051000080918205909183050E942B366093EE0575
:105110007093EF058093F0059093F1058AE890E095
:105120000E94E13380ED94E00E94E12C18161906EC
:105130000CF418CE8091F2059091F3052B853C85F7
:10514000820F931F9093F3058093F2052B8180913A
:10515000F4059091F505820F911D9093F5058093CC
:10516000F405C458DF4F0FB6F894DEBF0FBECDBFB5
:10517000CF91DF911F910F91FF90EF90DF90CF9033
:10518000BF90AF90089586E061E00E949A3508953F
:105190000F931F9386E061E00E945B3500ED14E001
:1051A000C80140E051EE60E070E00E947F2C109357
:1051B0009806009397060E94C3288DEE94E00E9403
:1051C000EE2B0E94B81A64EF71E080E090E00E943C
:1051D00088330E94AD051092970507C00E940B1EF0
:1051E000809197058F5F8093970580919705823016
:1051F000A8F31092970560ED77E080E090E00E94C0
:10520000883380ED94E00E945E2D1F910F910895E8
:105210002F923F924F925F926F927F928F929F92C6
:10522000AF92BF92CF92DF92EF92FF920F931F93B4
:10523000DF93CF9300D000D0CDB7DEB7609180056B
:105240007091810580918205909183052091EE05F2
:105250003091EF054091F0055091F1050E942A36FA
:105260006093740570937505809376059093770528
:105270008091E605882349F580914905833009F03E
:1052800006C18091410590914205A0914305B091DE
:10529000440580937A0690937B06A0937C06B09396
:1052A0007D068091450590914605A0914705B091F6
:1052B000480580937E0690937F06A0938006B09366
:1052C000810681E08093E605E2C0813009F0DFC00D
:1052D000E0907A06F0907B0600917C0610917D06A6
:1052E000C801B7019F7725E33AEF4EE85CE30E94DF
:1052F000C6380E94F53669837A838B839C83C80104
:10530000B7012091410530914205409143055091EC
:1053100044050E942A361B012C019F7720EC3BE6B6
:1053200049ED57E40E94C6385B016C0160917E062E
:1053300070917F06809180069091810620914505AD
:105340003091460540914705509148050E942A3604
:105350003B014C019F7720EC3BE649ED57E40E946E
:10536000C63829813A814B815C810E94C6387B0115
:105370008C01C601B501A60195010E94C6385B01EA
:105380006C01C801B701A80197010E94C6389B01B2
:10539000AC01C601B5010E942B360E944D390E9416
:1053A0006037609351057093520580935305909335
:1053B000540560E070E080E89FE329813A814B81E9
:1053C0005C810E94F8369B01AC01C201B1010E94D0
:1053D000C63897FA909497F89094A40193010E948C
:1053E0009E3620EE3EE245E652E40E94C63820E0BA
:1053F00030E044EB52E40E942B360E9460379B0160
:10540000AC0197FF04C028593E4F4F4F5F4FCA0170
:10541000B901645B70408040904097FF06C0CA01AC
:10542000B9016C547F4F8F4F9F4F0E94933720914B
:10543000290530912A0540912B0550912C050E9499
:105440002A360E94603797FF04C068597E4F8F4FFD
:105450009F4F0E94933720E030E044EB53E40E94DA
:10546000F83620E030E040E851E40E94C6380E945F
:10547000293920E030E040E85FE30E942B360E94AB
:10548000653760932605613110F0109226050F9064
:105490000F900F900F90CF91DF911F910F91FF9080
:1054A000EF90DF90CF90BF90AF909F908F907F90C4
:1054B0006F905F904F903F902F9008950E94260626
:1054C0008DEE94E00E9408290E94BD1A0E94BE033E
:1054D0000E946D2308950E947A33209172063091C4
:1054E0007306409174065091750628583F4F4F4FF0
:1054F0005F4F261737074807590760F40E947A3331
:105500006093720670937306809374069093750689
:105510000E945E2A0E9490260895FC011382128246
:1055200088EE93E0A0E0B0E084839583A683B78300
:1055300088E294E0918380830895FC01808980341F
:1055400019F421E030E002C020E030E0C901089504
:10555000FC01818990E00895FC0164874587668796
:105560004787089580E090E0089580E090E00895F6
:1055700080E090E0089508951F93CF93DF93EC01AE
:10558000162F86E060E00E949A3584E896E060E09D
:105590000E94392C112319F0113059F404C084E809
:1055A00096E0688904C068896C6184E896E00E948E
:1055B000392C86E061E00E949A35DF91CF911F91EE
:1055C0000895EF92FF920F931F938EE1489F700111
:1055D0001124E60EF11C86E060E00E949A3504E892
:1055E00016E0C80165E00E94392CC8016F2D0E94A9
:1055F000392CC80166E00E94392CC8016E2D0E942A
:10560000392C1F910F91FF90EF900895EF92FF9228
:105610000F931F937C0104E816E0C80167E00E9425
:10562000392CC8016FEF0E94392C86E061E00E949E
:105630009A35F70187858F5F87871F910F91FF90BC
:10564000EF900895EF92FF920F931F93FC01E78470
:105650008EE1E89E700111248685E80EF11C86E03B
:1056600060E00E949A3504E816E0C80164E00E94F8
:10567000392CC80163E00E94392CC80165E00E9402
:10568000392CC8016F2D0E94392CC80166E00E9498
:10569000392CC8016E2D0E94392C1F910F91FF905B
:1056A000EF9008951F93CF93DF93EC01162F6C3783
:1056B00031F40E94062BCE010E94222B0AC084E8FE
:1056C00096E067E00E94392C84E896E0612F0E9402
:1056D000392C81E090E0DF91CF911F9108950F93D5
:1056E0001F9386E060E00E949A3504E816E0C80146
:1056F00064E00E94392CC80164E00E94392C86E0E5
:1057000061E00E949A351F910F9108951F9386E9D9
:1057100096E066E973E00E941F33882361F08130D0
:1057200011F412E009C0823011F411E005C0833099
:1057300011F410E001C013E010928306109282066B
:1057400017C06091820670918306605F84E896E0DE
:105750000E94392C84E896E0612F0E94392C8091B8
:105760008206909183060196909383068093820629
:10577000809182069091830640971CF31F910895B3
:10578000CF93DF93EC0186E060E00E949A3584E8D5
:1057900096E060EA0E94392C84E896E06FEF0E9460
:1057A000392C80FF05C080E4888B88E0898B13C08A
:1057B00086E996E060E973E00E941F33882319F4BC
:1057C000188A86E003C080E4888B88E0898B86E0B5
:1057D00060E00E949A35DF91CF910895CF92DF92D9
:1057E000FF920F931F936C0186E061E00E945B358E
:1057F00082E060E00E945B3582E061E00E949A35C1
:10580000C6010E94C02B86E060E00E949A3504E841
:1058100016E0C8016CEE0E94392CC8016FEF0E949F
:10582000392CF82EC80160E00E94392CF6016089FD
:105830006260C8010E94392C62E370E080E090E071
:105840000E948833C8016CE60E94392CFFEEFF22CB
:10585000C8016F2D0E94392CC6010E94862BC601FB
:1058600061E00E94BC2A1F910F91FF90DF90CF90C2
:1058700008956EBD0DB407FEFDCF8EB508958DE081
:1058800061E00E945B358BE061E00E945B358CE05B
:1058900060E00E945B358AE061E00E945B351CBCE1
:1058A00080E58CBD8DB58EB5089584E896E00E94A4
:1058B0003F2C08958FEF9FE70895DF93CF93CDB7E7
:1058C000DEB7FE0139968D819E8161E04F8158855A
:1058D0009F010E94FE2ECF91DF910895DF93CF9319
:1058E000CDB7DEB7FE0139968D819E8160E04F8194
:1058F00058859F010E94FE2ECF91DF9108950F934E
:105900001F93DC01ED91FC910288F389E02D20E0EA
:1059100030E000E010E009951F910F9108958F92FB
:10592000AF92CF92EF92FF920F931F93DF93CF939B
:10593000CDB7DEB7FC011382128288EE93E0A0E0BF
:10594000B0E084839583A683B7838AE394E0918350
:1059500080835587448737872687118B008BF38A8E
:10596000E28AC48AA58A868A70E0CB0123E0880F88
:10597000991F2A95E1F79C012B57394F308F278BC0
:105980008357994F928F818F81E090E002C0880FFA
:10599000991F6A95E2F720919506282B209395068A
:1059A000CF0140E051EE60E070E00E947F2CCF918B
:1059B000DF911F910F91FF90EF90CF90AF908F905C
:1059C0000895FC01838D882319F42FEF3FEF0DC05C
:1059D0000788F08DE02D2081318182819381281B01
:1059E000390B8481958128233923C9010895FC014D
:1059F000838D882319F42FEF3FEF11C0018CF28DB6
:105A0000E02D2081318182819381281B390B2095E3
:105A1000309584819581282339232F5F3F4FC90119
:105A20000895FC01838D882361F0A789B08D2D91A5
:105A30003C91119712968D919C91139728173907D5
:105A400021F44FEF5FEFCA01089512968D919C915A
:105A500013971696ED91FC911797E80FF91F408167
:105A600012968D919C911397019614962D913C91CD
:105A700015978223932313969C938E93129750E04D
:105A8000E2CFFC01838D882351F00788F08DE02D53
:105A900020813181828193812817390721F42FEFEA
:105AA0003FEFC9010895828193810680F781E02D3F
:105AB000E80FF91F8081282F30E0F3CFDC015796E3
:105AC000ED91FC91589782819381918380835996BF
:105AD000ED91FC915A9780819181938382830895FF
