:100000000C9468010C9490010C9490010C94900154
:100010000C9490010C9490010C9490010C9490011C
:100020000C9490010C9490010C9490010C9490010C
:100030000C9490010C9490010C9490010C949001FC
:100040000C94D5320C9490010C94DE020C941A039B
:100050000C9490010C9490010C9490010C949001DC
:100060000C9490010C949001084AD73B3BCE016E52
:1000700084BCBFFDC12F3D6C74319ABD56833DDAFF
:100080003D00C77F11BED9E4BB4C3E916BAAAABE0E
:10009000000000803F05A84CCDB2D44EB93836A937
:1000A000020C50B9918688083CA6AAAA2ABE000074
:1000B00000803F0664EC1B3C04BC163E3BE5B93CAB
:1000C000C93C37C29E5A3D660498083EEA69AAAA0E
:1000D0003E000000803F2020202020202020004ED5
:1000E0006F206D61762064617461210020202020E2
:1000F0002020202020202020207C202020202020A4
:10010000202020202020207CC620202020202020ED
:100110002020202020C57C202020202020202020DE
:10012000202020207C202020202020202020202073
:1001300020207C0013001400120011001820202041
:100140002020001820209091200016202020202020
:10015000004D696E696D4F53442D4578747261206E
:10016000322E347C506C616E65207238303800005D
:10017000407A10F35A00A0724E18090010A5D4E876
:100180000000E87648170000E40B54020000CA9A09
:100190003B000000E1F5050000809698000000405B
:1001A000420F000000A086010000001027000000A0
:1001B00000E803000000006400000000000A0000E6
:1001C0000000000100000000002C76D888DC674F9A
:1001D0000823DFC1DFAE59E1B1B796E5E3E453C6CA
:1001E0003AE651997696E8E6C28426EB898C9B62C2
:1001F000ED407C6FFCEFBC9C9F40F2BAA56FA5F46C
:1002000090055A2AF75C936B6CF9676DC11BFCE093
:10021000E40D47FEF520E6B500D0ED902E030094E6
:100220003577050080841E080000204E0A0000007B
:10023000C80C333333330F986E12831141EF8D2185
:1002400014893BE65516CFFEE6DB18D1844B381BEC
:10025000F77C1D901DA4BBE424203284725E2281B1
:1002600000C9F124ECA1E53D276E616E00696E6660
:100270000000000000240027002A000000000025E4
:100280000028002B000000000023002600290004A5
:10029000040404040404040202020202020303032D
:1002A0000303030102040810204080010204081027
:1002B00020010204081020000000070002010000D5
:1002C0000304060000000000000000006803F82B93
:1002D00011241FBECFEFD8E0DEBFCDBF14E0A0E0F9
:1002E000B1E0E6EFF3E702C005900D92AE34B1073E
:1002F000D9F716E0AEE4B4E001C01D92AF3AB10701
:10030000E1F712E0C0EDD2E004C02297FE010E94A6
:10031000F539CC3CD107C9F70E9492350C94F939D4
:100320000C940000283008F027E03327DA01990FF9
:10033000311D87FD916000966105710539F43260C9
:100340002E5F3D9330E32A95E1F708959F3F30F00B
:1003500080387105610509F03C5F3C5F3D93913049
:1003600008F08068911DDF93CF931F930F93FF9246
:10037000EF92192F987F9695E92F96959695E90F0C
:10038000FF27E753FE4F99273327EE24FF24A701C9
:10039000E70105900894079428F4360FE71EF81E2D
:1003A000491F511D660F771F881F991F0694A1F7DB
:1003B0000590079428F4E70EF81E491F561FC11D2B
:1003C000770F881F991F661F0694A1F70590079461
:1003D00028F4F80E491F561FC71FD11D880F991FFB
:1003E000661F771F0694A1F70590079420F4490F24
:1003F000561FC71FD81F990F661F771F881F0694A7
:10040000A9F784911095177041F0D695C795579527
:100410004795F794E7941A95C1F7EFE6F1E06894F1
:100420001590159135916591959105907FE27395A1
:10043000E118F10A430B560BC90BD009C0F7E10CC8
:10044000F11E431F561FC91FD01D7EF4703311F4D7
:100450008A95E6CFE894015030F0080F0AF400279F
:10046000021708F4202F2395022F7A3328F079E31E
:100470007D932A95E9F710C07D932A9589F6069415
:1004800097956795379517951794E118F10A430BDF
:10049000560BC90BD00998F023957E9173957A334A
:1004A00008F070E37C932013B8F77E9170617D9320
:1004B00030F0839571E37D9370E32A95E1F7112481
:1004C000EF90FF900F911F91CF91DF91992787FDBA
:1004D00090950895FA01AA27283051F1203181F131
:1004E000E8946F936E7F6E5F7F4F8F4F9F4FAF4F3C
:1004F000B1E03ED0B4E03CD0670F781F891F9A1F4F
:10050000A11D680F791F8A1F911DA11D6A0F711D02
:10051000811D911DA11D20D009F468943F912AE00E
:10052000269F11243019305D3193DEF6CF010895F6
:10053000462F4770405D4193B3E00FD0C9F7F6CF27
:10054000462F4F70405D4A3318F0495D31FD4052EF
:10055000419302D0A9F7EACFB4E0A6959795879585
:1005600077956795BA95C9F7009761057105089564
:100570009B01AC010A2E0694579547953795279510
:10058000BA95C9F7620F731F841F951FA01D0895A8
:10059000FC010590615070400110D8F7809590954E
:1005A0008E0F9F1F0895FC01615070400190011053
:1005B000D8F7809590958E0F9F1F08951F920F92E8
:1005C0000FB60F9211242F933F934F938F939F93C6
:1005D000EF93FF934091C60020918E0630918F06D5
:1005E0002F5F3F4F809192069091930628233923E5
:1005F00080919006909191062817390779F08091A3
:100600008E0690918F06E0919406F0919506E80F82
:10061000F91F408330938F0620938E06FF91EF9150
:100620009F918F914F913F912F910F900FBE0F90FF
:100630001F9018951F920F920FB60F9211242F93AF
:100640003F938F939F93EF93FF9320919806309160
:100650009906809196069091970628173907E9F038
:100660008091980690919906E0919C06F0919D06E4
:10067000E80FF91F80818093C600809198069091C1
:100680009906019620919A0630919B068223932326
:10069000909399068093980610C020919606309109
:1006A000970680919806909199062817390729F4A2
:1006B0008091C1008F7D8093C100FF91EF919F9148
:1006C0008F913F912F910F900FBE0F901F90189513
:1006D0008F92AF92CF92EF92FF920F931F9380ED84
:1006E00094E060E045EC50E024EC30E000EC10E0F9
:1006F000F1ECEF2EF12CCC24C394E8E9AE2E70E29D
:10070000872E0E94322C8DEE94E00E94302A1F9199
:100710000F91FF90EF90CF90AF908F9008958091C0
:10072000FF048130C1F40E941D3368517C4F8F4F0C
:100730009F4F60930005709301058093020590938D
:1007400003051092FF0490E080910405882309F4CA
:1007500091E0909304050E941D3320910005309193
:1007600001054091020550910305261737074807F8
:10077000590718F481E08093FF040895AF92BF9267
:10078000CF92DF92EF92FF920F931F9380916405B7
:10079000882399F5609174057091750580917605AF
:1007A0009091770520E030E040EA50E40E945E3806
:1007B00018161CF580915E058B30F8F081E080936F
:1007C000640580E090E0A0E0B0E08093C6059093DF
:1007D000C705A093C805B093C9050E941D3328EE34
:1007E00033E040E050E00E94B63920935505309345
:1007F00056054093570550935805A0907005B0904A
:100800007105C0907205D0907305C601B50120E056
:1008100030E040E85FE30E945E38181694F5E090FF
:10082000C605F090C7050091C8051091C9050E9442
:100830001D3320917F0630918006409181065091B2
:100840008206621B730B840B950B0E9434379B014D
:10085000AC01C601B5010E94693820E030E04AE7EA
:1008600054E40E949B369B01AC01C801B7010E9471
:10087000CE356093C6057093C7058093C8059093E5
:10088000C905A0905A05B0905B05C0905C05D0905A
:100890005D056091840570918505882777FD8095B9
:1008A000982F0E94363720E030E040E251E40E9469
:1008B00069387B018C010E941D3320917F063091A5
:1008C00080064091810650918206621B730B840B57
:1008D000950B0E9434379B01AC01C801B7010E94FF
:1008E000693820E03AEB4BE55AE40E949B369B01C5
:1008F000AC01C601B5010E94CE3560935A057093D4
:100900005B0580935C0590935D050E941D336093A9
:100910007F06709380068093810690938206809173
:100920006405813009F098C06091510570915205BD
:1009300080915305909154050E9436377B018C01BC
:100940002091D4053091D5054091D6055091D70519
:100950000E945E38181644F4E092D405F092D50552
:100960000093D6051093D705E0905F05F0906005E1
:100970000091610510916205C801B7012091D80569
:100980003091D9054091DA055091DB050E945E381F
:10099000181644F4E092D805F092D9050093DA05D0
:1009A0001093DB05E0907005F090710500917205E1
:1009B00010917305C801B7012091DC053091DD0568
:1009C0004091DE055091DF050E945E38181644F410
:1009D000E092DC05F092DD050093DE051093DF0563
:1009E000E0907405F09075050091760510917705FB
:1009F000C801B7012091E0053091E1054091E20581
:100A00005091E3050E945E38181644F4E092E00528
:100A1000F092E1050093E2051093E305E0901B05D9
:100A2000F0901C0500911D0510911E05C801B7012D
:100A30002091E4053091E5054091E6055091E705E8
:100A40000E945E38181644F4E092E405F092E50541
:100A50000093E6051093E7051F910F91FF90EF902B
:100A6000DF90CF90BF90AF9008958FE996E06AE74E
:100A700073E00E94C2328823B1F586E696E6A6E6C8
:100A8000B0E48093050590930605A0930705B09305
:100A9000080580E090E0A0E8BFE38093090590930B
:100AA0000A05A0930B05B0930C0580E180930D051A
:100AB0008CE080930E058AEB90E090931005809374
:100AC0000F058AE08093E30210921205109211053F
:100AD0008BE18093130588EE93E090931505809346
:100AE00014058AE137C082E598EBAEE0B0E480936C
:100AF000050590930605A0930705B093080585E8C2
:100B00009BEEA1E5B0E48093090590930A05A093BC
:100B10000B05B0930C0589E180930D0586E6809363
:100B20000E058BEB90E09093100580930F0582E10A
:100B30008093E30280E09DE7909312058093110576
:100B40008CE18093130580EA94E1909315058093DE
:100B500014058EE1809316050895CF93DF938FE9F6
:100B600096E06CE773E00E94C232809365058FE9DE
:100B700096E06EE773E00E94C232809363058FE9CE
:100B800096E060E873E00E94C232809366058FE9C8
:100B900096E06EE873E00E94C2328093A3058FE96D
:100BA00096E066E773E00E94C23280936D058FE99C
:100BB00096E06AE873E00E94C23280938E058FE966
:100BC00096E064E873E00E94C2328093BC058FE92E
:100BD00096E066E873E00E94C2328093BB058FE91D
:100BE00096E06CE873E00E94C232809369058FE959
:100BF00096E062E973E00E94C232809367058FE954
:100C000096E064E973E00E94C23280936805C0E018
:100C1000D0E0BE0168567C4F8FE996E00E94C23258
:100C2000FE01EF54FA4F8083882321F02196C830CB
:100C3000D10579F7CF54DA4F1982DF91CF9108951A
:100C4000BC018FE996E00E94C232089560912905A7
:100C500070912A0580912B0590912C0520E030E0C1
:100C600040EC51E40E94693820E030E044EB53E46A
:100C70000E949B360E94CC380E9403379B01235070
:100C8000304037FF03C09B012B5E3F4FA5E3B5E02B
:100C9000F901E150FC4F80818C932F5F3F4F283149
:100CA000310514F020E030E0119685E0A034B8075B
:100CB00079F710923C0508952F923F924F925F92E0
:100CC0006F927F928F929F92AF92BF92CF92DF925C
:100CD000EF92FF920F931F93DF93CF9300D000D03A
:100CE00000D0CDB7DEB7182F662E209117053091B2
:100CF00018052A35310530F0C9018D549F4F8935CB
:100D0000910518F537FF02C02D543F4FC90137FF39
:100D100003C0909581959F4F8A31910554F087E0EB
:100D2000882E912C09EDA02EB12CB8EF2B2E312C52
:100D300039C00A9774F1A8E08A2E912CF0EDAF2EFD
:100D4000B12CE3EF2E2E312C2DC02B35310514F0B4
:100D5000235B3040C90137FF03C0909581959F4FB9
:100D60008A31910554F077E0872E912C6BEEA62EF8
:100D7000B12C5BEF252E312C15C00A9754F048E0BA
:100D8000842E912C32EEA32EB12C25EF222E312C65
:100D900009C099E0892E912C86ECA82EB12C0DEC7F
:100DA000202E312C6091190570911A05882777FD46
:100DB0008095982F0E94363727EA32E94BE25CEBA8
:100DC0000E9469380E943D3920E030E040EA50E45A
:100DD0000E94693820E030E040E951E40E9469381F
:100DE0000E94CC3820E030E044E352E40E94CE354B
:100DF0000E940337712EBEEBCB2EBFEFDB2E9B0183
:100E0000442737FD4095542F29833A834B835C83D5
:100E1000ADEE4A2EA4E05A2E4AEF5FEF240E351EA7
:100E20006091170570911805882777FD8095982F98
:100E30000E94363725E33AEF4EE85CE30E946938BA
:100E40000E943D397B018C01B601882777FD809592
:100E5000982F0E9436379B01AC01C801B7010E9450
:100E600069387B018C0169817A818B819C810E9428
:100E700036379B01AC01C801B7010E94CE350E94F4
:100E800003379B01CB0101978A35910508F071C0AA
:100E900062E170E00E94A3398B012F5F3F4FAEEEFD
:100EA000BFEF6A9FC0016B9F900D7A9F900D112438
:100EB000820F931F62E070E00E94A3396D837E83EE
:100EC000E62CE01A4E2D4C5F8DEE94E0672D0E94CB
:100ED000842A00D000D000D0EDB7FEB73196ADB770
:100EE000BEB712965C924E92119720E031E03383A8
:100EF00022838D819E818A0D9B1D958384830E9410
:100F0000112C4DB75EB74A5F5F4F0FB6F8945EBFC6
:100F10000FBE4DBF8D819E818815990554F1043017
:100F200011053CF593E0E90EC201672D4E2D0E949C
:100F3000842A00D000D000D0EDB7FEB73196ADB70F
:100F4000BEB712965C924E92119720E031E0338347
:100F500022834D815E81420D531D558344830E943F
:100F6000112C8DB79EB706960FB6F8949EBF0FBE94
:100F70008DBFACE0B0E0CA0EDB1E7394BEE4CB16AE
:100F8000D10409F04DCF26960FB6F894DEBF0FBE00
:100F9000CDBFCF91DF911F910F91FF90EF90DF9028
:100FA000CF90BF90AF909F908F907F906F905F9009
:100FB0004F903F902F9008959F92AF92BF92CF9203
:100FC000DF92EF92FF920F931F93882309F481E041
:100FD000880F8257613009F06FC0A0900505B0906E
:100FE0000605C0900705D0900805E82EFF24E7FC11
:100FF000F09490900D054DB75EB7465150400FB636
:10100000F8945EBF0FBE4DBF0DB71EB70F5F1F4FE9
:101010008DEE94E0ADB7BEB712969C938E93119768
:1010200083E091E0F801938382838DE190E09583E2
:101030008483C601B50120911B0530911C054091A8
:101040001D0550911E050E946938D80116966D93B2
:101050007D938D939C9319971A969C921A971B9641
:101060001C921B971D96FC92EE921C970894E11C13
:10107000F11C1F96FC92EE921E97C601B5012091BD
:101080001F053091200540912105509122050E94B5
:101090006938F801608B718B828B938B948A158AE7
:1010A0000E94112C4DB75EB74A5E5F4F0FB6F894A1
:1010B0005EBF0FBE4DBF57C0282F332727FD309589
:1010C0008DEE94E0623049F5ADB7BEB71C970FB610
:1010D000F894BEBF0FBEADBFEDB7FEB73196129606
:1010E0009C938E93119789E191E09383828335835A
:1010F00024832F5F3F4F3783268380912305909170
:1011000024059187808785E090E0938782870E94FD
:10111000112CEDB7FEB73C9621C04DB75EB74850D5
:1011200050400FB6F8945EBF0FBE4DBFEDB7FEB78F
:101130003196ADB7BEB712969C938E93119783E20A
:1011400091E093838283358324832F5F3F4F3783DE
:1011500026830E94112CEDB7FEB738960FB6F8948F
:10116000FEBF0FBEEDBF1F910F91FF90EF90DF907C
:10117000CF90BF90AF909F9008950F931F93282F0B
:10118000462F8DEE94E0622F0E944F2A8DEE94E060
:101190000E94C52A80912505882319F428E231E0B0
:1011A00038C0813019F42DE231E033C0823019F4B7
:1011B00022E331E02EC027E331E0833019F428E345
:1011C00031E027C0843019F42DE331E022C08530AE
:1011D00019F422E431E01DC0863019F427E431E02F
:1011E00018C0873019F42CE431E013C08A3019F4A8
:1011F00021E531E00EC08B3019F426E531E009C05D
:101200008C3019F42BE531E004C08F3011F420E666
:1012100031E000D000D000D0EDB7FEB731960DEE32
:1012200014E0ADB7BEB712961C930E93119785E6E6
:1012300091E093838283358324830E94112C8DB7A0
:101240009EB706960FB6F8949EBF0FBE8DBFC8011D
:101250000E94A92A1F910F9108950F931F93282F81
:10126000462F0DEE14E0C801622F0E944F2AC801DC
:101270000E94C52A8091260560E00E94DC07C80113
:101280000E94A92A1F910F9108950F931F93282F51
:10129000462F0DEE14E0C801622F0E944F2AC801AC
:1012A0000E94C52A8DB79EB70A970FB6F8949EBFC5
:1012B0000FBE8DBFEDB7FEB73196ADB7BEB7129674
:1012C0001C930E93119788E691E09383828383ECBD
:1012D00090E09583848385E395E09783868387E810
:1012E00090E0918780870E94112C8DB79EB70A9657
:1012F0000FB6F8949EBF0FBE8DBFC8010E94A92AE9
:101300001F910F9108950F931F93282F462F0DEED5
:1013100014E0C801622F0E944F2AC8010E94C52A0A
:101320008DB79EB70A970FB6F8949EBF0FBE8DBFBC
:10133000EDB7FEB73196ADB7BEB712961C930E93BC
:1013400011978FE691E09383828380912905909194
:101350002A05A0912B05B0912C0584839583A68343
:10136000B78385E090E0918780870E94112C8DB72C
:101370009EB70A960FB6F8949EBF0FBE8DBFC801E8
:101380000E94A92A1F910F9108950F931F93282F50
:10139000462F0DEE14E0C801622F0E944F2AC801AB
:1013A0000E94C52A8DB79EB70C970FB6F8949EBFC2
:1013B0000FBE8DBFEDB7FEB73196ADB7BEB7129673
:1013C0001C930E93119787E791E09383828380911A
:1013D000410590914205A0914305B0914405848355
:1013E0009583A683B7838091450590914605A0918A
:1013F0004705B091480580879187A287B3870E94EF
:10140000112C8DB79EB70C960FB6F8949EBF0FBEE9
:101410008DBFC8010E94A92A1F910F9108950F93B3
:101420001F93282F462F8DEE94E0622F0E944F2AA3
:101430008DEE94E00E94C52A80914905823011F416
:101440002FE105C0833011F42FE001C02AE2809122
:101450004A0590914B05883C910520F08091040548
:10146000811120E28DB79EB708970FB6F8949EBF02
:101470000FBE8DBFEDB7FEB731960DEE14E0ADB7E0
:10148000BEB712961C930E93119785E891E0938353
:1014900082832483158280914C05868317820E9463
:1014A000112C8DB79EB708960FB6F8949EBF0FBE4D
:1014B0008DBFC8010E94A92A1F910F9108950F9313
:1014C0001F93282F462F0DEE14E0C801622F0E94B3
:1014D0004F2AC8010E94C52A8DB79EB70A970FB63A
:1014E000F8949EBF0FBE8DBFEDB7FEB73196ADB776
:1014F000BEB712961C930E9311978BE891E09383DD
:10150000828380914D0590914E05A0914F05B09139
:10151000500584839583A683B7838DE090E09187FF
:1015200080870E94112C8DB79EB70A960FB6F8944B
:101530009EBF0FBE8DBFC8010E94A92A1F910F91A7
:1015400008950F931F93282F462F0DEE14E0C80126
:10155000622F0E944F2AC8010E94C52A8DB79EB7EC
:101560000A970FB6F8949EBF0FBE8DBFEDB7FEB7BA
:101570003196ADB7BEB712961C930E93119783E9BF
:1015800091E093838283809117059091180595834C
:10159000848385E090E09783868386E090E091875E
:1015A00080870E94112C8DB79EB70A960FB6F894CB
:1015B0009EBF0FBE8DBFC8010E94A92A1F910F9127
:1015C00008950F931F93282F462F0DEE14E0C801A6
:1015D000622F0E944F2AC8010E94C52A8DB79EB76C
:1015E0000A970FB6F8949EBF0FBE8DBFEDB7FEB73A
:1015F0003196ADB7BEB712961C930E93119783E93F
:1016000091E0938382838091190590911A059583C7
:10161000848385E090E09783868387E090E09187DC
:1016200080870E94112C8DB79EB70A960FB6F8944A
:101630009EBF0FBE8DBFC8010E94A92A1F910F91A6
:101640000895CF92DF92EF92FF920F931F93CF9363
:10165000DF93282F462FCDEED4E0CE01622F0E94DB
:101660004F2ACE010E94C52A609151057091520502
:1016700080915305909154050E94363720910905B9
:1016800030910A0540910B0550910C050E94693874
:101690006B017C0120E03CE34CE156E40E945E38A3
:1016A0001816C4F58DB79EB70C970FB6F8949EBF69
:1016B0000FBE8DBF0DB71EB70F5F1F4FADB7BEB7C3
:1016C0001296DC93CE9311978BE991E0F801938306
:1016D00082838BE090E09583848360911405709100
:1016E000150580E090E00E9434379B01AC01C701F2
:1016F000B6010E949B36D80116966D937D938D930B
:101700009C931997809113051A968C931A971B96A0
:101710001C9221C08DB79EB70C970FB6F8949EBF50
:101720000FBE8DBFEDB7FEB73196ADB7BEB71296FF
:10173000DC93CE93119785EA91E0938382838BE0CB
:1017400090E095838483C682D782E086F18680917B
:101750000E05828713860E94112CEDB7FEB73C96CA
:101760000FB6F894FEBF0FBEEDBF8DEE94E00E9461
:10177000A92ADF91CF911F910F91FF90EF90DF90F9
:10178000CF900895EF92FF920F931F93282F462F2B
:101790009DEEE92E94E0F92EC701622F0E944F2A98
:1017A000C7010E94C52A0E941D3328EE33E040E0A5
:1017B00050E00E94B6398091550590915605A09150
:1017C0005705B0915805281B390B4A0B5B0BCA0112
:1017D000B9010E9434376093E4027093E50280936C
:1017E000E6029093E7020E9403378B019C018DB7BC
:1017F0009EB70A970FB6F8949EBF0FBE8DBFEDB788
:10180000FEB73196ADB7BEB71296FC92EE92119725
:101810008FEA91E093838283C8016CE370E00E94B9
:10182000A339758364838AE390E097838683C80134
:101830006CE370E00E94A339918780870E94112C8D
:101840008DB79EB70A960FB6F8949EBF0FBE8DBF98
:10185000C7010E94A92A1F910F91FF90EF90089550
:10186000CF93DF93282F462FCDEED4E0CE01622F09
:101870000E944F2ACE010E94C52A8FE996E068E7B0
:1018800073E00E94C232813051F58DB79EB70A973E
:101890000FB6F8949EBF0FBE8DBFEDB7FEB7319661
:1018A000ADB7BEB71296DC93CE93119789EB91E05A
:1018B0009383828387E190E09583848380915905A7
:1018C000992787FD90959783868385E290E091879D
:1018D00080870E94112C8DB79EB70A962CC0ADB799
:1018E000BEB71C970FB6F894BEBF0FBEADBFEDB725
:1018F000FEB731961296DC93CE93119783EC91E06C
:101900009383828387E190E09583848380915A0555
:1019100090915B05A0915C05B0915D0586839783EE
:10192000A087B18781E090E0938782870E94112C85
:101930008DB79EB70C960FB6F8949EBF0FBE8DBFA5
:101940008DEE94E00E94A92ADF91CF9108950F9324
:101950001F93282F462F0DEE14E0C801622F0E941E
:101960004F2AC8010E94C52A8DB79EB708970FB6A7
:10197000F8949EBF0FBE8DBFEDB7FEB73196ADB7E1
:10198000BEB712961C930E9311978DEC91E0938342
:10199000828380915E058483158285E290E097833F
:1019A00086830E94112C8DB79EB708960FB6F894C7
:1019B0009EBF0FBE8DBFC8010E94A92A1F910F9123
:1019C0000895BF92CF92DF92EF92FF920F931F93F1
:1019D000282F462F8DEE94E0622F0E944F2A8DEE25
:1019E00094E00E94C52A8091FF04813009F03AC139
:1019F00080914905823028F4DD24D394BB24B3942C
:101A000002C0DD24BB2460915F0570916005809168
:101A10006105909162052091050530910605409180
:101A20000705509108050E9469387B018C0160917F
:101A3000630570E0882777FD8095982F0E943637E0
:101A40009B01AC01C801B7010E94943688234CF475
:101A500080916405813029F4CC24C394DD24D3948F
:101A600001C0CC246091650570E080E090E00E94A8
:101A700034379B01AC01C801B7010E945E381816CB
:101A800024F411E0DD24D39401C010E060916605D8
:101A900070E080E090E00E94343720E030E040E2E7
:101AA00051E40E949B369B01AC0160914D05709101
:101AB0004E0580914F05909150050E94943687FD08
:101AC00010C04091670580915905992787FD909531
:101AD000242F30E08217930714F4442311F440E0DC
:101AE00003C041E0DD24D3942091E8023091E90263
:101AF0008091680590E0281739075CF42D593F4F15
:101B000041F080916905882321F431E0DD24D394EC
:101B100001C030E080916A058823C9F4DD2069F0B6
:101B20008B2D90E001968C0D911D810F911D840FDE
:101B3000911D830F911D029739F485ED91E09093EB
:101B40006C0580936B0503C081E080936A058091EA
:101B50006A05813069F491E0B91639F482EE91E0BA
:101B600090936C0580936B0503C082E080936A05B7
:101B700080916A05823069F4A1E0CA1639F48FEECB
:101B800091E090936C0580936B0503C083E0809394
:101B90006A0580916A05833061F4113039F48CEF65
:101BA00091E090936C0580936B0503C084E0809373
:101BB0006A0580916A05843061F4413039F489E026
:101BC00092E090936C0580936B0503C085E0809351
:101BD0006A0520916A05253041F4313031F486E1FF
:101BE00092E090936C0580936B052F5F20936A05BC
:101BF000B1E0DB1639F480916D05833018F4109252
:101C0000EA020AC080916E0590916F05805B944056
:101C100018F481E08093EA02263010F010926A05F1
:101C200000D000D000D0EDB7FEB731968DEE94E035
:101C3000ADB7BEB712969C938E93119785E691E04F
:101C40009383828380916B0590916C059583848347
:101C50000E94112C8DB79EB706960FB6F8949EBFC2
:101C60000FBE8DBF8DEE94E00E94A92A1F910F91A7
:101C7000FF90EF90DF90CF90BF900895CF92DF92CA
:101C8000EF92FF920F931F93282F462F3DEEC32E06
:101C900034E0D32EC601622F0E944F2AC6010E9453
:101CA000C52A609178057091790580917A059091A7
:101CB0007B052091090530910A0540910B05509153
:101CC0000C050E94693820E030E040E752E40E94B1
:101CD00069382DEC3CEC4CEC5DE30E9469387B01EB
:101CE0008C0160917C0570917D0580917E059091BD
:101CF0007F0526E636E646E65FE30E9469389B01EB
:101D0000AC01C801B7010E94CE3560937C05709389
:101D10007D0580937E0590937F052DB73EB72E50AD
:101D200030400FB6F8943EBF0FBE2DBF0DB71EB7A3
:101D30000F5F1F4FEDB7FEB7D282C18223E232E0C0
:101D4000F8013383228325E130E03583248320E0CA
:101D500030E040E251E40E949B360E94033788271E
:101D600077FD8095982F0E94363720E030E040E2E2
:101D700051E40E946938F8016683778380879187F0
:101D8000809116058287138680E290E0958784878C
:101D90000E94112C2DB73EB7225F3F4F0FB6F8942B
:101DA0003EBF0FBE2DBFC6010E94A92A1F910F91F1
:101DB000FF90EF90DF90CF900895EF92FF920F93F6
:101DC0001F93282F462F5DEEE52E54E0F52EC70118
:101DD000622F0E944F2AC7010E94C52A8DB79EB765
:101DE0000A970FB6F8949EBF0FBE8DBF0DB71EB7F2
:101DF0000F5F1F4FEDB7FEB7F282E1828BE891E0F3
:101E0000F80193838283609184057091850588270A
:101E100077FD8095982F0E9436372AE037ED43E210
:101E20005CE30E946938F801648375838683978335
:101E30008EE090E0918780870E94112C8DB79EB72D
:101E40000A960FB6F8949EBF0FBE8DBFC7010E94C1
:101E5000A92A1F910F91FF90EF900895CF92DF92E2
:101E6000EF92FF920F931F93282F462F7DEEE72EC0
:101E700074E0F72EC701622F0E944F2AC7010E940B
:101E8000C52A8DB79EB748970FB6F8949EBF0FBE70
:101E90008DBF0DB71EB70F5F1F4FEDB7FEB7F282B4
:101EA000E1828FE292E0F8019383828380EB90E0FD
:101EB000958384836091860570918705809188055C
:101EC000909189052091090530910A0540910B05F3
:101ED00050910C050E9469389058F8016683778309
:101EE0008087918780910E058287138660E2C62ED7
:101EF000D12CD586C48681EB90E097878687609148
:101F00008A0570918B0580918C0590918D0520E05C
:101F100030E048EC52E40E949B3620910505309158
:101F2000060540910705509108050E946938F8019F
:101F3000608B718B828B938B80910D05848B158ABE
:101F4000D78AC68A0E94112C8DB79EB748960FB6C5
:101F5000F8949EBF0FBE8DBFC7010E94A92A1F9192
:101F60000F91FF90EF90DF90CF900895EF92FF9246
:101F70000F931F93E0918E05F0E0EE0FFF1FE157E6
:101F8000FA4F0190F081E02DF0936F05E0936E051C
:101F90008091EA02882361F490916D058091A105FA
:101FA000891719F081E08093A2059093A1058CC058
:101FB0008091A305882319F524E0E13DF20748F458
:101FC0008091A105882309F47FC081E08093A20558
:101FD00079C08091A105EC5BF54038F4813009F4BB
:101FE00073C081E08093A20507C0823009F46CC001
:101FF00081E08093A20582E08093A10565C0809175
:10200000A4059091A505DF01A81BB90BCD01B7FF71
:1020100003C0909581959F4F853691050CF454C06F
:102020008091A6059091A705E81BF90BBFEFED394C
:10203000FB071CF1E436F10504F58DEE94E00E94F7
:10204000A92AE090A805F090A9050091AA05109191
:10205000AB0588EE93E0A0E0B0E0E80EF91E0A1FA1
:102060001B1F0E941D331092A7051092A6056E1526
:102070007F0580079107E0F027C00E941D33609321
:10208000A8057093A9058093AA059093AB0580914C
:10209000A4059091A5059093A7058093A60580912E
:1020A0006E0590916F059093A5058093A4050CC0D3
:1020B00081E08093A2058091A1058F5F8093A105A7
:1020C000833010F01092A1051F910F91FF90EF90B7
:1020D0000895EF92FF920F931F93282F462F8DEEB6
:1020E00094E0622F0E944F2A8DEE94E00E94C52A50
:1020F000E090AC05F090AD050091AE051091AF05F4
:10210000C801B70120E030E040E050E00E94943682
:1021100088234CF4C801B70120E030E044EB53E4DD
:102120000E94CE3502C0C801B70120912905309127
:102130002A0540912B0550912C050E94CD3520E0B9
:1021400030E044EB53E40E949B3620E030E040E86E
:1021500051E40E9469380E94CC3820E030E040E130
:1021600051E40E94CE350E9403376093B005809100
:10217000B005813114F0805103C018161CF0805F47
:102180008093B00560911B0570911C0580911D0521
:1021900090911E052AE037ED43E25CE30E94693826
:1021A0007B018C0160911F057091200580912105B4
:1021B0009091220524EA30E74DE75FE30E946938F9
:1021C0009B01AC01C801B7010E94CE3560931F0589
:1021D0007093200580932105909322058091B0058E
:1021E00061E00E94DC078DEE94E00E94A92A1F9115
:1021F0000F91FF90EF900895CF93DF93282F462FF4
:10220000CDEED4E0CE01622F0E944F2ACE010E9473
:10221000C52A0E941D3328EE33E040E050E00E94C2
:10222000B639CA01B9012CE330E040E050E00E9429
:10223000B63925E631E0623071058105910588F4F3
:1022400000D000D000D0EDB7FEB73196ADB7BEB725
:102250001296DC93CE9311973383228381EB95E022
:1022600010C000D000D000D0EDB7FEB73196ADB7AA
:10227000BEB71296DC93CE931197338322838BEEF5
:1022800092E0958384830E94112C8DB79EB70696A9
:102290000FB6F8949EBF0FBE8DBF8DEE94E00E94E6
:1022A000A92ADF91CF910895BF92CF92DF92EF924A
:1022B000FF920F931F93282F462F8DEE94E0622FED
:1022C0000E944F2A8DEE94E00E94C52A90916905E4
:1022D00090FD4FC0C090BB058091BA058C1510F4DD
:1022E000C092BA05B090BC058091BA05B81610F43A
:1022F000B092BA05992369F4DD246091BA0570E0C3
:102300006C197D09882777FD8095982F0E943637B4
:1023100011C0983071F580919F059091A0056AE0F9
:1023200070E00E948F39DD246C197D0980E090E017
:102330000E9434377B018C016B2D70E06C197D0994
:10234000882777FD8095982F0E9436379B01AC0136
:10235000C801B7010E949B3620E030E048EC52E40F
:102360000E9469380E9403377093E9026093E80283
:1023700013C0913039F48091BA058093E80210922D
:10238000E9020AC0993041F480919F059091A0051F
:102390009093E9028093E8026091E8027091E9026B
:1023A000882777FD8095982F0E94363720E030E00F
:1023B00048EC52E40E945E38181634F484E690E04B
:1023C0009093E9028093E8028DB79EB70A970FB603
:1023D000F8949EBF0FBE8DBFEDB7FEB731960DEEE0
:1023E00014E0ADB7BEB712961C930E93119787E415
:1023F00092E09383828389E090E095838483809147
:10240000E8029091E9029783868385E290E09187C4
:1024100080870E94112C8DB79EB70A960FB6F8944C
:102420009EBF0FBE8DBFC8010E94A92A1F910F91A8
:10243000FF90EF90DF90CF90BF900895EF92FF92C2
:102440000F931F93282F462FBDEEEB2EB4E0FB2EEB
:10245000C701622F0E944F2AC7010E94C52A8DB76B
:102460009EB70A970FB6F8949EBF0FBE8DBF0DB7EB
:102470001EB70F5F1F4FEDB7FEB7F282E1828FE408
:1024800092E0F801938382838091E30290E02091AF
:10249000D2053091D305829FB001839F700D929F2A
:1024A000700D11242091110530911205620F731FD8
:1024B00080E090E00E94343720E030E04AE754E4C6
:1024C0000E949B36F801648375838683978380918D
:1024D0000F0590911005918780870E94112C8DB770
:1024E0009EB70A960FB6F8949EBF0FBE8DBFC70168
:1024F0000E94A92A1F910F91FF90EF9008952F92AB
:102500003F924F925F926F927F928F929F92AF9283
:10251000BF92CF92DF92EF92FF920F931F93DF93C0
:10252000CF9300D0CDB7DEB71DEE212E14E0312EB3
:10253000C1016BE043E00E944F2AC1010E94C52AFD
:10254000C090E402D090E502E090E602F090E7024D
:102550008090090590900A05A0900B05B0900C059D
:10256000409005055090060560900705709008059D
:1025700080910E05898390910D059A83EDB7FEB782
:10258000E854F0400FB6F894FEBF0FBEEDBF0DB794
:102590001EB70F5F1F4F3282218287E592E0F8015C
:1025A0009383828388E090E095838483C701B6019A
:1025B00020E030E040E752E40E949B360E9403375F
:1025C000F801778366838AE390E091878087C7016B
:1025D000B6010E940337DC01CB016CE370E00E947E
:1025E000A339F801938782878BE090E095878487F1
:1025F000C501B4012091D4053091D5054091D6058F
:102600005091D7050E946938F80166877787808BDB
:10261000918B8981828B138A8FE890E0958B848BD4
:10262000C501B4012091C6053091C7054091C80588
:102630005091C9050E946938F801668B778B808FAD
:10264000918F8981828F138E83E190E0958F848FA3
:10265000C301B2012091D8053091D9054091DA0526
:102660005091DB050E9469380E940337F801778F8B
:10267000668F8A8180A311A284E190E093A382A354
:10268000C301B2012091DC053091DD054091DE05EA
:102690005091DF050E9469380E940337F80175A345
:1026A00064A38A8186A317A282E190E091A780A704
:1026B000C501B4012091E0053091E1054091E205AA
:1026C0005091E3050E9469380E940337F80173A70F
:1026D00062A7898184A715A68DE190E097A786A7B8
:1026E000C301B2012091E4053091E5054091E60572
:1026F0005091E7050E9469380E940337F80171ABD9
:1027000060AB8A8182AB13AA87E190E095AB84AB82
:1027100080915A0590915B05A0915C05B0915D0593
:1027200086AB97ABA0AFB1AF81E090E093AF82AF43
:1027300083E090E095AF84AF025C1F4F809141052C
:1027400090914205A0914305B0914405F801819311
:102750009193A193B19384E090E0819391938091C0
:10276000450590914605A0914705B09148058083A5
:102770009183A283B3830E94112C8DB79EB7885B8F
:102780009F4F0FB6F8949EBF0FBE8DBFC1010E9430
:10279000A92A0F900F90CF91DF911F910F91FF9079
:1027A000EF90DF90CF90BF90AF909F908F907F90F1
:1027B0006F905F904F903F902F900895CF92DF924F
:1027C000EF92FF920F931F93CF93DF93282F462F03
:1027D000CDEED4E0CE01622F0E944F2ACE010E949E
:1027E000C52A6091C6057091C7058091C805909172
:1027F000C9052091090530910A0540910B055091BA
:102800000C050E9469386B017C0120E03CE34CE13F
:1028100056E40E945E381816C4F58DB79EB70C9723
:102820000FB6F8949EBF0FBE8DBF0DB71EB70F5FDA
:102830001F4FADB7BEB71296DC93CE9311978BE9BD
:1028400091E0F801938382838FE890E095838483FD
:10285000609114057091150580E090E00E94343776
:102860009B01AC01C701B6010E949B36D8011696A8
:102870006D937D938D939C931997809113051A9670
:102880008C931A971B961C9221C08DB79EB70C97FC
:102890000FB6F8949EBF0FBE8DBFEDB7FEB7319651
:1028A000ADB7BEB71296DC93CE93119785EA91E04F
:1028B000938382838FE890E095838483C682D78256
:1028C000E086F18680910E05828713860E94112C86
:1028D000EDB7FEB73C960FB6F894FEBF0FBEEDBF46
:1028E0008DEE94E00E94A92ADF91CF911F910F9164
:1028F000FF90EF90DF90CF900895EF92FF920F93AB
:102900001F93282F462F8DEE94E0622F0E944F2AAE
:102910008DEE94E00E94C52A8091E8059091E9052A
:1029200064E670E00E948F3980E090E00E943437C6
:102930002091290530912A0540912B0550912C05B5
:102940000E94CD357B018C0120E030E044EB53E464
:102950000E949B3620E030E040E851E40E94693854
:1029600020E030E040E85FE30E94CE350E94CC38A2
:102970000E940337862F6093EA05161614F0805FD5
:1029800003C061311CF080518093EA05C801B70192
:1029900020E030E044E353E40E945E3818164CF423
:1029A000C801B70120E030E044EB53E40E94CD358C
:1029B00015C0C801B70120E030E044E353EC0E94A9
:1029C000943688234CF4C801B70120E030E044EB92
:1029D00053E40E94CE3502C0C801B7010E940837F7
:1029E00070932405609323058091EA0562E00E94BC
:1029F000DC078DEE94E00E94A92A1F910F91FF90B1
:102A0000EF900895EF92FF920F931F93CF93DF9370
:102A1000282F462F8DEE94E0622F0E944F2A8DEED4
:102A200094E00E94C52A20912705309128051216AE
:102A300013062CF02115310559F128593E4FB901E3
:102A4000882777FD8095982F0E9436372091290599
:102A500030912A0540912B0550912C050E94CD35CF
:102A600020E030E044EB53E40E949B3620E030E06D
:102A700040E851E40E9469380E94CC3820E030E000
:102A800040E85FE30E94CE350E94033760932D0536
:102A900080912D0587FF03C0805F80932D05809175
:102AA0002D05882319F480E180932D05E0902E05F3
:102AB000F0902F050091300510913105C801B70144
:102AC00020E030EC49E754E40E945E3818162CF4FC
:102AD00080E090ECA9E7B4E40EC0C801B70120E0A3
:102AE00030EC49E754EC0E949436882364F480E08B
:102AF00090ECA9E7B4EC80932E0590932F05A0935A
:102B00003005B09331058DB79EB742970FB6F89454
:102B10009EBF0FBE8DBF0DB71EB70F5F1F4FCDEE0F
:102B2000D4E0EDB7FEB7D283C18383EB92E0F80126
:102B30009383828387E590E09583848380E790E0A8
:102B4000978386838091320580871186138612864B
:102B5000609133057091340580E090E00E94343735
:102B60002091090530910A0540910B0550910C0503
:102B70000E946938F80164877587868797878091F6
:102B80000E05808B118A0E94112C8DB79EB742963C
:102B90000FB6F8949EBF0FBE8DBF80912D0560E0EB
:102BA0000E94DC07809125058A3029F08F3019F0CA
:102BB000873009F047C0EDB7FEB770970FB6F894AD
:102BC000FEBF0FBEEDBF0DB71EB70F5F1F4F8DEEDF
:102BD00094E09283818385EC92E0F8019383828371
:102BE00080E290E09583848388E590E097838683F4
:102BF00085E690E09187808760912E0570912F0582
:102C000080913005909131052091090530910A0598
:102C100040910B0550910C050E946938F8016287BC
:102C200073878487958780910E05868717860E9413
:102C3000112C8DB79EB740960FB6F8949EBF0FBE6D
:102C40008DBF10C000D000D0EDB7FEB7D283C183D6
:102C500086ED90E0948383830E94002C0F900F9068
:102C60000F900F908DEE94E00E94A92ADF91CF91F2
:102C70001F910F91FF90EF9008950F931F93282FAE
:102C8000462F0DEE14E0C801622F0E944F2AC801A2
:102C90000E94C52A00D000D0EDB7FEB71283018391
:102CA0008FED90E0948383830E94002C0F900F900F
:102CB0000F900F90C8010E94A92A1F910F910895AB
:102CC000CF92DF92EF92FF920F931F937C01D62E4B
:102CD000C72E0DEE14E0C8016E2D4D2D0E944F2A17
:102CE000C8010E94C52A00D000D0EDB7FEB71283FC
:102CF00001838CEE90E0948383830E94002C0F90DC
:102D00000F900F900F90C8010E94A92AC701019649
:102D10006D2D7C2D0E945C061F910F91FF90EF900E
:102D2000DF90CF900895EF92FF920F931F93CF9370
:102D3000DF93282F462FCDEED4E0CE01622F0E94E4
:102D40004F2ACE010E94C52A8FE996E062E773E020
:102D50000E94C232882381F000D000D0EDB7FEB7C8
:102D6000D283C18384E391E0948383830E94002C07
:102D70000F900F900F900F908DB79EB70A970FB6D8
:102D8000F8949EBF0FBE8DBF0DB71EB70F5F1F4FCC
:102D90008DEEE82E84E0F82EEDB7FEB7F282E182E8
:102DA00083ED92E0F8019383828360915F057091D7
:102DB0006005809161059091620520910505309133
:102DC000060540910705509108050E946938F801F1
:102DD000648375838683978380910D058087118630
:102DE0000E94112C8DB79EB70A960FB6F8949EBF1D
:102DF0000FBE8DBFC7010E94A92ADF91CF911F91FD
:102E00000F91FF90EF900895EF92FF920F931F9311
:102E1000CF93DF93282F462FCDEED4E0CE01622F43
:102E20000E944F2ACE010E94C52A8FE996E060E7F2
:102E300073E00E94C232882381F000D000D0EDB749
:102E4000FEB7D283C18386E391E0948383830E949B
:102E5000002C0F900F900F900F908DB79EB70A9790
:102E60000FB6F8949EBF0FBE8DBF0DB71EB70F5F94
:102E70001F4F9DEEE92E94E0F92EEDB7FEB7F282DA
:102E8000E18283ED92E0F801938382836091700583
:102E900070917105809172059091730520910505DF
:102EA0003091060540910705509108050E94693848
:102EB000F801648375838683978380910D058087ED
:102EC00011860E94112C8DB79EB70A960FB6F89402
:102ED0009EBF0FBE8DBFC7010E94A92ADF91CF916F
:102EE0001F910F91FF90EF900895EF92FF920F9333
:102EF0001F93CF93DF93282F462FCDEED4E0CE0142
:102F0000622F0E944F2ACE010E94C52A8FE996E0C7
:102F10006EE673E00E94C232882381F000D000D0B8
:102F2000EDB7FEB7D283C18388E391E094838383B6
:102F30000E94002C0F900F900F900F908DB79EB7AE
:102F40000A970FB6F8949EBF0FBE8DBF0DB71EB780
:102F50000F5F1F4F2DEEE22E24E0F22EEDB7FEB7ED
:102F6000F282E1828BED92E0F8019383828360919B
:102F70007405709175058091760590917705209183
:102F8000090530910A0540910B0550910C050E94EE
:102F90006938F801648375838683978380910E0571
:102FA000808711860E94112C8DB79EB70A960FB6A6
:102FB000F8949EBF0FBE8DBFC7010E94A92ADF9162
:102FC000CF911F910F91FF90EF900895EF92FF9294
:102FD0000F931F93CF93DF93282F462FCDEED4E08E
:102FE000CE01622F0E944F2ACE010E94C52A8FE98E
:102FF00096E06CE673E00E94C232882381F000D034
:1030000000D0EDB7FEB7D283C1838AE391E0948309
:1030100083830E94002C0F900F900F900F908DB71C
:103020009EB70A970FB6F8949EBF0FBE8DBF0DB71F
:103030001EB70F5F1F4F3DEEE32E34E0F32EEDB7CA
:10304000FEB7F282E1828BED92E0F80193838283F6
:103050006091800570918105809182059091830532
:103060002091090530910A0540910B0550910C05FE
:103070000E946938F8016483758386839783809101
:103080000E05808711860E94112C8DB79EB70A9677
:103090000FB6F8949EBF0FBE8DBFC7010E94A92A2C
:1030A000DF91CF911F910F91FF90EF900895AF9214
:1030B000BF92CF92DF92EF92FF920F931F93282F30
:1030C000462F8DEE94E0622F0E944F2A8DEE94E001
:1030D0000E94C52A80915E059091BD05882309F460
:1030E000ADC0992319F481E08093BD05A0907005CF
:1030F000B0907105C0907205D0907305C601B501FE
:1031000020E030E040E050E00E949436882309F44B
:1031100048C06091840570918505882777FD80956A
:10312000982F0E94363720E030E040E251E40E94C0
:1031300069387B018C01C601B501209105053091EC
:10314000060540910705509108050E9469389B01CA
:10315000AC01C801B7010E949B362DEC3CEC4CEC55
:103160005DE30E9469387B018C016091BE0570911E
:10317000BF058091C0059091C10526E636E646E67A
:103180005FE30E9469389B01AC01C801B7010E944E
:10319000CE356093BE057093BF058093C0059093B4
:1031A000C105E090BE05F090BF050091C0051091EB
:1031B000C105C801B70120E030E040E050E00E94C6
:1031C0005E38181674F5C801B70120E03CE34CE105
:1031D00056E40E949436181624F18DB79EB70C97CA
:1031E0000FB6F8949EBF0FBE8DBFEDB7FEB73196F8
:1031F0008DEE94E0ADB7BEB712969C938E93119767
:1032000083EC91E09383828386E190E095838483CD
:10321000E682F7820087118781E090E093878287BA
:10322000DDC000D000D08DEE94E0ADB7BEB71296F1
:103230009C938E9311978AE491E0F7C0992311F142
:103240008091740590917505A0917605B0917705F0
:103250008093C2059093C305A093C405B093C505A0
:103260008091C6059091C705A091C805B091C90588
:103270008093CA059093CB05A093CC05B093CD0560
:103280001092BD05E0907805F090790500917A05DF
:1032900010917B05C801B7012DEC3CEC4CE45DEBD3
:1032A0000E94943688230CF0A4C0E0907405F0903E
:1032B000750500917605109177056091C2057091B2
:1032C000C3058091C4059091C505A80197010E948E
:1032D000CD359B01AC01C801B7010E949B367B0133
:1032E0008C016091C6057091C7058091C8059091C9
:1032F000C9052091CA053091CB054091CC0550916C
:10330000CD050E94CD359B01AC01C801B7010E94DB
:1033100069382091090530910A0540910B055091BB
:103320000C050E9469386093CE057093CF05809399
:10333000D0059093D10520E03CE34CE156E40E9497
:103340005E38181664F480E09CE3ACE1B6E4809348
:10335000CE059093CF05A093D005B093D105E09012
:10336000CE05F090CF050091D0051091D105C80190
:10337000B7012FEF3FEF4FE75FE70E945E38181667
:103380000CF46AC0C801B70120E030E040E050E032
:103390000E945E3818160CF05FC0EDB7FEB73C9780
:1033A0000FB6F894FEBF0FBEEDBF31968DEE94E0E0
:1033B000ADB7BEB712969C938E93119783EC91E0B4
:1033C0009383828388E190E095838483E682F78209
:1033D0000087118780910E05828713860E94112C29
:1033E000EDB7FEB73C960FB6F894FEBF0FBEEDBF2B
:1033F00033C0C801B7012DEC3CEC4CE45DEB0E94FE
:103400005E388823BCF08091190590911A0597FFCA
:1034100011C000D000D08DEE94E0ADB7BEB71296CB
:103420009C938E93119783E491E014969C938E93D2
:1034300013970CC000D000D08DEE94E0EDB7FEB72E
:10344000928381838CE391E0948383830E94002C98
:103450000F900F900F900F908DEE94E00E94A92A8C
:103460001F910F91FF90EF90DF90CF90BF90AF90A2
:1034700008950F931F930DEE14E0C80165E045E039
:103480000E944F2AC8010E94C52A00D000D0EDB783
:10349000FEB71283018381E591E0948383830E94C8
:1034A000002C0F900F900F900F90C8010E94A92A36
:1034B0001F910F9108950E94391A0E9435050895B1
:1034C000EF92FF920F931F93809164058130D9F59D
:1034D00060917405709175058091760590917705DE
:1034E00020E030E040E251E40E945E3818160CF112
:1034F00060917005709171058091720590917305CE
:1035000020E030E040E85FE30E945E3818168CF05F
:1035100080915E05823068F480915105909152054A
:10352000A0915305B091540585369105A105B105CB
:1035300054F00E941D336093F4027093F50280935F
:10354000F6029093F7020E941D330E9434377B01EC
:103550008C016091EB057091EC058091ED059091E7
:10356000EE0520E030E849E055E40E94CE359B01AD
:10357000AC01C801B7010E945E38181694F480911E
:10358000F802823039F08DEE94E00E94122B82E036
:103590008093F80285E090E06AE070E00E943D16BA
:1035A000AFC20E941D3368557B41804090402091FE
:1035B000F4023091F5024091F6025091F70226177D
:1035C00037074807590770F48091F802813039F0C5
:1035D0008DEE94E00E94122B81E08093F8020E940D
:1035E0007F128EC28091540480FF08C06091AE04A7
:1035F0008091AC0490E070E00E94E10C80918E0517
:10360000843010F00E94B60F8091A205882321F427
:103610008091F802882341F08DEE94E00E94122BF5
:103620001092A2051092F8028091A105823009F44F
:1036300067C2A82FB0E0FD01E25BFB4F808181FFF4
:103640000BC0FD01E65AFB4F6081A85ABB4F8C911D
:1036500090E070E00E94E10A8091A105A82FB0E0FF
:10366000FD01E25BFB4F808182FF0BC0FD01E25A4E
:10367000FB4F6081A45ABB4F8C9190E070E00E9498
:10368000A10A8091A105A82FB0E0FD01E25BFB4FEC
:10369000808183FF0BC0FD01EE59FB4F6081A05A72
:1036A000BB4F8C9190E070E00E945F0A8091A10571
:1036B000A82FB0E0FD01E25BFB4F808185FF0BC0CE
:1036C000FD01EA59FB4F6081AC59BB4F8C9190E0F2
:1036D00070E00E940F0A8091A105A82FB0E0FD01C3
:1036E000E25BFB4F808187FF0BC0FD01E259FB4F7E
:1036F0006081A459BB4F8C9190E070E00E94C50995
:103700008091A105A82FB0E0FD01E25BFB4F808115
:1037100084FF0BC0FD01EE58FB4F6081A059BB4FE9
:103720008C9190E070E00E94300C8091A105A82F50
:10373000B0E0FD01E25BFB4F808186FF0BC0FD0125
:10374000E659FB4F6081A859BB4F8C9190E070E027
:103750000E947D148091A105A82FB0E0FD01E05BDF
:10376000FB4F808180FF0BC0FD01EA58FB4F608159
:10377000AC58BB4F8C9190E070E00E94450980915D
:10378000A105A82FB0E0FD01E05BFB4F808181FF28
:103790000BC0FD01E658FB4F6081A858BB4F8C91D0
:1037A00090E070E00E9483098091EF05813051F52F
:1037B0008091A105A82FB0E0FD01E05BFB4F808167
:1037C00084FF0BC0FD01EE57FB4F6081A058BB4F3B
:1037D0008C9190E070E00E94210B8091A105A82FB0
:1037E000B0E0FD01E05BFB4F808183FF0BC0FD017A
:1037F000E258FB4F6081A458BB4F8C9190E070E081
:103800000E942D098091A105A82FB0E0FD01E05B89
:10381000FB4F808187FF0BC0FD01E657FB4F6081A6
:10382000A857BB4F8C9190E070E00E94C20B809132
:1038300032058823A9F08091A105A82FB0E0FD01F1
:10384000E05BFB4F808186FF0BC0FD01EA57FB4F19
:103850006081AC57BB4F8C9190E070E00E940215E4
:103860008091A105A82FB0E0FD01EE5AFB4F8081A9
:1038700082FF0BC0FD01EE56FB4F6081A057BB4F8E
:103880008C9190E070E00E94E6178091A105A82F2E
:10389000B0E0FD01EE5AFB4F808187FF0BC0FD01B8
:1038A000EA56FB4F6081AC56BB4F8C9190E070E0C4
:1038B0000E9475178091A105A82FB0E0FD01EE5A76
:1038C000FB4F808183FF0BC0FD01E656FB4F6081FB
:1038D000A856BB4F8C9190E070E00E940417809135
:1038E000A105A82FB0E0FD01EE5AFB4F808181FFBA
:1038F0000BC0FD01E256FB4F6081A456BB4F8C917B
:1039000090E070E00E9493168091A105A82FB0E08E
:10391000FD01EE5AFB4F808184FF0BC0FD01EE5587
:10392000FB4F6081A056BB4F8C9190E070E00E94ED
:10393000A70C8091A105A82FB0E0FD01EE5AFB4F26
:10394000808185FF0BC0FD01EA55FB4F6081AC55BE
:10395000BB4F8C9190E070E00E94BD088091A10562
:10396000A82FB0E0FD01EE5AFB4F808186FF0BC00F
:10397000FD01E655FB4F6081A855BB4F8C9190E04F
:1039800070E00E9460168091A105A82FB0E0FD01B3
:10399000EE5AFB4F808180FF0BC0FD01E257FB4FC9
:1039A0006081A457BB4F8C9190E070E00E94DD0EC7
:1039B0008091A105A82FB0E0FD01EC5AFB4F80815A
:1039C00082FF0BC0FD01EE54FB4F6081A055BB4F41
:1039D0008C9190E070E00E9469108091A105A82F61
:1039E000B0E0FD01EC5AFB4F808183FF0BC0FD016D
:1039F000EA54FB4F6081AC54BB4F8C9190E070E077
:103A00000E943E0E8091A105A82FB0E0FD01EC5A66
:103A1000FB4F808184FF0BC0FD01E654FB4F6081AA
:103A2000A854BB4F8C9190E070E00E942E0F8091C3
:103A3000A105A82FB0E0FD01EC5AFB4F808186FF65
:103A40000BC0FD01E254FB4F6081A454BB4F8C912D
:103A500090E070E00E9454118091A105A82FB0E081
:103A6000FD01EC5AFB4F808187FF0BC0FD01EE5337
:103A7000FB4F6081A054BB4F8C9190E070E00E949E
:103A800057188091A105A82FB0E0FD01EC5AFB4F1B
:103A9000808185FF0BC0FD01EA53FB4F6081AC5371
:103AA000BB4F8C9190E070E00E94FC108091A105CA
:103AB000A82FB0E0FD01EA5AFB4F808181FF0BC0C7
:103AC000FD01E653FB4F6081A853BB4F8C9190E002
:103AD00070E00E941E128091A105A82FB0E0FD01A8
:103AE000EA5AFB4F808182FF0BC0FD01E253FB4F7E
:103AF0006081A453BB4F8C9190E070E00E94DE1374
:103B00008091540485FF0EC0E091A105F0E0DF0133
:103B1000AA53BB4F6C91EC53FB4F808190E070E057
:103B20000E94FC100E948F031F910F91FF90EF9055
:103B30000895CF93DF93EC018DEE94E00E944B2A21
:103B4000C817D9073CF08DEE94E00E94402A892BDB
:103B500009F42397CE01DF91CF910895EF92FF9260
:103B60000F931F93CF93DF930091A10510E08AEF8D
:103B700090E0089F7001099FF00C189FF00C112431
:103B8000C70188569F4F0E942006F801E25BFB4F59
:103B9000882319F08081806102C080818F7E8083BC
:103BA0008091A105C82FD0E0C70186569F4F0E9483
:103BB0002006C059DB4F88838091A105C82FD0E033
:103BC000C70184569F4F0E94200690E00E94991DD5
:103BD000CE58DB4F88830091A10510E0C7010696FF
:103BE0000E942006F801E25BFB4F882319F08081D8
:103BF000826002C080818D7F80838091A105C82F63
:103C0000D0E0C70108960E942006C85ADB4F88837F
:103C10008091A105C82FD0E0C7010A960E94200616
:103C200090E00E94991DC65ADB4F88830091A10540
:103C300010E0C7010C960E942006F801E25BFB4FE2
:103C4000882319F08081846002C080818B7F80830B
:103C50008091A105C82FD0E0C7010E960E942006D2
:103C6000C45ADB4F88838091A105C82FD0E0C701DB
:103C700040960E94200690E00E94991DC25ADB4F98
:103C800088830091A10510E0C70142960E9420069A
:103C9000F801E25BFB4F882319F08081886002C045
:103CA0008081877F80838091A105C82FD0E0C701E4
:103CB00044960E942006C05ADB4F88838091A1055C
:103CC000C82FD0E0C70146960E94200690E00E94CF
:103CD000991DCE59DB4F88830091A10510E0C701E3
:103CE0004E960E942006F801E25BFB4F882319F0F4
:103CF0008081806202C080818F7D80838091A10558
:103D0000C82FD0E0C70180960E942006CC59DB4F17
:103D100088838091A105C82FD0E0C70182960E94B8
:103D2000200690E00E94991DCA59DB4F88830091BC
:103D3000A10510E0C70184960E942006F801E25B0D
:103D4000FB4F882319F08081806402C080818F7BC3
:103D500080838091A105C82FD0E0C70186960E947C
:103D60002006C859DB4F88838091A105C82FD0E079
:103D7000C70188960E94200690E00E94991DC659AE
:103D8000DB4F88830091A10510E0C7018A960E944D
:103D90002006F801E25BFB4F882319F080818068E0
:103DA00002C080818F7780838091A105C82FD0E0E9
:103DB000C7018C960E942006C459DB4F88838091EE
:103DC000A105C82FD0E0C7018E960E94200690E082
:103DD0000E94991DC259DB4F88830091A10510E014
:103DE000C701C0960E942006F801E05BFB4F8823C4
:103DF00019F08081816002C080818E7F80838091F4
:103E0000A105C82FD0E0C701C2960E942006CC5859
:103E1000DB4F88838091A105C82FD0E0C701C496ED
:103E20000E94200690E00E94991DCA58DB4F8883AB
:103E30000091A10510E0C701C6960E942006F80176
:103E4000E05BFB4F882319F08081826002C0808193
:103E50008D7F80838091A105C82FD0E0C701C896CF
:103E60000E942006C858DB4F88838091A105C82F87
:103E7000D0E0C701CA960E94200690E00E94991DDA
:103E8000C658DB4F88830091A10510E0C701885B0D
:103E90009F4F0E942006F801E05BFB4F882319F03A
:103EA0008081806102C080818F7E80838091A105A6
:103EB000C82FD0E0C701865B9F4F0E942006C058E4
:103EC000DB4F88838091A105C82FD0E0C701845BB8
:103ED0009F4F0E94200690E00E94991DCE57DB4F15
:103EE00088830091A10510E0C7018E5B9F4F0E945F
:103EF0002006F801E05BFB4F882319F08081886081
:103F000002C08081877F80838091A105C82FD0E087
:103F1000C7018C5B9F4F0E942006C458DB4F8883EB
:103F20008091A105C82FD0E0C7018A5B9F4F0E94F6
:103F3000200690E00E94991DC258DB4F88830091B3
:103F4000A10510E0C7018A5A9F4F0E942006F80180
:103F5000E05BFB4F882319F08081806402C0808180
:103F60008F7B80838091A105C82FD0E0C701885A3C
:103F70009F4F0E942006CC57DB4F88838091A1057C
:103F8000C82FD0E0C701865A9F4F0E94200690E0BC
:103F90000E94991DCA57DB4F88830091A10510E04C
:103FA000C70182569F4F0E942006F801E05BFB4F3D
:103FB000882319F08081806802C080818F77808398
:103FC0008091A105C82FD0E0C70180569F4F0E9465
:103FD0002006C857DB4F88838091A105C82FD0E009
:103FE000C7018E559F4F0E94200690E00E94991DA8
:103FF000C657DB4F88830091A10510E0C7018E5999
:104000009F4F0E942006F801EE5AFB4F882319F0BB
:104010008081816002C080818E7F80838091A10534
:10402000C82FD0E0C7018C599F4F0E942006C4576B
:10403000DB4F88838091A105C82FD0E0C7018A5942
:104040009F4F0E94200690E00E94991DC257DB4FAF
:1040500088830091A10510E0C70182599F4F0E94FB
:104060002006F801EE5AFB4F882319F08081846006
:1040700002C080818B7F80838091A105C82FD0E012
:10408000C70180599F4F0E942006C057DB4F88838D
:104090008091A105C82FD0E0C7018E589F4F0E9484
:1040A000200690E00E94991DCE56DB4F8883009138
:1040B000A10510E0C70184579F4F0E942006F80118
:1040C000EE5AFB4F882319F08081806802C08081FE
:1040D0008F7780838091A105C82FD0E0C7018257D8
:1040E0009F4F0E942006CC56DB4F88838091A1050C
:1040F000C82FD0E0C70180579F4F0E94200690E054
:104100000E94991DCA56DB4F88830091A10510E0DB
:10411000C7018E569F4F0E942006F801EE5AFB4FB2
:10412000882319F08081826002C080818D7F808326
:104130008091A105C82FD0E0C7018C569F4F0E94E7
:104140002006C456DB4F88838091A105C82FD0E09C
:10415000C7018A569F4F0E94200690E00E94991D39
:10416000C256DB4F88830091A10510E0C7018C582F
:104170009F4F0E942006F801EE5AFB4F882319F04A
:104180008081886002C08081877F80838091A105C3
:10419000C82FD0E0C7018A589F4F0E942006C856FA
:1041A000DB4F88838091A105C82FD0E0C7018858D4
:1041B0009F4F0E94200690E00E94991DC656DB4F3B
:1041C00088830091A10510E0C70186589F4F0E9487
:1041D0002006F801EE5AFB4F882319F08081806198
:1041E00002C080818F7E80838091A105C82FD0E09E
:1041F000C70184589F4F0E942006C056DB4F88831A
:104200008091A105C82FD0E0C70182589F4F0E941E
:10421000200690E00E94991DCE55DB4F88830091C7
:10422000A10510E0C70180589F4F0E942006F801A9
:10423000EE5AFB4F882319F08081806202C0808192
:104240008F7D80838091A105C82FD0E0C7018E5754
:104250009F4F0E942006CC55DB4F88838091A1059B
:10426000C82FD0E0C7018C579F4F0E94200690E0D6
:104270000E94991DCA55DB4F88830091A10510E06B
:10428000C7018A579F4F0E942006F801EE5AFB4F44
:10429000882319F08081806402C080818F7B8083B5
:1042A0008091A105C82FD0E0C70188579F4F0E9479
:1042B0002006C855DB4F88838091A105C82FD0E028
:1042C000C70186579F4F0E94200690E00E94991DCB
:1042D000C655DB4F88830091A10510E0C7018C55BE
:1042E0009F4F0E942006F801EC5AFB4F882319F0DB
:1042F0008081816002C080818E7F80838091A10552
:10430000C82FD0E0C7018A559F4F0E942006C45590
:10431000DB4F88838091A105C82FD0E0C701885565
:104320009F4F0E94200690E00E94991DC255DB4FCE
:1043300088830091A10510E0C70180559F4F0E941E
:104340002006F801EC5AFB4F882319F08081846025
:1043500002C080818B7F80838091A105C82FD0E02F
:10436000C7018E549F4F0E942006C055DB4F8883A3
:104370008091A105C82FD0E0C7018C549F4F0E94A7
:10438000200690E00E94991DCE54DB4F8883009157
:10439000A10510E0C7018A549F4F0E942006F80132
:1043A000EC5AFB4F882319F08081886002C080811D
:1043B000877F80838091A105C82FD0E0C7018854F2
:1043C0009F4F0E942006CC54DB4F88838091A1052B
:1043D000C82FD0E0C70186549F4F0E94200690E06E
:1043E0000E94991DCA54DB4F88830091A10510E0FB
:1043F000C70184549F4F0E942006F801EC5AFB4FDE
:10440000882319F08081806102C080818F7E808343
:104410008091A105C82FD0E0C70182549F4F0E9410
:104420002006C854DB4F88838091A105C82FD0E0B7
:10443000C70180549F4F0E94200690E00E94991D62
:10444000C654DB4F88830091A10510E0C701845A50
:104450009F4F0E942006F801EC5AFB4F882319F069
:104460008081806402C080818F7B80838091A105E0
:10447000C82FD0E0C701825A9F4F0E942006C45423
:10448000DB4F88838091A105C82FD0E0C701805AF7
:104490009F4F0E94200690E00E94991DC254DB4F5E
:1044A00088830091A10510E0C7018E539F4F0E94A1
:1044B0002006F801EC5AFB4F882319F080818068B0
:1044C00002C080818F7780838091A105C82FD0E0C2
:1044D000C7018C539F4F0E942006C054DB4F888336
:1044E0008091A105C82FD0E0C7018A539F4F0E9439
:1044F000200690E00E94991DCE53DB4F88830091E7
:10450000A10510E0C70188539F4F0E942006F801C3
:10451000EC5AFB4F882319F08081806202C08081B1
:104520008F7D80838091A105C82FD0E0C70186537D
:104530009F4F0E942006CC53DB4F88838091A105BA
:10454000C82FD0E0C70184539F4F0E94200690E0FF
:104550000E94991DCA53DB4F88830091A10510E08A
:10456000C7018C529F4F0E942006F801EA5AFB4F68
:10457000882319F08081826002C080818D7F8083D2
:104580008091A105C82FD0E0C7018A529F4F0E9499
:104590002006C853DB4F88838091A105C82FD0E047
:1045A000C70188529F4F0E94200690E00E94991DEB
:1045B000C653DB4F88830091A10510E0C7018052EC
:1045C0009F4F0E942006F801EA5AFB4F882319F0FA
:1045D0008081846002C080818B7F80838091A1056F
:1045E000C82FD0E0C7018E519F4F0E942006C453B0
:1045F000DB4F88838091A105C82FD0E0C7018C5183
:104600009F4F0E94200690E00E94991DC253DB4FED
:104610008883DF91CF911F910F91FF90EF900895C4
:104620008FE996E064E773E00E94C232882339F094
:104630008FE996E064E773E040E00E94C9328FE9B9
:1046400096E062EA73E00E94C232823039F08FE96C
:1046500096E062EA73E042E00E94C9328FE996E098
:1046600064EA73E00E94C232843039F08FE996E048
:1046700064EA73E044E00E94C9328FE996E066EA9A
:1046800073E00E94C232813039F08FE996E066EA29
:1046900073E041E00E94C93208958F929F92AF92D9
:1046A000BF92CF92DF92FF920F931F93CF93DF932E
:1046B000F62E4901C82EDD248601000F111F580176
:1046C000AC0CBD1CE501CC0FDD1FCC0FDD1FC159AB
:1046D000D94F18828B819C818430910509F48EC05A
:1046E000853091055CF48230910509F443C0833034
:1046F00091050CF0BFC09923C4F44FC287309105D7
:1047000009F443C18830910544F48530910509F4DA
:10471000DEC0069709F041C207C18830910509F44F
:104720007AC1099709F039C2E7C18EEF681709F01D
:1047300034C282E090E09C838B8380E790E0C89E47
:10474000D001C99EB00DD89EB00D1124A150BA4F12
:1047500013961C92139788E390E0C89EF001C99EBF
:10476000F00DD89EF00D1124EE0FFF1FEF5FF94FF3
:104770006083A4C1E5E6E61788F489818F5F8983A9
:10478000F501EE0FFF1FEE0FFF1FEF58F94F80816D
:104790008F5F8083188281E090E02DC080E790E0F9
:1047A000C89EF001C99EF00DD89EF00D1124E15075
:1047B000FA4F63831D8280818627282F2295207FD0
:1047C000282730E0522F4427C90163E0880F991F42
:1047D0006A95E1F748275927818190E048275927B2
:1047E00084E0359527958A95E1F742275327518331
:1047F000408384E090E09C838B83CFC18CE190E088
:10480000C89EF001C99EF00DD89EF00D1124EE0F48
:10481000FF1FEE0FFF1FED5FF94F608380E790E011
:10482000C89EF001C99EF00DD89EF00D1124E150F4
:10483000FA4F80818627282F2295207F282730E075
:10484000522F4427C901B3E0880F991FBA95E1F7A9
:1048500048275927818190E048275927A4E03595BA
:104860002795AA95E1F7422753275183408383E098
:1048700090E0C1CF80E790E0C89EF001C99EF00DA6
:10488000D89EF00D1124E150FA4F65838081862770
:10489000282F2295207F282730E0522F4427C90156
:1048A00063E0880F991F6A95E1F7482759278181AE
:1048B00090E04827592704E0359527950A95E1F7B8
:1048C000422753275183408385E090E094CF80E7CF
:1048D00090E0C89EF001C99EF00DD89EF00D112405
:1048E000E150FA4F668380818627282F2295207F0A
:1048F000282730E0522F4427C901B3E0880F991FC1
:10490000BA95E1F748275927818190E04827592730
:10491000A4E035952795AA95E1F7422753275183BF
:10492000408386E090E067CF80E790E0C89EF0018A
:10493000C99EF00DD89EF00D1124E150FA4F678307
:1049400080818627282F2295207F282730E0522F2C
:104950004427C90163E0880F991F6A95E1F748274A
:104960005927818190E04827592794E0359527956C
:104970009A95E1F742275327518340838381882307
:1049800009F446C087E090E036CF6D81F80183E0FE
:10499000EE0FFF1F8A95E1F7E01BF10B319603E064
:1049A000EE0FFF1F0A95E1F7E60FF11DE150FA4FF8
:1049B000F0826F5F6D8380E790E0C89EF001C99E32
:1049C000F00DD89EF00D1124E150FA4F80818F2513
:1049D000282F2295207F282730E0522F4427C90115
:1049E000B3E0880F991FBA95E1F7482759278181CD
:1049F00090E048275927A4E035952795AA95E1F737
:104A000042275327518340838381681709F0C5C02B
:104A100088E090E0F0CE80E790E0C89ED001C99E8B
:104A2000B00DD89EB00D1124A150BA4F9C9117968D
:104A3000EC911797F0E0E150FD4F80818927482FD6
:104A40004295407F482750E0342F2227CA0173E067
:104A5000880F991F7A95E1F72827392711968C91AD
:104A6000119790E02827392764E0559547956A9576
:104A7000E1F72427352711963C932E938F2D90E054
:104A8000307082179307F9F0F501EE0FFF1FEE0F5C
:104A9000FF1FEF58F94F80818F5F8083188281E07C
:104AA00090E09C838B83FEEFFF1609F076C082E0D6
:104AB00090E09C838B8313961C9213978FEF9FEF4C
:104AC0008D939C936AC089E090E09C838B83F8016E
:104AD00083E0EE0FFF1F8A95E1F7E01BF10B3196A3
:104AE00013E0EE0FFF1F1A95E1F78D81E80FF11D1E
:104AF000E150FA4FF08251C0262F30E080E790E07D
:104B0000C89EB001C99E700DD89E700D11246150D1
:104B10007A4FFB01818190E028173907E9F0F50110
:104B2000EE0FFF1FEE0FFF1FEF58F94F80818F5FD1
:104B30008083188281E090E09C838B83FEEFFF16D8
:104B400061F582E090E09C838B83EB011B828FEF09
:104B50009FEF9983888321C081E0888381E090E082
:104B60009C838B83F801A3E0EE0FFF1FAA95E1F76A
:104B7000E01BF10B319633E0EE0FFF1F3A95E1F7A2
:104B80008D81E80FF11DE050FA4FF082DA01FB0150
:104B900080E701900D928150E1F7D601AA0FBB1F6B
:104BA000AC0DBD1DAA0FBB1FAA0FBB1FA159B94F4A
:104BB0008C91813069F58CE190E0C89EF001C99E2E
:104BC000F00DD89EF00D1124EE0FFF1FEE0FFF1F0A
:104BD000ED5FF94F808116968C93169718968D91FC
:104BE0009C911997892B21F41B961C921E921A975F
:104BF000F601EE0FFF1FEC0DFD1DEE0FFF1FEE0F78
:104C0000FF1FE159F94F8085918501969187808733
:104C1000F601EE0FFF1FEC0DFD1DEE0FFF1FEE0F57
:104C2000FF1FDF01A159B94F16968C9116978F5F20
:104C3000E4018E8318968D919C91199799878887A6
:104C4000EF58F94F80818A871B8610828C91DF9103
:104C5000CF911F910F91FF90DF90CF90BF90AF90B9
:104C60009F908F900895AF92BF92CF92DF92EF9274
:104C7000FF920F931F93DF93CF93CDB7DEB7CC573F
:104C8000D0400FB6F894DEBF0FBECDBF8E01035FDC
:104C90001F4F5E010894A11CB11CEE24E39425E192
:104CA000C22ED12CCC0EDD1EE0C180ED94E00E941E
:104CB000B42CF82E8091F0058823E1F40E941D3376
:104CC00060527E4480409040A8F40E941D33695891
:104CD00073418040904070F0FAE0FF1619F02DE02B
:104CE000F21631F48091F1058F5F8093F10502C0D7
:104CF0001092F10580E06F2DA80195010E944D23CF
:104D0000882309F4AEC10E941D330E94343760939A
:104D1000EB057093EC058093ED059093EE05E09222
:104D2000F0058C89813209F47BC1823290F488319C
:104D300009F454C0893130F48823F1F0813009F04E
:104D400090C12CC08D3109F463C18E3109F089C145
:104D5000CBC08E3309F4EBC08F3338F4833209F4BF
:104D60001DC18A3209F07DC114C18A3409F474C0AE
:104D7000883A09F076C132C1E092F2058A898093BF
:104D8000F3058B898093F405F801808580932505D0
:104D900086858093F5051092F60563C1F801668952
:104DA000778980E090E00E94343720E030E04AE7E5
:104DB00054E40E949B3660934D0570934E0580939A
:104DC0004F0590935005F801808D918D9093850546
:104DD0008093840586A18093590543C1F8016089B9
:104DE0007189828993890E94363720E836E948E143
:104DF0005BE40E949B36609341057093420580936B
:104E0000430590934405F8016489758986899789DB
:104E10000E94363720E836E948E15BE40E949B3681
:104E20006093450570934605809347059093480528
:104E3000F601848D80934905858D80934C05828D84
:104E4000938D9093E9058093E805848995899093E3
:104E50004B0580934A0505C1F60180819181A281AD
:104E6000B38180935F0590936005A0936105B09333
:104E7000620584819581A681B781809370059093A6
:104E80007105A0937205B0937305F801608D718D63
:104E9000882777FD8095982F0E94363760932905E3
:104EA00070932A0580932B0590932C05F801828D31
:104EB00080935E0580899189A289B389809380055A
:104EC00090938105A0938205B0938305F6018485B4
:104ED0009585A685B7858093780590937905A093ED
:104EE0007A05B0937B05BDC0F8016089718982891C
:104EF000938921EE3EE245E652E40E9469380E9421
:104F0000033770931A0560931905F8016485758558
:104F10008685978521EE3EE245E652E40E94693897
:104F20000E94033770931805609317059AC0F80123
:104F3000868D978D909328058093270580A191A158
:104F4000909334058093330580899189A289B38930
:104F50008093860590938705A0938805B093890573
:104F600084899589A689B78980938A0590938B0552
:104F7000A0938C05B0938D05808D918DA28DB38DFE
:104F800080932E0590932F05A0933005B0933105A3
:104F900068C0F80180858093320563C0F60184857E
:104FA000958590939A05809399058685978590932A
:104FB0009C0580939B05F801808D918D90939E05B3
:104FC00080939D05F601828993899093A005809333
:104FD0009F05F801858D8093BA0543C0F601808155
:104FE0009181A281B3818093AC059093AD05A0938C
:104FF000AE05B093AF0584819581A681B78180937A
:105000001B0590931C05A0931D05B0931E0529C098
:10501000F801848995899093D3058093D20521C0A6
:10502000F801608D718D828D938D0E9436372FE649
:1050300032E143E85AEB0E9469389B01AC01609170
:1050400080057091810580918205909183050E9471
:10505000CE356093F7057093F8058093F90590932A
:10506000FA058AE890E00E94843380ED94E00E9483
:10507000842C181619060CF418CE8091FB0590911B
:10508000FC052B853C85820F931F9093FC05809334
:10509000FB052B818091FD059091FE05820F911DEE
:1050A0009093FE058093FD05C458DF4F0FB6F8942A
:1050B000DEBF0FBECDBFCF91DF911F910F91FF904B
:1050C000EF90DF90CF90BF90AF90089586E061E0C1
:1050D0000E943D3508950F931F9386E061E00E9482
:1050E000FE3400ED14E0C80140E051EE60E070E0F5
:1050F0000E94222C1093A1060093A0060E9466280D
:105100008DEE94E00E94912B0E945B1A64EF71E097
:1051100080E090E00E942B330E94AD051092A10523
:1051200007C00E94AE1D8091A1058F5F8093A105ED
:105130008091A1058230A8F31092A10560ED77E07F
:1051400080E090E00E942B3380ED94E00E94012DDE
:105150001F910F9108952F923F924F925F926F92FD
:105160007F928F929F92AF92BF92CF92DF92EF92F7
:10517000FF920F931F93DF93CF9300D000D0CDB752
:10518000DEB76091800570918105809182059091D4
:1051900083052091F7053091F8054091F90550916C
:1051A000FA050E94CD356093740570937505809360
:1051B0007605909377058091EF05882349F58091D6
:1051C0004905833009F006C180914105909142055F
:1051D000A0914305B0914405809383069093840683
:1051E000A0938506B093860680914505909146056B
:1051F000A0914705B0914805809387069093880653
:10520000A0938906B0938A0681E08093EF05E2C0FF
:10521000813009F0DFC0E0908306F09084060091B1
:10522000850610918606C801B7019F7725E33AEFFE
:105230004EE85CE30E9469380E94983669837A835D
:105240008B839C83C801B7012091410530914205B1
:1052500040914305509144050E94CD351B012C011E
:105260009F7720EC3BE649ED57E40E9469385B01EB
:105270006C016091870670918806809189069091F3
:105280008A06209145053091460540914705509189
:1052900048050E94CD353B014C019F7720EC3BE651
:1052A00049ED57E40E94693829813A814B815C813C
:1052B0000E9469387B018C01C601B501A6019501E8
:1052C0000E9469385B016C01C801B701A801970110
:1052D0000E9469389B01AC01C601B5010E94CE3520
:1052E0000E94F0380E940337609351057093520575
:1052F000809353059093540560E070E080E89FE34D
:1053000029813A814B815C810E949B369B01AC01D3
:10531000C201B1010E94693897FA909497F890946D
:10532000A40193010E94413620EE3EE245E652E49C
:105330000E94693820E030E044EB52E40E94CE3510
:105340000E9403379B01AC0197FF04C028593E4FD0
:105350004F4F5F4FCA01B901645B7040804090407D
:1053600097FF06C0CA01B9016C547F4F8F4F9F4F02
:105370000E9436372091290530912A0540912B054E
:1053800050912C050E94CD350E94033797FF04C031
:1053900068597E4F8F4F9F4F0E94363720E030E094
:1053A00044EB53E40E949B3620E030E040E851E4B7
:1053B0000E9469380E94CC3820E030E040E85FE38A
:1053C0000E94CE350E94083760932605613110F0A7
:1053D000109226050F900F900F900F90CF91DF91B4
:1053E0001F910F91FF90EF90DF90CF90BF90AF9003
:1053F0009F908F907F906F905F904F903F902F90F5
:1054000008950E9426068DEE94E00E94AB280E942B
:10541000601A0E94BE030E94102308950E941D334B
:1054200020917B0630917C0640917D0650917E064E
:1054300028583F4F4F4F5F4F2617370748075907E8
:1054400060F40E941D3360937B0670937C0680930A
:105450007D0690937E060E94012A0E9433260895BD
:10546000FC011382128288EE93E0A0E0B0E0848316
:105470009583A683B78387E294E091838083089520
:10548000FC018089803419F421E030E002C020E082
:1054900030E0C9010895FC01818990E00895FC0184
:1054A0006487458766874787089580E090E0089580
:1054B00080E090E0089580E090E0089508951F93C3
:1054C000CF93DF93EC01162F86E060E00E943D351C
:1054D0008DE896E060E00E94DC2B112319F011307A
:1054E00059F404C08DE896E0688904C068896C614D
:1054F0008DE896E00E94DC2B86E061E00E943D355D
:10550000DF91CF911F910895EF92FF920F931F9318
:105510008EE1489F70011124E60EF11C86E060E0E8
:105520000E943D350DE816E0C80165E00E94DC2BC5
:10553000C8016F2D0E94DC2BC80166E00E94DC2BA5
:10554000C8016E2D0E94DC2B1F910F91FF90EF90F0
:105550000895EF92FF920F931F937C010DE816E0E0
:10556000C80167E00E94DC2BC8016FEF0E94DC2BB2
:1055700086E061E00E943D35F70187858F5F878770
:105580001F910F91FF90EF900895EF92FF920F936C
:105590001F93FC01E7848EE1E89E7001112486854B
:1055A000E80EF11C86E060E00E943D350DE816E053
:1055B000C80164E00E94DC2BC80163E00E94DC2B80
:1055C000C80165E00E94DC2BC8016F2D0E94DC2B16
:1055D000C80166E00E94DC2BC8016E2D0E94DC2B06
:1055E0001F910F91FF90EF9008951F93CF93DF933A
:1055F000EC01162F6C3731F40E94A92ACE010E94CB
:10560000C52A0AC08DE896E067E00E94DC2B8DE891
:1056100096E0612F0E94DC2B81E090E0DF91CF913A
:105620001F9108950F931F9386E060E00E943D351F
:105630000DE816E0C80164E00E94DC2BC80164E0BC
:105640000E94DC2B86E061E00E943D351F910F91A6
:1056500008951F938FE996E066E973E00E94C232D5
:10566000882361F0813011F412E009C0823011F416
:1056700011E005C0833011F410E001C013E0109276
:105680008C0610928B0617C060918B0670918C0669
:10569000605F8DE896E00E94DC2B8DE896E0612F3C
:1056A0000E94DC2B80918B0690918C060196909342
:1056B0008C0680938B0680918B0690918C06409788
:1056C0001CF31F910895CF93DF93EC0186E060E017
:1056D0000E943D358DE896E060EA0E94DC2B8DE863
:1056E00096E06FEF0E94DC2B80FF05C080E4888B82
:1056F00088E0898B13C08FE996E060E973E00E942F
:10570000C232882319F4188A86E003C080E4888BAB
:1057100088E0898B86E060E00E943D35DF91CF9183
:105720000895CF92DF92FF920F931F936C0186E052
:1057300061E00E94FE3482E060E00E94FE3482E07C
:1057400061E00E943D35C6010E94632B86E060E067
:105750000E943D350DE816E0C8016CEE0E94DC2B7E
:10576000C8016FEF0E94DC2BF82EC80160E00E9498
:10577000DC2BF60160896260C8010E94DC2B62E3C9
:1057800070E080E090E00E942B33C8016CE60E943C
:10579000DC2BFFEEFF22C8016F2D0E94DC2BC6011F
:1057A0000E94292BC60161E00E945F2A1F910F9180
:1057B000FF90DF90CF9008956EBD0DB407FEFDCF32
:1057C0008EB508958DE061E00E94FE348BE061E0CB
:1057D0000E94FE348CE060E00E94FE348AE061E0CA
:1057E0000E94FE341CBC80E58CBD8DB58EB508953D
:1057F0008DE896E00E94E22B08958FEF9FE70895D1
:10580000DF93CF93CDB7DEB7FE0139968D819E81B0
:1058100061E04F8158859F010E94A12ECF91DF91B9
:105820000895DF93CF93CDB7DEB7FE0139968D8112
:105830009E8160E04F8158859F010E94A12ECF91EB
:10584000DF9108950F931F93DC01ED91FC91028885
:10585000F389E02D20E030E000E010E009951F9191
:105860000F9108958F92AF92CF92EF92FF920F9384
:105870001F93DF93CF93CDB7DEB7FC011382128263
:1058800088EE93E0A0E0B0E084839583A683B7839D
:1058900089E394E0918380835587448737872687FF
:1058A000118B008BF38AE28AC48AA58A868A70E00B
:1058B000CB0123E0880F991F2A95E1F79C0122571D
:1058C000394F308F278B8A56994F928F818F81E085
:1058D00090E002C0880F991F6A95E2F720919E061A
:1058E000282B20939E06CF0140E051EE60E070E04F
:1058F0000E94222CCF91DF911F910F91FF90EF908A
:10590000CF90AF908F900895FC01838D882319F478
:105910002FEF3FEF0DC00788F08DE02D2081318102
:1059200082819381281B390B848195812823392317
:10593000C9010895FC01838D882319F42FEF3FEFEF
:1059400011C0018CF28DE02D208131818281938103
:10595000281B390B20953095848195812823392384
:105960002F5F3F4FC9010895FC01838D882361F0AB
:10597000A789B08D2D913C91119712968D919C9194
:1059800013972817390721F44FEF5FEFCA010895E5
:1059900012968D919C9113971696ED91FC91179705
:1059A000E80FF91F408112968D919C9113970196F3
:1059B00014962D913C9115978223932313969C93D3
:1059C0008E93129750E0E2CFFC01838D882351F033
:1059D0000788F08DE02D2081318182819381281705
:1059E000390721F42FEF3FEFC90108958281938198
:1059F0000680F781E02DE80FF91F8081282F30E025
:105A0000F3CFDC015796ED91FC91589782819381F9
:105A1000918380835996ED91FC915A978081918171
:105A2000938382830895DC015B968C915B97882336
:105A3000A9F15996ED91FC915A97208131812F5F00
:105A40003F4F84819581282339235C968C915C9704
:105A5000882329F08281938128173907F9F0828100
:105A6000938128173907D9F3808191810680F781C6
:105A7000E02DE80FF91F60835996ED91FC915A973C
:105A8000318320835296ED91FC91539780815696F5
:105A90009C91892B808321E030E002C020E030E03F
:105AA000C9010895CF93DF93EC011B821A828A818A
:105AB0009B81998388831D821C828E819F810097A0
:105AC00021F00E9466341F821E82DF91CF910895DB
:105AD0000F931F938C01DC015296ED91FC9153972B
