:100000000C9468010C9490010C9490010C94900154
:100010000C9490010C9490010C9490010C9490011C
:100020000C9490010C9490010C9490010C9490010C
:100030000C9490010C9490010C9490010C949001FC
:100040000C9413330C9490010C94DE020C941A035C
:100050000C9490010C9490010C9490010C949001DC
:100060000C9490010C949001084AD73B3BCE016E52
:1000700084BCBFFDC12F3D6C74319ABD56833DDAFF
:100080003D00C77F11BED9E4BB4C3E916BAAAABE0E
:10009000000000803F05A84CCDB2D44EB93836A937
:1000A000020C50B9918688083CA6AAAA2ABE000074
:1000B00000803F0664EC1B3C04BC163E3BE5B93CAB
:1000C000C93C37C29E5A3D660498083EEA69AAAA0E
:1000D0003E000000803F2020202020202020004ED5
:1000E0006F206D61762064617461210020202020E2
:1000F0002020202020202020207C202020202020A4
:10010000202020202020207CC620202020202020ED
:100110002020202020C57C202020202020202020DE
:10012000202020207C202020202020202020202073
:1001300020207C0013001400120011001820202041
:100140002020001820209091200016202020202020
:10015000004D696E696D4F53442D4578747261206E
:10016000322E347C506C616E65207238303600005F
:10017000407A10F35A00A0724E18090010A5D4E876
:100180000000E87648170000E40B54020000CA9A09
:100190003B000000E1F5050000809698000000405B
:1001A000420F000000A086010000001027000000A0
:1001B00000E803000000006400000000000A0000E6
:1001C0000000000100000000002C76D888DC674F9A
:1001D0000823DFC1DFAE59E1B1B796E5E3E453C6CA
:1001E0003AE651997696E8E6C28426EB898C9B62C2
:1001F000ED407C6FFCEFBC9C9F40F2BAA56FA5F46C
:1002000090055A2AF75C936B6CF9676DC11BFCE093
:10021000E40D47FEF520E6B500D0ED902E030094E6
:100220003577050080841E080000204E0A0000007B
:10023000C80C333333330F986E12831141EF8D2185
:1002400014893BE65516CFFEE6DB18D1844B381BEC
:10025000F77C1D901DA4BBE424203284725E2281B1
:1002600000C9F124ECA1E53D276E616E00696E6660
:100270000000000000240027002A000000000025E4
:100280000028002B000000000023002600290004A5
:10029000040404040404040202020202020303032D
:1002A0000303030102040810204080010204081027
:1002B00020010204081020000000070002010000D5
:1002C0000304060000000000000000006803362C54
:1002D00011241FBECFEFD8E0DEBFCDBF14E0A0E0F9
:1002E000B1E0E2E7F4E702C005900D92AE34B10749
:1002F000D9F716E0AEE4B4E001C01D92A43AB1070C
:10030000E1F712E0C0EDD2E004C02297FE010E94A6
:10031000333ACC3CD107C9F70E94D0350C94373A18
:100320000C940000283008F027E03327DA01990FF9
:10033000311D87FD916000966105710539F43260C9
:100340002E5F3D9330E32A95E1F708959F3F30F00B
:1003500080387105610509F03C5F3C5F3D93913049
:1003600008F08068911DDF93CF931F930F93FF9246
:10037000EF92192F987F9695E92F96959695E90F0C
:10038000FF27E753FE4F99273327EE24FF24A701C9
:10039000E70105900894079428F4360FE71EF81E2D
:1003A000491F511D660F771F881F991F0694A1F7DB
:1003B0000590079428F4E70EF81E491F561FC11D2B
:1003C000770F881F991F661F0694A1F70590079461
:1003D00028F4F80E491F561FC71FD11D880F991FFB
:1003E000661F771F0694A1F70590079420F4490F24
:1003F000561FC71FD81F990F661F771F881F0694A7
:10040000A9F784911095177041F0D695C795579527
:100410004795F794E7941A95C1F7EFE6F1E06894F1
:100420001590159135916591959105907FE27395A1
:10043000E118F10A430B560BC90BD009C0F7E10CC8
:10044000F11E431F561FC91FD01D7EF4703311F4D7
:100450008A95E6CFE894015030F0080F0AF400279F
:10046000021708F4202F2395022F7A3328F079E31E
:100470007D932A95E9F710C07D932A9589F6069415
:1004800097956795379517951794E118F10A430BDF
:10049000560BC90BD00998F023957E9173957A334A
:1004A00008F070E37C932013B8F77E9170617D9320
:1004B00030F0839571E37D9370E32A95E1F7112481
:1004C000EF90FF900F911F91CF91DF91992787FDBA
:1004D00090950895FA01AA27283051F1203181F131
:1004E000E8946F936E7F6E5F7F4F8F4F9F4FAF4F3C
:1004F000B1E03ED0B4E03CD0670F781F891F9A1F4F
:10050000A11D680F791F8A1F911DA11D6A0F711D02
:10051000811D911DA11D20D009F468943F912AE00E
:10052000269F11243019305D3193DEF6CF010895F6
:10053000462F4770405D4193B3E00FD0C9F7F6CF27
:10054000462F4F70405D4A3318F0495D31FD4052EF
:10055000419302D0A9F7EACFB4E0A6959795879585
:1005600077956795BA95C9F7009761057105089564
:100570009B01AC010A2E0694579547953795279510
:10058000BA95C9F7620F731F841F951FA01D0895A8
:10059000FC010590615070400110D8F7809590954E
:1005A0008E0F9F1F0895FC01615070400190011053
:1005B000D8F7809590958E0F9F1F08951F920F92E8
:1005C0000FB60F9211242F933F934F938F939F93C6
:1005D000EF93FF934091C6002091830630918406EB
:1005E0002F5F3F4F809187069091880628233923FB
:1005F00080918506909186062817390779F08091B9
:10060000830690918406E0918906F0918A06E80FAE
:10061000F91F40833093840620938306FF91EF9166
:100620009F918F914F913F912F910F900FBE0F90FF
:100630001F9018951F920F920FB60F9211242F93AF
:100640003F938F939F93EF93FF9320918D0630916B
:100650008E0680918B0690918C0628173907E9F059
:1006600080918D0690918E06E0919106F091920610
:10067000E80FF91F80818093C60080918D069091CC
:100680008E06019620918F06309190068223932347
:1006900090938E0680938D0610C020918B0630912A
:1006A0008C0680918D0690918E062817390729F4C3
:1006B0008091C1008F7D8093C100FF91EF919F9148
:1006C0008F913F912F910F900FBE0F901F90189513
:1006D0008F92AF92CF92EF92FF920F931F9380ED84
:1006E00094E060E045EC50E024EC30E000EC10E0F9
:1006F000F1ECEF2EF12CCC24C394E8E9AE2E70E29D
:10070000872E0E94702C8DEE94E00E946E2A1F911D
:100710000F91FF90EF90CF90AF908F9008958091C0
:10072000FF048130C1F40E945B3368517C4F8F4FCE
:100730009F4F60930005709301058093020590938D
:1007400003051092FF0490E080910405882309F4CA
:1007500091E0909304050E945B3320910005309155
:1007600001054091020550910305261737074807F8
:10077000590718F481E08093FF040895EF92FF92E7
:100780000F931F9320918E05253029F480918F05BA
:100790009091900514C0263029F480919105909194
:1007A00092050DC0273029F480919305909194050E
:1007B00006C0283041F4809195059091960590935C
:1007C0006F0580936E058091EA02882361F4909111
:1007D0006D0580919705891719F081E08093980540
:1007E00090939705BDC02430C9F590912505892FB8
:1007F0008650823008F4B4C0809199058917A1F021
:10080000909399050E945B3360939A0570939B05C2
:1008100080939C0590939D05909199058091EB02A2
:10082000981711F411E001C010E00E945B33209191
:100830009A0530919B0540919C0550919D05621B46
:10084000730B840B950B615D77408040904008F4FA
:1008500079C0809125058093EB0274C080919E053C
:1008600020916E0530916F05882351F584E0213D7C
:10087000380740F480919705882321F081E0809328
:1008800098056CC0C901815D94408B3E910540F490
:1008900080919705813021F081E0809398050DC00B
:1008A0002C5B354008F45CC080919705823009F4D8
:1008B00057C081E08093980582E08093970550C0EF
:1008C000A4E0213D3A0710F481E006C02B5B3540DF
:1008D00010F482E001C083E080939F058091A00521
:1008E000882321F480919F058093A0059091A00515
:1008F00080919F059817A1F1E0909A05F0909B05D3
:1009000000919C0510919D0580ED97E0A0E0B0E07E
:10091000E80EF91E0A1F1B1F0E945B33E616F7063E
:1009200008071907E8F40E945B3360939A057093F7
:100930009B0580939C0590939D0580919F058093D6
:10094000A00502C0112361F081E080939805809199
:1009500097058F5F80939705833010F0109297056D
:100960001F910F91FF90EF900895AF92BF92CF9299
:10097000DF92EF92FF920F931F938091640588237B
:1009800099F5609174057091750580917605909147
:10099000770520E030E040EA50E40E949C381816C9
:1009A0001CF580915E058B30F8F081E08093640542
:1009B00080E090E0A0E0B0E08093BB059093BC05A0
:1009C000A093BD05B093BE050E945B3328EE33E0D3
:1009D00040E050E00E94F4392093550530935605CD
:1009E0004093570550935805A0907005B09071053D
:1009F000C0907205D0907305C601B50120E030E0CB
:100A000040E85FE30E949C38181694F5E090BB051F
:100A1000F090BC050091BD051091BE050E945B33AE
:100A200020917406309175064091760650917706B4
:100A3000621B730B840B950B0E9472379B01AC01F8
:100A4000C601B5010E94A73820E030E04AE754E42F
:100A50000E94D9369B01AC01C801B7010E940C3637
:100A60006093BB057093BC058093BD059093BE0554
:100A7000A0905A05B0905B05C0905C05D0905D05D4
:100A80006091840570918505882777FD8095982F62
:100A90000E94743720E030E040E251E40E94A73821
:100AA0007B018C010E945B332091740630917506A6
:100AB0004091760650917706621B730B840B950B61
:100AC0000E9472379B01AC01C801B7010E94A73890
:100AD00020E03AEB4BE55AE40E94D9369B01AC0189
:100AE000C601B5010E940C3660935A0570935B05F0
:100AF00080935C0590935D050E945B336093740660
:100B000070937506809376069093770680916405BE
:100B1000813009F098C06091510570915205809123
:100B20005305909154050E9474377B018C012091EC
:100B3000C9053091CA054091CB055091CC050E9462
:100B40009C38181644F4E092C905F092CA05009347
:100B5000CB051093CC05E0905F05F0906005009107
:100B6000610510916205C801B7012091CD05309152
:100B7000CE054091CF055091D0050E949C381816A3
:100B800044F4E092CD05F092CE050093CF0510938A
:100B9000D005E0907005F0907105009172051091FC
:100BA0007305C801B7012091D1053091D20540915C
:100BB000D3055091D4050E949C38181644F4E09255
:100BC000D105F092D2050093D3051093D405E0909F
:100BD0007405F09075050091760510917705C801B0
:100BE000B7012091D5053091D6054091D705509198
:100BF000D8050E949C38181644F4E092D505F0926E
:100C0000D6050093D7051093D805E0901B05F0900A
:100C10001C0500911D0510911E05C801B70120910A
:100C2000D9053091DA054091DB055091DC050E9431
:100C30009C38181644F4E092D905F092DA05009336
:100C4000DB051093DC051F910F91FF90EF90DF9073
:100C5000CF90BF90AF90089584E996E06AE773E083
:100C60000E9400338823B1F586E696E6A6E6B0E456
:100C70008093050590930605A0930705B09308059A
:100C800080E090E0A0E8BFE38093090590930A0517
:100C9000A0930B05B0930C0580E180930D058CE0CB
:100CA00080930E058AEB90E09093100580930F05DA
:100CB0008AE08093E30210921205109211058BE1F5
:100CC0008093130588EE93E09093150580931405A7
:100CD0008AE137C082E598EBAEE0B0E48093050589
:100CE00090930605A0930705B093080585E89BEE51
:100CF000A1E5B0E48093090590930A05A0930B0544
:100D0000B0930C0589E180930D0586E680930E056E
:100D10008BEB90E09093100580930F0582E1809318
:100D2000E30280E09DE790931205809311058CE12A
:100D30008093130580EA94E1909315058093140540
:100D40008EE1809316050895CF93DF9384E996E0B2
:100D50006CE773E00E9400338093650584E996E0B8
:100D60006EE773E00E9400338093630584E996E0A8
:100D700060E873E00E9400338093660584E996E0A2
:100D80006EE873E00E94003380939E0584E996E04C
:100D900066E773E00E94003380936D0584E996E076
:100DA0006AE873E00E94003380938E0584E996E040
:100DB00064E873E00E9400338093B10584E996E013
:100DC00066E873E00E9400338093B00584E996E002
:100DD0006CE873E00E9400338093690584E996E033
:100DE00062E973E00E9400338093670584E996E02E
:100DF00064E973E00E94003380936805C0E0D0E0AE
:100E0000BE0168567C4F84E996E00E940033FE01E3
:100E1000EA55FA4F8083882321F02196C830D10506
:100E200079F7CA55DA4F1982DF91CF910895BC0145
:100E300084E996E00E94003308956091290570913D
:100E40002A0580912B0590912C0520E030E040ECA4
:100E500051E40E94A73820E030E044EB53E40E94C4
:100E6000D9360E940A390E9441379B0123503040F5
:100E700037FF03C09B012B5E3F4FA5E3B5E0F901AF
:100E8000E050FC4F80818C932F5F3F4F283131051C
:100E900014F020E030E0119685E0A034B80779F72F
:100EA00010923C0508952F923F924F925F926F925D
:100EB0007F928F929F92AF92BF92CF92DF92EF92EA
:100EC000FF920F931F93DF93CF9300D000D000D0F9
:100ED000CDB7DEB7182F662E209117053091180573
:100EE0002A35310530F0C9018D549F4F8935910560
:100EF000E8F437FF02C02D543F4FC90137FF03C04C
:100F0000909581959F4F8A3191053CF0B9ED8B2EDC
:100F1000912CA8EF2A2E312C1DC00A975CF1F0ED20
:100F20008F2E912CE3EF2E2E312C20C02B35310546
:100F300014F0235B3040C90137FF03C090958195C1
:100F40009F4F8A31910554F07BEE872E912C6BEFE9
:100F5000262E312C57E0A52EB12C15C00A9754F03F
:100F600042EE842E912C35EF232E312C28E0A22E38
:100F7000B12C09C096EC892E912C8DEC282E312CA9
:100F800009E0A02EB12C6091190570911A058827EF
:100F900077FD8095982F0E94743727EA32E94BE25B
:100FA0005CEB0E94A7380E947B3920E030E040EAE9
:100FB00050E40E94A73820E030E040E951E40E946C
:100FC000A7380E940A3920E030E044E352E40E944E
:100FD0000C360E944137712EBEEBCB2EBFEFDB2EBD
:100FE0009B01442737FD4095542F29833A834B8337
:100FF0005C83ADEE4A2EA4E05A2E4AEF5FEF240E3A
:10100000351E6091170570911805882777FD80952A
:10101000982F0E94743725E33AEF4EE85CE30E9474
:10102000A7380E947B397B018C01B601882777FDA8
:101030008095982F0E9474379B01AC01C801B701BD
:101040000E94A7387B018C0169817A818B819C8108
:101050000E9474379B01AC01C801B7010E940C3695
:101060000E9441379B01CB0101978A35910508F019
:1010700071C062E170E00E94E1398B012F5F3F4F48
:10108000AEEEBFEF6A9FC0016B9F900D7A9F900DEF
:101090001124820F931F62E070E00E94E1396D839A
:1010A0007E83E62CE01A4E2D4C5F8DEE94E0672D8A
:1010B0000E94C22A00D000D000D0EDB7FEB7319612
:1010C000ADB7BEB712965C924E92119720E031E018
:1010D000338322838D819E81880D991D958384831E
:1010E0000E944F2C4DB75EB74A5F5F4F0FB6F89422
:1010F0005EBF0FBE4DBF8D819E818A159B0554F149
:10110000043011053CF593E0E90EC201672D4E2D28
:101110000E94C22A00D000D000D0EDB7FEB73196B1
:10112000ADB7BEB712965C924E92119720E031E0B7
:10113000338322834D815E81420D531D5583448349
:101140000E944F2C8DB79EB706960FB6F8949EBF9F
:101150000FBE8DBFACE0B0E0CA0EDB1E7394BEE4E0
:10116000CB16D10409F04DCF26960FB6F894DEBF0A
:101170000FBECDBFCF91DF911F910F91FF90EF90E8
:10118000DF90CF90BF90AF909F908F907F906F90A7
:101190005F904F903F902F9008959F92AF92BF9293
:1011A000CF92DF92EF92FF920F931F93882309F45F
:1011B00081E0880F8257613009F06FC0A09005056B
:1011C000B0900605C0900705D0900805E82EFF24D2
:1011D000E7FCF09490900D054DB75EB74651504036
:1011E0000FB6F8945EBF0FBE4DBF0DB71EB70F5FB1
:1011F0001F4F8DEE94E0ADB7BEB712969C938E93C1
:10120000119783E091E0F801938382838DE190E070
:1012100095838483C601B50120911B0530911C057F
:1012200040911D0550911E050E94A738D8011696C1
:101230006D937D938D939C9319971A969C921A9710
:101240001B961C921B971D96FC92EE921C9708947D
:10125000E11CF11C1F96FC92EE921E97C601B5018F
:1012600020911F05309120054091210550912205C4
:101270000E94A738F801608B718B828B938B948AC4
:10128000158A0E944F2C4DB75EB74A5E5F4F0FB66E
:10129000F8945EBF0FBE4DBF57C0282F332727FDE0
:1012A00030958DEE94E0623049F5ADB7BEB71C972E
:1012B0000FB6F894BEBF0FBEADBFEDB7FEB7319607
:1012C00012969C938E93119789E191E09383828388
:1012D000358324832F5F3F4F3783268380912305F7
:1012E000909124059187808785E090E0938782879D
:1012F0000E944F2CEDB7FEB73C9621C04DB75EB7AC
:10130000485050400FB6F8945EBF0FBE4DBFEDB7CA
:10131000FEB73196ADB7BEB712969C938E931197D8
:1013200083E291E093838283358324832F5F3F4F51
:10133000378326830E944F2CEDB7FEB738960FB641
:10134000F894FEBF0FBEEDBF1F910F91FF90EF907D
:10135000DF90CF90BF90AF909F9008950F931F9311
:10136000282F462F8DEE94E0622F0E948D2A8DEE5D
:1013700094E00E94032B80912505882319F428E22C
:1013800031E038C0813019F42DE231E033C08230D1
:1013900019F422E331E02EC027E331E0833019F461
:1013A00028E331E027C0843019F42DE331E022C076
:1013B000853019F422E431E01DC0863019F427E4A9
:1013C00031E018C0873019F42CE431E013C08A30C2
:1013D00019F421E531E00EC08B3019F426E531E037
:1013E00009C08C3019F42BE531E004C08F3011F4C2
:1013F00020E631E000D000D000D0EDB7FEB7319646
:101400000DEE14E0ADB7BEB712961C930E93119774
:1014100085E691E093838283358324830E944F2C59
:101420008DB79EB706960FB6F8949EBF0FBE8DBFC0
:10143000C8010E94E72A1F910F9108950F931F93EF
:10144000282F462F0DEE14E0C801622F0E948D2A2E
:10145000C8010E94032B8091260560E00E94CD0800
:10146000C8010E94E72A1F910F9108950F931F93BF
:10147000282F462F0DEE14E0C801622F0E948D2AFE
:10148000C8010E94032B8DB79EB70A970FB6F89438
:101490009EBF0FBE8DBFEDB7FEB73196ADB7BEB7DD
:1014A00012961C930E93119788E691E093838283A2
:1014B00083EC90E09583848385E395E0978386832E
:1014C00087E890E0918780870E944F2C8DB79EB768
:1014D0000A960FB6F8949EBF0FBE8DBFC8010E943A
:1014E000E72A1F910F9108950F931F93282F462FDE
:1014F0000DEE14E0C801622F0E948D2AC8010E94DF
:10150000032B8DB79EB70A970FB6F8949EBF0FBEF8
:101510008DBFEDB7FEB73196ADB7BEB712961C932F
:101520000E9311978FE691E0938382838091290532
:1015300090912A05A0912B05B0912C058483958369
:10154000A683B78385E090E0918780870E944F2C27
:101550008DB79EB70A960FB6F8949EBF0FBE8DBF8B
:10156000C8010E94E72A1F910F9108950F931F93BE
:10157000282F462F0DEE14E0C801622F0E948D2AFD
:10158000C8010E94032B8DB79EB70C970FB6F89435
:101590009EBF0FBE8DBFEDB7FEB73196ADB7BEB7DC
:1015A00012961C930E93119787E791E093838283A1
:1015B0008091410590914205A0914305B091440569
:1015C00084839583A683B7838091450590914605D2
:1015D000A0914705B091480580879187A287B3877E
:1015E0000E944F2C8DB79EB70C960FB6F8949EBFF5
:1015F0000FBE8DBFC8010E94E72A1F910F91089569
:101600000F931F93282F462F8DEE94E0622F0E9498
:101610008D2A8DEE94E00E94032B80914905823043
:1016200011F42FE105C0833011F42FE001C02AE24C
:1016300080914A0590914B05883C910520F080915E
:101640000405811120E28DB79EB708970FB6F89474
:101650009EBF0FBE8DBFEDB7FEB731960DEE14E005
:10166000ADB7BEB712961C930E93119785E891E023
:10167000938382832483158280914C05868317820D
:101680000E944F2C8DB79EB708960FB6F8949EBF58
:101690000FBE8DBFC8010E94E72A1F910F910895C8
:1016A0000F931F93282F462F0DEE14E0C801622FD1
:1016B0000E948D2AC8010E94032B8DB79EB70A97FE
:1016C0000FB6F8949EBF0FBE8DBFEDB7FEB7319633
:1016D000ADB7BEB712961C930E9311978BE891E0AD
:1016E0009383828380914D0590914E05A0914F0583
:1016F000B091500584839583A683B7838DE090E0F5
:10170000918780870E944F2C8DB79EB70A960FB69F
:10171000F8949EBF0FBE8DBFC8010E94E72A1F919B
:101720000F9108950F931F93282F462F0DEE14E06D
:10173000C801622F0E948D2AC8010E94032B8DB719
:101740009EB70A970FB6F8949EBF0FBE8DBFEDB738
:10175000FEB73196ADB7BEB712961C930E93119794
:1017600083E991E093838283809117059091180516
:101770009583848385E090E09783868386E090E07C
:10178000918780870E944F2C8DB79EB70A960FB61F
:10179000F8949EBF0FBE8DBFC8010E94E72A1F911B
:1017A0000F9108950F931F93282F462F0DEE14E0ED
:1017B000C801622F0E948D2AC8010E94032B8DB799
:1017C0009EB70A970FB6F8949EBF0FBE8DBFEDB7B8
:1017D000FEB73196ADB7BEB712961C930E93119714
:1017E00083E991E0938382838091190590911A0592
:1017F0009583848385E090E09783868387E090E0FB
:10180000918780870E944F2C8DB79EB70A960FB69E
:10181000F8949EBF0FBE8DBFC8010E94E72A1F919A
:101820000F910895CF92DF92EF92FF920F931F9343
:10183000CF93DF93282F462FCDEED4E0CE01622F39
:101840000E948D2ACE010E94032B60915105709158
:10185000520580915305909154050E947437209150
:10186000090530910A0540910B0550910C050E9425
:10187000A7386B017C0120E03CE34CE156E40E9478
:101880009C381816C4F58DB79EB70C970FB6F89410
:101890009EBF0FBE8DBF0DB71EB70F5F1F4FADB7F9
:1018A000BEB71296DC93CE9311978BE991E0F801C5
:1018B000938382838BE090E0958384836091140509
:1018C0007091150580E090E00E9472379B01AC0199
:1018D000C701B6010E94D936D80116966D937D9343
:1018E0008D939C931997809113051A968C931A9750
:1018F0001B961C9221C08DB79EB70C970FB6F8941B
:101900009EBF0FBE8DBFEDB7FEB73196ADB7BEB768
:101910001296DC93CE93119785EA91E093838283AC
:101920008BE090E095838483C682D782E086F1863F
:1019300080910E05828713860E944F2CEDB7FEB76B
:101940003C960FB6F894FEBF0FBEEDBF8DEE94E04F
:101950000E94E72ADF91CF911F910F91FF90EF90A6
:10196000DF90CF900895EF92FF920F931F93282F4F
:10197000462F1DEEE12E14E0F12EC701622F0E94CA
:101980008D2AC7010E94032B0E945B3328EE33E0AF
:1019900040E050E00E94F439809155059091560541
:1019A000A0915705B0915805281B390B4A0B5B0BCA
:1019B000CA01B9010E9472376093E4027093E50294
:1019C0008093E6029093E7020E9441378B019C01CD
:1019D0008DB79EB70A970FB6F8949EBF0FBE8DBF06
:1019E000EDB7FEB73196ADB7BEB71296FC92EE9248
:1019F00011978FEA91E093838283C8016CE370E0D2
:101A00000E94E139758364838AE390E0978386833B
:101A1000C8016CE370E00E94E139918780870E94E1
:101A20004F2C8DB79EB70A960FB6F8949EBF0FBE87
:101A30008DBFC7010E94E72A1F910F91FF90EF9081
:101A40000895CF93DF93282F462FCDEED4E0CE011B
:101A5000622F0E948D2ACE010E94032B84E996E01A
:101A600068E773E00E940033813051F58DB79EB76F
:101A70000A970FB6F8949EBF0FBE8DBFEDB7FEB7A5
:101A80003196ADB7BEB71296DC93CE93119789EB22
:101A900091E09383828387E190E0958384838091B2
:101AA0005905992787FD90959783868385E290E075
:101AB000918780870E944F2C8DB79EB70A962CC0C5
:101AC000ADB7BEB71C970FB6F894BEBF0FBEADBF83
:101AD000EDB7FEB731961296DC93CE93119783EC57
:101AE00091E09383828387E190E095838483809162
:101AF0005A0590915B05A0915C05B0915D058683C8
:101B00009783A087B18781E090E0938782870E94C6
:101B10004F2C8DB79EB70C960FB6F8949EBF0FBE94
:101B20008DBF8DEE94E00E94E72ADF91CF9108955A
:101B30000F931F93282F462F0DEE14E0C801622F3C
:101B40000E948D2AC8010E94032B8DB79EB708976B
:101B50000FB6F8949EBF0FBE8DBFEDB7FEB731969E
:101B6000ADB7BEB712961C930E9311978DEC91E012
:101B70009383828380915E058483158285E290E061
:101B8000978386830E944F2C8DB79EB708960FB619
:101B9000F8949EBF0FBE8DBFC8010E94E72A1F9117
:101BA0000F910895BF92CF92DF92EF92FF920F9321
:101BB0001F93282F462F8DEE94E0622F0E948D2ACE
:101BC0008DEE94E00E94032B8091FF04813009F098
:101BD0003AC180914905823028F4DD24D394BB2496
:101BE000B39402C0DD24BB2460915F057091600551
:101BF000809161059091620520910505309106055F
:101C000040910705509108050E94A7387B018C017F
:101C10006091630570E0882777FD8095982F0E947A
:101C200074379B01AC01C801B7010E94D2368823EA
:101C30004CF480916405813029F4CC24C394DD24D4
:101C4000D39401C0CC246091650570E080E090E001
:101C50000E9472379B01AC01C801B7010E949C38F9
:101C6000181624F411E0DD24D39401C010E0609133
:101C7000660570E080E090E00E94723720E030E07E
:101C800040E251E40E94D9369B01AC0160914D05C0
:101C900070914E0580914F05909150050E94D2366B
:101CA00087FD10C04091670580915905992787FDF0
:101CB0009095242F30E08217930714F4442311F4F5
:101CC00040E003C041E0DD24D3942091E80230914C
:101CD000E9028091680590E0281739075CF42D59D6
:101CE0003F4F41F080916905882321F431E0DD24E4
:101CF000D39401C030E080916A058823C9F4DD20C7
:101D000069F08B2D90E001968C0D911D810F911D36
:101D1000840F911D830F911D029739F485ED91E099
:101D200090936C0580936B0503C081E080936A05F6
:101D300080916A05813069F491E0B91639F482EE38
:101D400091E090936C0580936B0503C082E08093D3
:101D50006A0580916A05823069F4A1E0CA1639F4F7
:101D60008FEE91E090936C0580936B0503C083E048
:101D700080936A0580916A05833061F4113039F4EB
:101D80008CEF91E090936C0580936B0503C084E029
:101D900080936A0580916A05843061F4413039F49A
:101DA00089E092E090936C0580936B0503C085E019
:101DB00080936A0520916A05253041F4313031F471
:101DC00086E192E090936C0580936B052F5F2093E2
:101DD0006A05B1E0DB1639F480916D05833018F4A3
:101DE0001092EA020AC080916E0590916F05805BA7
:101DF000944018F481E08093EA02263010F01092AB
:101E00006A0500D000D000D0EDB7FEB731968DEE58
:101E100094E0ADB7BEB712969C938E93119785E66A
:101E200091E09383828380916B0590916C059583FB
:101E300084830E944F2C8DB79EB706960FB6F894F8
:101E40009EBF0FBE8DBF8DEE94E00E94E72A1F91CA
:101E50000F91FF90EF90DF90CF90BF900895CF92B9
:101E6000DF92EF92FF920F931F93282F462F0DEED4
:101E7000C02E04E0D02EC601622F0E948D2AC6011A
:101E80000E94032B609178057091790580917A0505
:101E900090917B052091090530910A0540910B0531
:101EA00050910C050E94A73820E030E040E752E452
:101EB0000E94A7382DEC3CEC4CEC5DE30E94A73867
:101EC0007B018C0160917C0570917D0580917E0580
:101ED00090917F0526E636E646E65FE30E94A73846
:101EE0009B01AC01C801B7010E940C3660937C05D0
:101EF00070937D0580937E0590937F052DB73EB747
:101F00002E5030400FB6F8943EBF0FBE2DBF0DB718
:101F10001EB70F5F1F4FEDB7FEB7D282C18223E21B
:101F200032E0F8013383228325E130E035832483D6
:101F300020E030E040E251E40E94D9360E9441376F
:101F4000882777FD8095982F0E94743720E030E035
:101F500040E251E40E94A738F801668377838087C6
:101F60009187809116058287138680E290E095879D
:101F700084870E944F2C2DB73EB7225F3F4F0FB68C
:101F8000F8943EBF0FBE2DBFC6010E94E72A1F91E5
:101F90000F91FF90EF90DF90CF900895EF92FF9216
:101FA0000F931F93282F462F8DEEE82E84E0F82EF6
:101FB000C701622F0E948D2AC7010E94032B8DB793
:101FC0009EB70A970FB6F8949EBF0FBE8DBF0DB790
:101FD0001EB70F5F1F4FEDB7FEB7F282E1828BE8AD
:101FE00091E0F80193838283609184057091850567
:101FF000882777FD8095982F0E9474372AE037ED67
:1020000043E25CE30E94A738F8016483758386830A
:1020100097838EE090E0918780870E944F2C8DB748
:102020009EB70A960FB6F8949EBF0FBE8DBFC7012C
:102030000E94E72A1F910F91FF90EF900895CF9291
:10204000DF92EF92FF920F931F93282F462F3DEEC2
:10205000E32E34E0F32EC701622F0E948D2AC701C0
:102060000E94032B8DB79EB748970FB6F8949EBF7A
:102070000FBE8DBF0DB71EB70F5F1F4FEDB7FEB779
:10208000F282E1828FE292E0F8019383828380EB17
:1020900090E0958384836091860570918705809197
:1020A0008805909189052091090530910A05409194
:1020B0000B0550910C050E94A7389058F8016683D3
:1020C00077838087918780910E058287138690E2BF
:1020D000C92ED12CD586C48681EB90E09787868760
:1020E00060918A0570918B0580918C0590918D058A
:1020F00020E030E048EC52E40E94D93620910505FA
:102100003091060540910705509108050E94A738B7
:10211000F801608B718B828B938B80910D05848B82
:10212000158AD78AC68A0E944F2C8DB79EB74896CB
:102130000FB6F8949EBF0FBE8DBFC7010E94E72A5D
:102140001F910F91FF90EF90DF90CF900895EF9245
:10215000FF920F931F93282F462F8DEE94E0622F4E
:102160000E948D2A8DEE94E00E94032BE090A10541
:10217000F090A2050091A3051091A405C801B70134
:1021800020E030E040E050E00E94D23688234CF45A
:10219000C801B70120E030E044EB53E40E940C3664
:1021A00002C0C801B7012091290530912A0540914C
:1021B0002B0550912C050E940B3620E030E044EBBB
:1021C00053E40E94D93620E030E040E851E40E9418
:1021D000A7380E940A3920E030E040E151E40E9433
:1021E0000C360E9441376093A5058091A505813189
:1021F00014F0805103C018161CF0805F8093A50571
:1022000060911B0570911C0580911D0590911E0524
:102210002AE037ED43E25CE30E94A7387B018C01A2
:1022200060911F05709120058091210590912205F4
:1022300024EA30E74DE75FE30E94A7389B01AC0139
:10224000C801B7010E940C3660931F0570932005EA
:1022500080932105909322058091A50561E00E945D
:10226000CD088DEE94E00E94E72A1F910F91FF9018
:10227000EF900895CF93DF93282F462FCDEED4E033
:10228000CE01622F0E948D2ACE010E94032B0E9454
:102290005B3328EE33E040E050E00E94F439CA019D
:1022A000B9012CE330E040E050E00E94F43925E62B
:1022B00031E0623071058105910588F400D000D0CD
:1022C00000D0EDB7FEB73196ADB7BEB71296DC932E
:1022D000CE9311973383228386EA95E010C000D015
:1022E00000D000D0EDB7FEB73196ADB7BEB71296AD
:1022F000DC93CE931197338322838CEE92E0958307
:1023000084830E944F2C8DB79EB706960FB6F89423
:102310009EBF0FBE8DBF8DEE94E00E94E72ADF9135
:10232000CF910895BF92CF92DF92EF92FF920F93D9
:102330001F93282F462F8DEE94E0622F0E948D2A46
:102340008DEE94E00E94032B9091690590FD4FC0A3
:10235000C090B0058091AF058C1510F4C092AF0508
:10236000B090B1058091AF05B81610F4B092AF05EA
:10237000992369F4DD246091AF0570E06C197D0943
:10238000882777FD8095982F0E94743711C0983068
:1023900071F580919505909196056AE070E00E9434
:1023A000CD39DD246C197D0980E090E00E94723700
:1023B0007B018C016B2D70E06C197D09882777FDFE
:1023C0008095982F0E9474379B01AC01C801B7011A
:1023D0000E94D93620E030E048EC52E40E94A73851
:1023E0000E9441377093E9026093E80213C0913074
:1023F00039F48091AF058093E8021092E9020AC097
:10240000993041F480919505909196059093E90259
:102410008093E8026091E8027091E902882777FDD5
:102420008095982F0E94743720E030E048EC52E409
:102430000E949C38181634F484E690E09093E902E8
:102440008093E8028DB79EB70A970FB6F8949EBFA7
:102450000FBE8DBFEDB7FEB731960DEE14E0ADB7F0
:10246000BEB712961C930E93119787E492E0938364
:10247000828389E090E0958384838091E802909143
:10248000E9029783868385E290E0918780870E94A6
:102490004F2C8DB79EB70A960FB6F8949EBF0FBE0D
:1024A0008DBFC8010E94E72A1F910F91FF90EF9006
:1024B000DF90CF90BF900895EF92FF920F931F93FC
:1024C000282F462F5DEEE52E54E0F52EC701622F32
:1024D0000E948D2AC7010E94032B8DB79EB70A97D1
:1024E0000FB6F8949EBF0FBE8DBF0DB71EB70F5F1E
:1024F0001F4FEDB7FEB7F282E1828FE492E0F80160
:10250000938382838091E30290E02091C70530910C
:10251000C805829FB001839F700D929F700D11249A
:102520002091110530911205620F731F80E090E039
:102530000E94723720E030E04AE754E40E94D93626
:10254000F801648375838683978380910F0590914A
:102550001005918780870E944F2C8DB79EB70A96F1
:102560000FB6F8949EBF0FBE8DBFC7010E94E72A29
:102570001F910F91FF90EF9008952F923F924F92ED
:102580005F926F927F928F929F92AF92BF92CF9203
:10259000DF92EF92FF920F931F93DF93CF9300D0C0
:1025A000CDB7DEB76DEE262E64E0362EC1016BE0AE
:1025B00043E00E948D2AC1010E94032BC090E402D7
:1025C000D090E502E090E602F090E70280900905E5
:1025D00090900A05A0900B05B0900C054090050561
:1025E00050900605609007057090080580910E05D3
:1025F000898390910D059A83EDB7FEB7E854F040BA
:102600000FB6F894FEBF0FBEEDBF0DB71EB70F5F3C
:102610001F4F3282218287E592E0F8019383828303
:1026200088E090E095838483C701B60120E030E024
:1026300040E752E40E94D9360E944137F80177837F
:1026400066838AE390E091878087C701B6010E9484
:102650004137DC01CB016CE370E00E94E139F80105
:10266000938782878BE090E095878487C501B401CA
:102670002091C9053091CA054091CB055091CC05F8
:102680000E94A738F80166877787808B918B8981B4
:10269000828B138A8FE890E0958B848BC501B401FF
:1026A0002091BB053091BC054091BD055091BE0500
:1026B0000E94A738F801668B778B808F918F898174
:1026C000828F138E83E190E0958F848FC301B201D6
:1026D0002091CD053091CE054091CF055091D00588
:1026E0000E94A7380E944137F801778F668F8A8150
:1026F00080A311A284E190E093A382A3C301B2015D
:102700002091D1053091D2054091D3055091D40547
:102710000E94A7380E944137F80175A364A38A81FB
:1027200086A317A282E190E091A780A7C501B4011A
:102730002091D5053091D6054091D7055091D80507
:102740000E94A7380E944137F80173A762A78981C8
:1027500084A715A68DE190E097A786A7C301B201D3
:102760002091D9053091DA054091DB055091DC05C7
:102770000E94A7380E944137F80171AB60AB8A8193
:1027800082AB13AA87E190E095AB84AB80915A05A8
:1027900090915B05A0915C05B0915D0586AB97AB10
:1027A000A0AFB1AF81E090E093AF82AF83E090E063
:1027B00095AF84AF025C1F4F809141059091420517
:1027C000A0914305B0914405F80181939193A193A1
:1027D000B19384E090E0819391938091450590912D
:1027E0004605A0914705B091480580839183A28357
:1027F000B3830E944F2C8DB79EB7885B9F4F0FB657
:10280000F8949EBF0FBE8DBFC1010E94E72A0F90B2
:102810000F90CF91DF911F910F91FF90EF90DF907C
:10282000CF90BF90AF909F908F907F906F905F9070
:102830004F903F902F900895CF92DF92EF92FF92AA
:102840000F931F93CF93DF93282F462FCDEED4E025
:10285000CE01622F0E948D2ACE010E94032B60912F
:10286000BB057091BC058091BD059091BE0520917E
:10287000090530910A0540910B0550910C050E9405
:10288000A7386B017C0120E03CE34CE156E40E9458
:102890009C381816C4F58DB79EB70C970FB6F894F0
:1028A0009EBF0FBE8DBF0DB71EB70F5F1F4FADB7D9
:1028B000BEB71296DC93CE9311978BE991E0F801A5
:1028C000938382838FE890E09583848360911405DD
:1028D0007091150580E090E00E9472379B01AC0179
:1028E000C701B6010E94D936D80116966D937D9323
:1028F0008D939C931997809113051A968C931A9730
:102900001B961C9221C08DB79EB70C970FB6F894FA
:102910009EBF0FBE8DBFEDB7FEB73196ADB7BEB748
:102920001296DC93CE93119785EA91E0938382838C
:102930008FE890E095838483C682D782E086F18613
:1029400080910E05828713860E944F2CEDB7FEB74B
:102950003C960FB6F894FEBF0FBEEDBF8DEE94E02F
:102960000E94E72ADF91CF911F910F91FF90EF9086
:10297000DF90CF900895EF92FF920F931F93282F2F
:10298000462F8DEE94E0622F0E948D2A8DEE94E00A
:102990000E94032B8091DD059091DE0564E670E0D6
:1029A0000E94CD3980E090E00E9472372091290585
:1029B00030912A0540912B0550912C050E940B3631
:1029C0007B018C0120E030E044EB53E40E94D936D7
:1029D00020E030E040E851E40E94A73820E030E0F9
:1029E00040E85FE30E940C360E940A390E9441379A
:1029F000862F6093DF05161614F0805F03C06131E7
:102A00001CF080518093DF05C801B70120E030E061
:102A100044E353E40E949C3818164CF4C801B701F3
:102A200020E030E044EB53E40E940B3615C0C801AF
:102A3000B70120E030E044E353EC0E94D236882313
:102A40004CF4C801B70120E030E044EB53E40E94AD
:102A50000C3602C0C801B7010E94463770932405A6
:102A6000609323058091DF0562E00E94CD088DEE22
:102A700094E00E94E72A1F910F91FF90EF90089534
:102A8000EF92FF920F931F93CF93DF93282F462F40
:102A90008DEE94E0622F0E948D2A8DEE94E00E94CC
:102AA000032B2091270530912805121613062CF0D0
:102AB0002115310559F128593E4FB901882777FD75
:102AC0008095982F0E9474372091290530912A050E
:102AD00040912B0550912C050E940B3620E030E0F0
:102AE00044EB53E40E94D93620E030E040E851E462
:102AF0000E94A7380E940A3920E030E040E85FE3F6
:102B00000E940C360E94413760932D0580912D055F
:102B100087FF03C0805F80932D0580912D0588235A
:102B200019F480E180932D05E0902E05F0902F059B
:102B30000091300510913105C801B70120E030EC5B
:102B400049E754E40E949C3818162CF480E090EC7D
:102B5000A9E7B4E40EC0C801B70120E030EC49E7B2
:102B600054EC0E94D236882364F480E090ECA9E70C
:102B7000B4EC80932E0590932F05A0933005B0936D
:102B800031058DB79EB742970FB6F8949EBF0FBE22
:102B90008DBF0DB71EB70F5F1F4FCDEED4E0EDB761
:102BA000FEB7D283C18383EB92E0F80193838283E3
:102BB00087E590E09583848380E790E09783868320
:102BC00080913205808711861386128660913305C5
:102BD0007091340580E090E00E94723720910905E1
:102BE00030910A0540910B0550910C050E94A738C1
:102BF000F801648775878687978780910E05808B9B
:102C0000118A0E944F2C8DB79EB742960FB6F8944A
:102C10009EBF0FBE8DBF80912D0560E00E94CD0844
:102C2000809125058A3029F08F3019F0873009F01E
:102C300047C0EDB7FEB770970FB6F894FEBF0FBE52
:102C4000EDBF0DB71EB70F5F1F4F8DEE94E092835F
:102C5000818385EC92E0F8019383828380E290E0A7
:102C60009583848388E590E09783868385E690E06A
:102C70009187808760912E0570912F058091300596
:102C8000909131052091090530910A0540910B057D
:102C900050910C050E94A738F801628773878487DA
:102CA000958780910E05868717860E944F2C8DB7D9
:102CB0009EB740960FB6F8949EBF0FBE8DBF10C052
:102CC00000D000D0EDB7FEB7D283C18386ED90E08F
:102CD000948383830E943E2C0F900F900F900F904F
:102CE0008DEE94E00E94E72ADF91CF911F910F9122
:102CF000FF90EF9008950F931F93282F462F0DEE0E
:102D000014E0C801622F0E948D2AC8010E94032B83
:102D100000D000D0EDB7FEB7128301838FED90E0B5
:102D2000948383830E943E2C0F900F900F900F90FE
:102D3000C8010E94E72A1F910F910895CF92DF9258
:102D4000EF92FF920F931F937C01D62EC72E0DEEAC
:102D500014E0C8016E2D4D2D0E948D2AC8010E94DD
:102D6000032B00D000D0EDB7FEB7128301838CEEA9
:102D700090E0948383830E943E2C0F900F900F90DD
:102D80000F90C8010E94E72AC70101966D2D7C2D86
:102D90000E9453071F910F91FF90EF90DF90CF900B
:102DA0000895EF92FF920F931F93CF93DF93282FF5
:102DB000462FCDEED4E0CE01622F0E948D2ACE01A7
:102DC0000E94032B84E996E062E773E00E940033DF
:102DD000882381F000D000D0EDB7FEB7D283C18345
:102DE00084E391E0948383830E943E2C0F900F90A4
:102DF0000F900F908DB79EB70A970FB6F8949EBFAD
:102E00000FBE8DBF0DB71EB70F5F1F4F7DEEE72EB4
:102E100074E0F72EEDB7FEB7F282E18283ED92E027
:102E2000F8019383828360915F05709160058091C2
:102E3000610590916205209105053091060540914C
:102E40000705509108050E94A738F801648375832F
:102E50008683978380910D05808711860E944F2C71
:102E60008DB79EB70A960FB6F8949EBF0FBE8DBF62
:102E7000C7010E94E72ADF91CF911F910F91FF9028
:102E8000EF900895EF92FF920F931F93CF93DF93EC
:102E9000282F462FCDEED4E0CE01622F0E948D2A3E
:102EA000CE010E94032B84E996E060E773E00E9464
:102EB0000033882381F000D000D0EDB7FEB7D28375
:102EC000C18386E391E0948383830E943E2C0F901C
:102ED0000F900F900F908DB79EB70A970FB6F8948A
:102EE0009EBF0FBE8DBF0DB71EB70F5F1F4FEDEE1C
:102EF000EE2EE4E0FE2EEDB7FEB7F282E18283ED26
:102F000092E0F8019383828360917005709171055E
:102F10008091720590917305209105053091060509
:102F200040910705509108050E94A738F801648375
:102F300075838683978380910D05808711860E9413
:102F40004F2C8DB79EB70A960FB6F8949EBF0FBE52
:102F50008DBFC7010E94E72ADF91CF911F910F918A
:102F6000FF90EF900895EF92FF920F931F93CF93EE
:102F7000DF93282F462FCDEED4E0CE01622F0E94A2
:102F80008D2ACE010E94032B84E996E06EE673E061
:102F90000E940033882381F000D000D0EDB7FEB747
:102FA000D283C18388E391E0948383830E943E2C83
:102FB0000F900F900F900F908DB79EB70A970FB696
:102FC000F8949EBF0FBE8DBF0DB71EB70F5F1F4F8A
:102FD000FDEEEF2EF4E0FF2EEDB7FEB7F282E182B8
:102FE0008BED92E0F8019383828360917405709178
:102FF00075058091760590917705209109053091AE
:103000000A0540910B0550910C050E94A738F80164
:10301000648375838683978380910E0580871186EC
:103020000E944F2C8DB79EB70A960FB6F8949EBF9C
:103030000FBE8DBFC7010E94E72ADF91CF911F917C
:103040000F91FF90EF900895EF92FF920F931F93CF
:10305000CF93DF93282F462FCDEED4E0CE01622F01
:103060000E948D2ACE010E94032B84E996E06CE633
:1030700073E00E940033882381F000D000D0EDB7C8
:10308000FEB7D283C1838AE391E0948383830E9455
:103090003E2C0F900F900F900F908DB79EB70A9710
:1030A0000FB6F8949EBF0FBE8DBF0DB71EB70F5F52
:1030B0001F4FADEEEA2EA4E0FA2EEDB7FEB7F28276
:1030C000E1828BED92E0F801938382836091800529
:1030D0007091810580918205909183052091090569
:1030E00030910A0540910B0550910C050E94A738BC
:1030F000F801648375838683978380910E058087AA
:1031000011860E944F2C8DB79EB70A960FB6F89481
:103110009EBF0FBE8DBFC7010E94E72ADF91CF91EE
:103120001F910F91FF90EF900895AF92BF92CF92B1
:10313000DF92EF92FF920F931F93282F462F8DEE71
:1031400094E0622F0E948D2A8DEE94E00E94032B62
:1031500080915E059091B205882309F4ADC0992352
:1031600019F481E08093B205A0907005B0907105CC
:10317000C0907205D0907305C601B50120E030E023
:1031800040E050E00E94D236882309F448C06091A4
:10319000840570918505882777FD8095982F0E947A
:1031A000743720E030E040E251E40E94A7387B0110
:1031B0008C01C601B50120910505309106054091AD
:1031C0000705509108050E94A7389B01AC01C80172
:1031D000B7010E94D9362DEC3CEC4CEC5DE30E942B
:1031E000A7387B018C016091B3057091B405809183
:1031F000B5059091B60526E636E646E65FE30E9401
:10320000A7389B01AC01C801B7010E940C3660933E
:10321000B3057093B4058093B5059093B605E0901F
:10322000B305F090B4050091B5051091B605C8013D
:10323000B70120E030E040E050E00E949C381816D2
:1032400074F5C801B70120E03CE34CE156E40E946C
:10325000D236181624F18DB79EB70C970FB6F89496
:103260009EBF0FBE8DBFEDB7FEB731968DEE94E0D9
:10327000ADB7BEB712969C938E93119783EC91E0F5
:103280009383828386E190E095838483E682F7824C
:103290000087118781E090E093878287DDC000D0AE
:1032A00000D08DEE94E0ADB7BEB712969C938E938E
:1032B00011978AE491E0F7C0992311F18091740588
:1032C00090917505A0917605B09177058093B7052B
:1032D0009093B805A093B905B093BA058091BB054A
:1032E0009091BC05A091BD05B091BE058093BF052E
:1032F0009093C005A093C105B093C2051092B2058A
:10330000E0907805F090790500917A0510917B05A1
:10331000C801B7012DEC3CEC4CE45DEB0E94D236C9
:1033200088230CF0A4C0E0907405F090750500911E
:103330007605109177056091B7057091B805809179
:10334000B9059091BA05A80197010E940B369B011F
:10335000AC01C801B7010E94D9367B018C01609194
:10336000BB057091BC058091BD059091BE05209173
:10337000BF053091C0054091C1055091C2050E9422
:103380000B369B01AC01C801B7010E94A738209100
:10339000090530910A0540910B0550910C050E94DA
:1033A000A7386093C3057093C4058093C5059093B7
:1033B000C60520E03CE34CE156E40E949C38181618
:1033C00064F480E09CE3ACE1B6E48093C3059093A1
:1033D000C405A093C505B093C605E090C305F09061
:1033E000C4050091C5051091C605C801B70120E0CC
:1033F0003CEC4CED56E40E94D236882309F46AC0B6
:10340000C801B70120E030E040E050E00E949C3865
:1034100018160CF05FC0EDB7FEB73C970FB6F894E6
:10342000FEBF0FBEEDBF31968DEE94E0ADB7BEB7D7
:1034300012969C938E93119783EC91E093838283F1
:1034400088E190E095838483E682F7820087118784
:1034500080910E05828713860E944F2CEDB7FEB730
:103460003C960FB6F894FEBF0FBEEDBF33C0C80147
:10347000B7012DEC3CEC4CE45DEB0E949C388823BA
:10348000BCF08091190590911A0597FF11C000D0EA
:1034900000D08DEE94E0ADB7BEB712969C938E939C
:1034A000119783E491E014969C938E9313970CC02C
:1034B00000D000D08DEE94E0EDB7FEB7928381830B
:1034C0008CE391E0948383830E943E2C0F900F90B5
:1034D0000F900F908DEE94E00E94E72A1F910F91BC
:1034E000FF90EF90DF90CF90BF90AF9008950F9333
:1034F0001F930DEE14E0C80165E045E00E948D2A9F
:10350000C8010E94032B00D000D0EDB7FEB7128394
:10351000018381E591E0948383830E943E2C0F9088
:103520000F900F900F90C8010E94E72A1F910F91F2
:1035300008950E94771A0E942C060895EF92FF9238
:103540000F931F93809164058130D9F560917405C4
:1035500070917505809176059091770520E030E0B7
:1035600040E251E40E949C3818160CF160917005FD
:1035700070917105809172059091730520E030E0A3
:1035800040E85FE30E949C3818168CF080915E053D
:10359000823068F48091510590915205A0915305B5
:1035A000B091540585369105A105B10554F00E94EE
:1035B0005B336093F5027093F6028093F702909369
:1035C000F8020E945B330E9472377B018C0160918C
:1035D000E0057091E1058091E2059091E30520E01E
:1035E00030E849E055E40E940C369B01AC01C8016B
:1035F000B7010E949C38181694F48091F902823029
:1036000039F08DEE94E00E94502B82E08093F90215
:1036100085E090E06AE070E00E947B16AFC20E94F5
:103620005B3368557B41804090402091F50230919A
:10363000F6024091F7025091F80226173707480723
:10364000590770F48091F902813039F08DEE94E0E1
:103650000E94502B81E08093F9020E94BD128EC21D
:103660008091540480FF08C06091AE048091AC0446
:1036700090E070E00E94D20D80918E05843010F0B1
:103680000E94BE0380919805882321F48091F9025D
:10369000882341F08DEE94E00E94502B1092980503
:1036A0001092F90280919705823009F467C2A82F21
:1036B000B0E0FD01E25BFB4F808181FF0BC0FD01AB
:1036C000E65AFB4F6081A85ABB4F8C9190E070E0A6
:1036D0000E94D20B80919705A82FB0E0FD01E25B1C
:1036E000FB4F808182FF0BC0FD01E25AFB4F6081DE
:1036F000A45ABB4F8C9190E070E00E94920B809195
:103700009705A82FB0E0FD01E25BFB4F808183FFAE
:103710000BC0FD01EE59FB4F6081A05ABB4F8C914D
:1037200090E070E00E94500B80919705A82FB0E0C8
:10373000FD01E25BFB4F808185FF0BC0FD01EA5973
:10374000FB4F6081AC59BB4F8C9190E070E00E94C0
:10375000000B80919705A82FB0E0FD01E25BFB4FC5
:10376000808187FF0BC0FD01E259FB4F6081A459A6
:10377000BB4F8C9190E070E00E94B60A8091970553
:10378000A82FB0E0FD01E25BFB4F808184FF0BC0FE
:10379000FD01EE58FB4F6081A059BB4F8C9190E02A
:1037A00070E00E94210D80919705A82FB0E0FD01E7
:1037B000E25BFB4F808186FF0BC0FD01E659FB4FAA
:1037C0006081A859BB4F8C9190E070E00E94BB14BF
:1037D00080919705A82FB0E0FD01E05BFB4F808151
:1037E00080FF0BC0FD01EA58FB4F6081AC58BB4F16
:1037F0008C9190E070E00E94360A80919705A82F86
:10380000B0E0FD01E05BFB4F808181FF0BC0FD015B
:10381000E658FB4F6081A858BB4F8C9190E070E058
:103820000E94740A8091E405813051F580919705DA
:10383000A82FB0E0FD01E05BFB4F808184FF0BC04F
:10384000FD01EE57FB4F6081A058BB4F8C9190E07B
:1038500070E00E94120C80919705A82FB0E0FD0146
:10386000E05BFB4F808183FF0BC0FD01E258FB4F03
:103870006081A458BB4F8C9190E070E00E941E0ABA
:1038800080919705A82FB0E0FD01E05BFB4F8081A0
:1038900087FF0BC0FD01E657FB4F6081A857BB4F68
:1038A0008C9190E070E00E94B30C809132058823E7
:1038B000A9F080919705A82FB0E0FD01E05BFB4FD8
:1038C000808186FF0BC0FD01EA57FB4F6081AC573A
:1038D000BB4F8C9190E070E00E944015809197055D
:1038E000A82FB0E0FD01EE5AFB4F808182FF0BC094
:1038F000FD01EE56FB4F6081A057BB4F8C9190E0CD
:1039000070E00E94241880919705A82FB0E0FD0177
:10391000EE5AFB4F808187FF0BC0FD01EA56FB4F3B
:103920006081AC56BB4F8C9190E070E00E94B31761
:1039300080919705A82FB0E0FD01EE5AFB4F8081E2
:1039400083FF0BC0FD01E656FB4F6081A856BB4FBD
:103950008C9190E070E00E94421780919705A82F0B
:10396000B0E0FD01EE5AFB4F808181FF0BC0FD01ED
:10397000E256FB4F6081A456BB4F8C9190E070E003
:103980000E94D11680919705A82FB0E0FD01EE5A54
:10399000FB4F808184FF0BC0FD01EE55FB4F608122
:1039A000A056BB4F8C9190E070E00E94980D8091E2
:1039B0009705A82FB0E0FD01EE5AFB4F808185FFEF
:1039C0000BC0FD01EA55FB4F6081AC55BB4F8C919C
:1039D00090E070E00E94AE0980919705A82FB0E0BA
:1039E000FD01EE5AFB4F808186FF0BC0FD01E655BD
:1039F000FB4F6081A855BB4F8C9190E070E00E9416
:103A00009E1680919705A82FB0E0FD01EE5AFB4F5E
:103A1000808180FF0BC0FD01E257FB4F6081A457FE
:103A2000BB4F8C9190E070E00E94CE0F8091970583
:103A3000A82FB0E0FD01EC5AFB4F808182FF0BC044
:103A4000FD01EE54FB4F6081A055BB4F8C9190E07F
:103A500070E00E94A71080919705A82FB0E0FD01AB
:103A6000EC5AFB4F808183FF0BC0FD01EA54FB4FF2
:103A70006081AC54BB4F8C9190E070E00E942F0F9E
:103A800080919705A82FB0E0FD01EC5AFB4F808193
:103A900084FF0BC0FD01E654FB4F6081A854BB4F6F
:103AA0008C9190E070E00E941F1080919705A82FE4
:103AB000B0E0FD01EC5AFB4F808186FF0BC0FD0199
:103AC000E254FB4F6081A454BB4F8C9190E070E0B6
:103AD0000E94921180919705A82FB0E0FD01EC5A49
:103AE000FB4F808187FF0BC0FD01EE53FB4F6081D0
:103AF000A054BB4F8C9190E070E00E94951880918B
:103B00009705A82FB0E0FD01EC5AFB4F808185FF9F
:103B10000BC0FD01EA53FB4F6081AC53BB4F8C914E
:103B200090E070E00E943A1180919705A82FB0E0D4
:103B3000FD01EA5AFB4F808181FF0BC0FD01E65376
:103B4000FB4F6081A853BB4F8C9190E070E00E94C6
:103B50005C1280919705A82FB0E0FD01EA5AFB4F57
:103B6000808182FF0BC0FD01E253FB4F6081A453B3
:103B7000BB4F8C9190E070E00E941C148091540423
:103B800085FF0EC0E0919705F0E0DF01AA53BB4F1F
:103B90006C91EC53FB4F808190E070E00E943A11F1
:103BA0000E948F031F910F91FF90EF900895CF9384
:103BB000DF93EC018DEE94E00E94892AC817D907A3
:103BC0003CF08DEE94E00E947E2A892B09F4239725
:103BD000CE01DF91CF910895EF92FF920F931F9343
:103BE000CF93DF930091970510E08AEF90E0089F54
:103BF0007001099FF00C189FF00C1124C701885622
:103C00009F4F0E941707F801E25BFB4F882319F0D2
:103C10008081806102C080818F7E80838091970542
:103C2000C82FD0E0C70186569F4F0E941707C05982
:103C3000DB4F888380919705C82FD0E0C701845659
:103C40009F4F0E94170790E00E94D71DCE58DB4F70
:103C500088830091970510E0C70106960E94170718
:103C6000F801E25BFB4F882319F08081826002C07B
:103C700080818D7F808380919705C82FD0E0C70118
:103C800008960E941707C85ADB4F888380919705D2
:103C9000C82FD0E0C7010A960E94170790E00E9443
:103CA000D71DC65ADB4F88830091970510E0C701E6
:103CB0000C960E941707F801E25BFB4F882319F06E
:103CC0008081846002C080818B7F80838091970592
:103CD000C82FD0E0C7010E960E941707C45ADB4FC9
:103CE000888380919705C82FD0E0C70140960E9435
:103CF000170790E00E94D71DC25ADB4F88830091BE
:103D0000970510E0C70142960E941707F801E25B91
:103D1000FB4F882319F08081886002C08081877FF3
:103D2000808380919705C82FD0E0C70144960E94F8
:103D30001707C05ADB4F888380919705C82FD0E0C2
:103D4000C70146960E94170790E00E94D71DCE59E2
:103D5000DB4F88830091970510E0C7014E960E94C3
:103D60001707F801E25BFB4F882319F0808180621E
:103D700002C080818F7D808380919705C82FD0E01D
:103D8000C70180960E941707CC59DB4F888380912A
:103D90009705C82FD0E0C70182960E94170790E0D0
:103DA0000E94D71DCA59DB4F88830091970510E008
:103DB000C70184960E941707F801E25BFB4F882336
:103DC00019F08081806402C080818F7B8083809124
:103DD0009705C82FD0E0C70186960E941707C859DB
:103DE000DB4F888380919705C82FD0E0C701889664
:103DF0000E94170790E00E94D71DC659DB4F8883A9
:103E00000091970510E0C7018A960E941707F801F4
:103E1000E25BFB4F882319F08081806802C08081BB
:103E20008F77808380919705C82FD0E0C7018C964B
:103E30000E941707C459DB4F888380919705C82FCC
:103E4000D0E0C7018E960E94170790E00E94D71D10
:103E5000C259DB4F88830091970510E0C701C096D7
:103E60000E941707F801E05BFB4F882319F080815F
:103E7000816002C080818E7F808380919705C82FEA
:103E8000D0E0C701C2960E941707CC58DB4F888349
:103E900080919705C82FD0E0C701C4960E941707EC
:103EA00090E00E94D71DCA58DB4F88830091970588
:103EB00010E0C701C6960E941707F801E05BFB4FB0
:103EC000882319F08081826002C080818D7F808389
:103ED00080919705C82FD0E0C701C8960E941707A8
:103EE000C858DB4F888380919705C82FD0E0C70161
:103EF000CA960E94170790E00E94D71DC658DB4F54
:103F000088830091970510E0C701885B9F4F0E944E
:103F10001707F801E05BFB4F882319F0808180616F
:103F200002C080818F7E808380919705C82FD0E06A
:103F3000C701865B9F4F0E941707C058DB4F8883DD
:103F400080919705C82FD0E0C701845B9F4F0E94E6
:103F5000170790E00E94D71DCE57DB4F8883009152
:103F6000970510E0C7018E5B9F4F0E941707F8016D
:103F7000E05BFB4F882319F08081886002C080815C
:103F8000877F808380919705C82FD0E0C7018C5B25
:103F90009F4F0E941707C458DB4F88838091970575
:103FA000C82FD0E0C7018A5B9F4F0E94170790E09F
:103FB0000E94D71DC258DB4F88830091970510E0FF
:103FC000C7018A5A9F4F0E941707F801E05BFB4F19
:103FD000882319F08081806402C080818F7B808378
:103FE00080919705C82FD0E0C701885A9F4F0E9443
:103FF0001707CC57DB4F888380919705C82FD0E0F7
:10400000C701865A9F4F0E94170790E00E94D71D54
:10401000CA57DB4F88830091970510E0C70182568D
:104020009F4F0E941707F801E05BFB4F882319F0B0
:104030008081806802C080818F778083809197051E
:10404000C82FD0E0C70180569F4F0E941707C8575E
:10405000DB4F888380919705C82FD0E0C7018E552C
:104060009F4F0E94170790E00E94D71DC657DB4F55
:1040700088830091970510E0C7018E599F4F0E94D9
:104080001707F801EE5AFB4F882319F080818160F1
:1040900002C080818E7F808380919705C82FD0E0F9
:1040A000C7018C599F4F0E941707C457DB4F888365
:1040B00080919705C82FD0E0C7018A599F4F0E9471
:1040C000170790E00E94D71DC257DB4F88830091ED
:1040D000970510E0C70182599F4F0E941707F8010A
:1040E000EE5AFB4F882319F08081846002C08081E2
:1040F0008B7F808380919705C82FD0E0C7018059BE
:104100009F4F0E941707C057DB4F88838091970508
:10411000C82FD0E0C7018E589F4F0E94170790E02C
:104120000E94D71DCE56DB4F88830091970510E083
:10413000C70184579F4F0E941707F801EE5AFB4FA3
:10414000882319F08081806802C080818F77808306
:1041500080919705C82FD0E0C70182579F4F0E94DA
:104160001707CC56DB4F888380919705C82FD0E086
:10417000C70180579F4F0E94170790E00E94D71DEC
:10418000CA56DB4F88830091970510E0C7018E5611
:104190009F4F0E941707F801EE5AFB4F882319F032
:1041A0008081826002C080818D7F808380919705AD
:1041B000C82FD0E0C7018C569F4F0E941707C456E6
:1041C000DB4F888380919705C82FD0E0C7018A56BE
:1041D0009F4F0E94170790E00E94D71DC256DB4FE9
:1041E00088830091970510E0C7018C589F4F0E946B
:1041F0001707F801EE5AFB4F882319F08081886079
:1042000002C08081877F808380919705C82FD0E08E
:10421000C7018A589F4F0E941707C856DB4F8883F3
:1042200080919705C82FD0E0C70188589F4F0E9402
:10423000170790E00E94D71DC656DB4F8883009178
:10424000970510E0C70186589F4F0E941707F80195
:10425000EE5AFB4F882319F08081806102C0808173
:104260008F7E808380919705C82FD0E0C701845846
:104270009F4F0E941707C056DB4F88838091970598
:10428000C82FD0E0C70182589F4F0E94170790E0C7
:104290000E94D71DCE55DB4F88830091970510E013
:1042A000C70180589F4F0E941707F801EE5AFB4F35
:1042B000882319F08081806202C080818F7D808395
:1042C00080919705C82FD0E0C7018E579F4F0E945D
:1042D0001707CC55DB4F888380919705C82FD0E016
:1042E000C7018C579F4F0E94170790E00E94D71D6F
:1042F000CA55DB4F88830091970510E0C7018A57A4
:104300009F4F0E941707F801EE5AFB4F882319F0C0
:104310008081806402C080818F7B8083809197053B
:10432000C82FD0E0C70188579F4F0E941707C85574
:10433000DB4F888380919705C82FD0E0C70186574F
:104340009F4F0E94170790E00E94D71DC655DB4F74
:1043500088830091970510E0C7018C559F4F0E94FC
:104360001707F801EC5AFB4F882319F08081816010
:1043700002C080818E7F808380919705C82FD0E016
:10438000C7018A559F4F0E941707C455DB4F88838A
:1043900080919705C82FD0E0C70188559F4F0E9494
:1043A000170790E00E94D71DC255DB4F888300910C
:1043B000970510E0C70180559F4F0E941707F8012D
:1043C000EC5AFB4F882319F08081846002C0808101
:1043D0008B7F808380919705C82FD0E0C7018E54D2
:1043E0009F4F0E941707C055DB4F88838091970528
:1043F000C82FD0E0C7018C549F4F0E94170790E050
:104400000E94D71DCE54DB4F88830091970510E0A2
:10441000C7018A549F4F0E941707F801EC5AFB4FBF
:10442000882319F08081886002C08081877F808323
:1044300080919705C82FD0E0C70188549F4F0E94F4
:104440001707CC54DB4F888380919705C82FD0E0A5
:10445000C70186549F4F0E94170790E00E94D71D06
:10446000CA54DB4F88830091970510E0C70184543C
:104470009F4F0E941707F801EC5AFB4F882319F051
:104480008081806102C080818F7E808380919705CA
:10449000C82FD0E0C70182549F4F0E941707C8540D
:1044A000DB4F888380919705C82FD0E0C7018054E7
:1044B0009F4F0E94170790E00E94D71DC654DB4F04
:1044C00088830091970510E0C701845A9F4F0E948E
:1044D0001707F801EC5AFB4F882319F0808180649C
:1044E00002C080818F7B808380919705C82FD0E0A8
:1044F000C701825A9F4F0E941707C454DB4F88831D
:1045000080919705C82FD0E0C701805A9F4F0E9425
:10451000170790E00E94D71DC254DB4F888300919B
:10452000970510E0C7018E539F4F0E941707F801AF
:10453000EC5AFB4F882319F08081806802C080818B
:104540008F77808380919705C82FD0E0C7018C5367
:104550009F4F0E941707C054DB4F888380919705B7
:10456000C82FD0E0C7018A539F4F0E94170790E0E1
:104570000E94D71DCE53DB4F88830091970510E032
:10458000C70188539F4F0E941707F801EC5AFB4F51
:10459000882319F08081806202C080818F7D8083B2
:1045A00080919705C82FD0E0C70186539F4F0E9486
:1045B0001707CC53DB4F888380919705C82FD0E035
:1045C000C70184539F4F0E94170790E00E94D71D98
:1045D000CA53DB4F88830091970510E0C7018C52C6
:1045E0009F4F0E941707F801EA5AFB4F882319F0E2
:1045F0008081826002C080818D7F80838091970559
:10460000C82FD0E0C7018A529F4F0E941707C85396
:10461000DB4F888380919705C82FD0E0C70188526F
:104620009F4F0E94170790E00E94D71DC653DB4F93
:1046300088830091970510E0C70180529F4F0E9428
:104640001707F801EA5AFB4F882319F0808184602C
:1046500002C080818B7F808380919705C82FD0E036
:10466000C7018E519F4F0E941707C453DB4F8883A9
:1046700080919705C82FD0E0C7018C519F4F0E94B1
:10468000170790E00E94D71DC253DB4F8883DF914C
:10469000CF911F910F91FF90EF90089584E996E0DC
:1046A00064E773E00E940033882339F084E996E0E0
:1046B00064E773E040E00E94073384E996E062EA31
:1046C00073E00E940033823039F084E996E062EAB8
:1046D00073E042E00E94073384E996E064EA73E005
:1046E0000E940033843039F084E996E064EA73E094
:1046F00044E00E94073384E996E066EA73E00E9492
:104700000033813039F084E996E066EA73E041E0F5
:104710000E94073308958F929F92AF92BF92CF92DB
:10472000DF92FF920F931F93CF93DF93F62E4901F1
:10473000C82EDD248601000F111F5801AC0CBD1CD2
:10474000E501CC0FDD1FCC0FDD1FCC59D94F1882EE
:104750008B819C818430910509F48EC08530910550
:104760005CF48230910509F443C0833091050CF06C
:10477000BFC09923C4F44FC28730910509F443C1E7
:104780008830910544F48530910509F4DEC0069720
:1047900009F041C207C18830910509F47AC109972F
:1047A00009F039C2E7C18EEF681709F034C282E020
:1047B00090E09C838B8380E790E0C89ED001C99EE7
:1047C000B00DD89EB00D1124AC50BA4F13961C9268
:1047D000139788E390E0C89EF001C99EF00DD89E23
:1047E000F00D1124EE0FFF1FEA50FA4F6083A4C1B1
:1047F000E5E6E61788F489818F5F8983F501EE0F7E
:10480000FF1FEE0FFF1FEA59F94F80818F5F8083F2
:10481000188281E090E02DC080E790E0C89EF00112
:10482000C99EF00DD89EF00D1124EC50FA4F638311
:104830001D8280818627282F2295207F282730E01F
:10484000522F4427C90163E0880F991F6A95E1F749
:1048500048275927818190E04827592784E03595DA
:1048600027958A95E1F7422753275183408384E0B7
:1048700090E09C838B83CFC18CE190E0C89EF001D7
:10488000C99EF00DD89EF00D1124EE0FFF1FEE0F04
:10489000FF1FE850FA4F608380E790E0C89EF00168
:1048A000C99EF00DD89EF00D1124EC50FA4F808176
:1048B0008627282F2295207F282730E0522F442753
:1048C000C901B3E0880F991FBA95E1F74827592726
:1048D000818190E048275927A4E035952795AA952E
:1048E000E1F7422753275183408383E090E0C1CF13
:1048F00080E790E0C89EF001C99EF00DD89EF00DB3
:104900001124EC50FA4F658380818627282F229549
:10491000207F282730E0522F4427C90163E0880F09
:10492000991F6A95E1F748275927818190E0482728
:10493000592704E0359527950A95E1F74227532733
:104940005183408385E090E094CF80E790E0C89E5B
:10495000F001C99EF00DD89EF00D1124EC50FA4FD5
:10496000668380818627282F2295207F282730E0A4
:10497000522F4427C901B3E0880F991FBA95E1F778
:1049800048275927818190E048275927A4E0359589
:104990002795AA95E1F7422753275183408386E064
:1049A00090E067CF80E790E0C89EF001C99EF00DCF
:1049B000D89EF00D1124EC50FA4F67838081862732
:1049C000282F2295207F282730E0522F4427C90125
:1049D00063E0880F991F6A95E1F74827592781817D
:1049E00090E04827592794E0359527959A95E1F767
:1049F00042275327518340838381882309F446C08B
:104A000087E090E036CF6D81F80183E0EE0FFF1F65
:104A10008A95E1F7E01BF10B319603E0EE0FFF1FE3
:104A20000A95E1F7E60FF11DEC50FA4FF0826F5F47
:104A30006D8380E790E0C89EF001C99EF00DD89E7E
:104A4000F00D1124EC50FA4F80818F25282F2295EC
:104A5000207F282730E0522F4427C901B3E0880F78
:104A6000991FBA95E1F748275927818190E0482797
:104A70005927A4E035952795AA95E1F742275327B2
:104A8000518340838381681709F0C5C088E090E0B6
:104A9000F0CE80E790E0C89ED001C99EB00DD89EB0
:104AA000B00D1124AC50BA4F9C911796EC9117970A
:104AB000F0E0E050FD4F80818927482F4295407FEC
:104AC000482750E0342F2227CA01E3E0880F991FBE
:104AD000EA95E1F72827392711968C91119790E0F4
:104AE0002827392774E0559547957A95E1F72427CB
:104AF000352711963C932E93862F90E030708217C5
:104B00009307F9F0F501EE0FFF1FEE0FFF1FEA59B3
:104B1000F94F80818F5F8083188281E090E09C83D1
:104B20008B83FEEFFF1609F076C082E090E09C8355
:104B30008B8313961C9213978FEF9FEF8D939C930B
:104B40006AC089E090E09C838B83F80153E0EE0F0C
:104B5000FF1F5A95E1F7E01BF10B319643E0EE0F92
:104B6000FF1F4A95E1F78D81E80FF11DEC50FA4FD8
:104B7000608351C0262F30E080E790E0C89EB001EE
:104B8000C99E700DD89E700D11246C507A4FFB0198
:104B9000818190E028173907E9F0F501EE0FFF1F3A
:104BA000EE0FFF1FEA59F94F80818F5F80831882D3
:104BB00081E090E09C838B83FEEFFF1661F582E03D
:104BC00090E09C838B83EB011B828FEF9FEF998397
:104BD000888321C081E0888381E090E09C838B837F
:104BE000F80123E0EE0FFF1F2A95E1F7E01BF10B20
:104BF000319693E0EE0FFF1F9A95E1F78D81E80F54
:104C0000F11DEB50FA4FF082DA01FB0180E70190D1
:104C10000D928150E1F7D601AA0FBB1FAC0DBD1D4F
:104C2000AA0FBB1FAA0FBB1FAC59B94F8C91813083
:104C300069F58CE190E0C89EF001C99EF00DD89E08
:104C4000F00D1124EE0FFF1FEE0FFF1FE850FA4F7B
:104C5000808116968C93169718968D919C91199732
:104C6000892B21F41B961C921E921A97F601EE0FC7
:104C7000FF1FEC0DFD1DEE0FFF1FEE0FFF1FEC5988
:104C8000F94F80859185019691878087F601EE0F17
:104C9000FF1FEC0DFD1DEE0FFF1FEE0FFF1FDF01CD
:104CA000AC59B94F16968C9116978F5FE4018E839D
:104CB00018968D919C91199799878887EA59F94F91
:104CC00080818A871B8610828C91DF91CF911F9102
:104CD0000F91FF90DF90CF90BF90AF909F908F90FB
:104CE0000895AF92BF92CF92DF92EF92FF920F930F
:104CF0001F93DF93CF93CDB7DEB7CC57D0400FB61D
:104D0000F894DEBF0FBECDBF8E01035F1F4F5E0163
:104D10000894A11CB11CEE24E39425E1C22ED12CF1
:104D2000CC0EDD1EE0C180ED94E00E94F22CF82E46
:104D30008091E5058823E1F40E945B3360527E4454
:104D400080409040A8F40E945B33695873418040D2
:104D5000904070F0FAE0FF1619F02DE0F21631F4F1
:104D60008091E6058F5F8093E60502C01092E6050C
:104D700080E06F2DA80195010E948B23882309F400
:104D8000AEC10E945B330E9472376093E00570935E
:104D9000E1058093E2059093E305E092E5058C89B7
:104DA000813209F47BC1823290F4883109F454C015
:104DB000893130F48823F1F0813009F090C12CC0A2
:104DC0008D3109F463C18E3109F089C1CBC08E33B6
:104DD00009F4EBC08F3338F4833209F41DC18A32F1
:104DE00009F07DC114C18A3409F474C0883A09F00D
:104DF00076C132C1E092E7058A898093E8058B8904
:104E00008093E905F8018085809325058685809348
:104E1000EA051092EB0563C1F8016689778980E0A5
:104E200090E00E94723720E030E04AE754E40E94AC
:104E3000D93660934D0570934E0580934F0590933E
:104E40005005F801808D918D9093850580938405A0
:104E500086A18093590543C1F801608971898289CF
:104E600093890E94743720E836E948E15BE40E94A8
:104E7000D936609341057093420580934305909322
:104E80004405F80164897589868997890E94743779
:104E900020E836E948E15BE40E94D9366093450595
:104EA000709346058093470590934805F601848DDD
:104EB00080934905858D80934C05828D938D9093C9
:104EC000DE058093DD058489958990934B05809359
:104ED0004A0505C1F60180819181A281B381809349
:104EE0005F0590936005A0936105B093620584818E
:104EF0009581A681B7818093700590937105A093E9
:104F00007205B0937305F801608D718D882777FD68
:104F10008095982F0E9474376093290570932A0515
:104F200080932B0590932C05F801828D80935E056C
:104F300080899189A289B3898093800590938105A6
:104F4000A0938205B0938305F60184859585A68597
:104F5000B7858093780590937905A0937A05B093EF
:104F60007B05BDC0F801608971898289938921EE32
:104F70003EE245E652E40E94A7380E944137709312
:104F80001A0560931905F8016485758586859785EE
:104F900021EE3EE245E652E40E94A7380E944137E6
:104FA00070931805609317059AC0F801868D978D48
:104FB000909328058093270580A191A190933405B3
:104FC0008093330580899189A289B389809386056E
:104FD00090938705A0938805B09389058489958966
:104FE000A689B78980938A0590938B05A0938C0539
:104FF000B0938D05808D918DA28DB38D80932E05FC
:1050000090932F05A0933005B093310568C0F80147
:1050100080858093320563C0F601848595859093E1
:10502000900580938F058685978590939205809350
:105030009105F801808D918D90939405809393054F
:10504000F601828993899093960580939505F801DE
:10505000858D8093AF0543C0F60180819181A28147
:10506000B3818093A1059093A205A093A305B0936B
:10507000A40584819581A681B78180931B059093B7
:105080001C05A0931D05B0931E0529C0F801848955
:1050900095899093C8058093C70521C0F801608D5C
:1050A000718D828D938D0E9474372FE632E143E833
:1050B0005AEB0E94A7389B01AC016091800570916A
:1050C000810580918205909183050E940C36609342
:1050D000EC057093ED058093EE059093EF058AE85B
:1050E00090E00E94C23380ED94E00E94C22C18161A
:1050F00019060CF418CE8091F0059091F1052B85DE
:105100003C85820F931F9093F1058093F0052B81CE
:105110008091F2059091F305820F911D9093F30514
:105120008093F205C458DF4F0FB6F894DEBF0FBE70
:10513000CDBFCF91DF911F910F91FF90EF90DF9046
:10514000CF90BF90AF90089586E061E00E947B35DC
:1051500008950F931F9386E061E00E943C3500EDB7
:1051600014E0C80140E051EE60E070E00E94602C65
:1051700010939606009395060E94A4288DEE94E065
:105180000E94CF2B0E94991A64EF71E080E090E0BA
:105190000E9469330E94A4061092970507C00E94DE
:1051A000EC1D809197058F5F8093970580919705FF
:1051B0008230A8F31092970560ED77E080E090E0F0
:1051C0000E94693380ED94E00E943F2D1F910F9162
:1051D00008952F923F924F925F926F927F928F929B
:1051E0009F92AF92BF92CF92DF92EF92FF920F9376
:1051F0001F93DF93CF9300D000D0CDB7DEB760917F
:1052000080057091810580918205909183052091A0
:10521000EC053091ED054091EE055091EF050E94AF
:105220000B366093740570937505809376059093A3
:1052300077058091E405882349F5809149058330FD
:1052400009F006C18091410590914205A091430566
:10525000B09144058093780690937906A0937A06DE
:10526000B0937B068091450590914605A091470536
:10527000B091480580937C0690937D06A0937E06AE
:10528000B0937F0681E08093E405E2C0813009F0AD
:10529000DFC0E0907806F090790600917A061091D0
:1052A0007B06C801B7019F7725E33AEF4EE85CE340
:1052B0000E94A7380E94D63669837A838B839C83A9
:1052C000C801B70120914105309142054091430545
:1052D000509144050E940B361B012C019F7720EC56
:1052E0003BE649ED57E40E94A7385B016C016091F1
:1052F0007C0670917D0680917E0690917F062091BC
:1053000045053091460540914705509148050E945A
:105310000B363B014C019F7720EC3BE649ED57E40F
:105320000E94A73829813A814B815C810E94A7386D
:105330007B018C01C601B501A60195010E94A73829
:105340005B016C01C801B701A80197010E94A73851
:105350009B01AC01C601B5010E940C360E942E399A
:105360000E94413760935105709352058093530515
:105370009093540560E070E080E89FE329813A81D2
:105380004B815C810E94D9369B01AC01C201B10105
:105390000E94A73897FA909497F89094A4019301EB
:1053A0000E947F3620EE3EE245E652E40E94A73896
:1053B00020E030E044EB52E40E940C360E9441377A
:1053C0009B01AC0197FF04C028593E4F4F4F5F4FE0
:1053D000CA01B901645B70408040904097FF06C0ED
:1053E000CA01B9016C547F4F8F4F9F4F0E94743791
:1053F0002091290530912A0540912B0550912C05CB
:105400000E940B360E94413797FF04C068597E4FB7
:105410008F4F9F4F0E94743720E030E044EB53E4FD
:105420000E94D93620E030E040E851E40E94A738DD
:105430000E940A3920E030E040E85FE30E940C3629
:105440000E94463760932605613110F010922605C0
:105450000F900F900F900F90CF91DF911F910F91B0
:10546000FF90EF90DF90CF90BF90AF909F908F9084
:105470007F906F905F904F903F902F9008950E9483
:105480001D078DEE94E00E94E9280E949E1A0E945A
:10549000B5040E944E2308950E945B33209170064C
:1054A00030917106409172065091730628583F4F13
:1054B0004F4F5F4F261737074807590760F40E9480
:1054C0005B336093700670937106809372069093BD
:1054D00073060E943F2A0E9471260895FC011382E0
:1054E000128288EE93E0A0E0B0E084839583A683E7
:1054F000B78388E294E0918380830895FC018089DA
:10550000803419F421E030E002C020E030E0C9012D
:105510000895FC01818990E00895FC016487458726
:1055200066874787089580E090E0089580E090E0E6
:10553000089580E090E0089508951F93CF93DF933E
:10554000EC01162F86E060E00E947B3582E896E051
:1055500060E00E941A2C112319F0113059F404C094
:1055600082E896E0688904C068896C6182E896E008
:105570000E941A2C86E061E00E947B35DF91CF917A
:105580001F910895EF92FF920F931F938EE1489F12
:1055900070011124E60EF11C86E060E00E947B356C
:1055A00002E816E0C80165E00E941A2CC8016F2DC0
:1055B0000E941A2CC80166E00E941A2CC8016E2DA8
:1055C0000E941A2C1F910F91FF90EF900895EF9277
:1055D000FF920F931F937C0102E816E0C80167E079
:1055E0000E941A2CC8016FEF0E941A2C86E061E01D
:1055F0000E947B35F70187858F5F87871F910F9109
:10560000FF90EF900895EF92FF920F931F93FC018C
:10561000E7848EE1E89E700111248685E80EF11C76
:1056200086E060E00E947B3502E816E0C80164E095
:105630000E941A2CC80163E00E941A2CC80165E080
:105640000E941A2CC8016F2D0E941A2CC80166E016
:105650000E941A2CC8016E2D0E941A2C1F910F91C6
:10566000FF90EF9008951F93CF93DF93EC01162FD7
:105670006C3731F40E94E72ACE010E94032B0AC046
:1056800082E896E067E00E941A2C82E896E0612F9B
:105690000E941A2C81E090E0DF91CF911F91089534
:1056A0000F931F9386E060E00E947B3502E816E0CE
:1056B000C80164E00E941A2CC80164E00E941A2C00
:1056C00086E061E00E947B351F910F9108951F9342
:1056D00084E996E066E973E00E940033882361F074
:1056E000813011F412E009C0823011F411E005C0DC
:1056F000833011F410E001C013E010928106109283
:10570000800617C06091800670918106605F82E814
:1057100096E00E941A2C82E896E0612F0E941A2CD3
:1057200080918006909181060196909381068093E6
:105730008006809180069091810640971CF31F910E
:105740000895CF93DF93EC0186E060E00E947B3503
:1057500082E896E060EA0E941A2C82E896E06FEFF9
:105760000E941A2C80FF05C080E4888B88E0898B1A
:1057700013C084E996E060E973E00E940033882357
:1057800019F4188A86E003C080E4888B88E0898B4E
:1057900086E060E00E947B35DF91CF910895CF9243
:1057A000DF92FF920F931F936C0186E061E00E94ED
:1057B0003C3582E060E00E943C3582E061E00E947E
:1057C0007B35C6010E94A12B86E060E00E947B35FC
:1057D00002E816E0C8016CEE0E941A2CC8016FEFB7
:1057E0000E941A2CF82EC80160E00E941A2CF601C3
:1057F00060896260C8010E941A2C62E370E080E058
:1058000090E00E946933C8016CE60E941A2CFFEEFA
:10581000FF22C8016F2D0E941A2CC6010E94672B1F
:10582000C60161E00E949D2A1F910F91FF90DF90B9
:10583000CF9008956EBD0DB407FEFDCF8EB50895CF
:105840008DE061E00E943C358BE061E00E943C35D8
:105850008CE060E00E943C358AE061E00E943C35CB
:105860001CBC80E58CBD8DB58EB5089582E896E0B0
:105870000E94202C08958FEF9FE70895DF93CF9328
:10588000CDB7DEB7FE0139968D819E8161E04F81F3
:1058900058859F010E94DF2ECF91DF910895DF93FD
:1058A000CF93CDB7DEB7FE0139968D819E8160E042
:1058B0004F8158859F010E94DF2ECF91DF9108957F
:1058C0000F931F93DC01ED91FC910288F389E02D89
:1058D00020E030E000E010E009951F910F9108955D
:1058E0008F92AF92CF92EF92FF920F931F93DF931D
:1058F000CF93CDB7DEB7FC011382128288EE93E01E
:10590000A0E0B0E084839583A683B7838AE394E024
:10591000918380835587448737872687118B008B37
:10592000F38AE28AC48AA58A868A70E0CB0123E0E2
:10593000880F991F2A95E1F79C012D57394F308F19
:10594000278B8557994F928F818F81E090E002C01D
:10595000880F991F6A95E2F720919306282B2093D0
:105960009306CF0140E051EE60E070E00E94602CB1
:10597000CF91DF911F910F91FF90EF90CF90AF905B
:105980008F900895FC01838D882319F42FEF3FEF4A
:105990000DC00788F08DE02D2081318182819381B7
:1059A000281B390B8481958128233923C901089547
:1059B000FC01838D882319F42FEF3FEF11C0018C78
:1059C000F28DE02D2081318182819381281B390B5A
:1059D0002095309584819581282339232F5F3F4F6F
:1059E000C9010895FC01838D882361F0A789B08DDA
:1059F0002D913C91119712968D919C911397281798
:105A0000390721F44FEF5FEFCA01089512968D9187
:105A10009C9113971696ED91FC911797E80FF91F3B
:105A2000408112968D919C911397019614962D9119
:105A30003C9115978223932313969C938E931297F0
:105A400050E0E2CFFC01838D882351F00788F08D70
:105A5000E02D20813181828193812817390721F43B
:105A60002FEF3FEFC9010895828193810680F7816E
:105A7000E02DE80FF91F8081282F30E0F3CFDC0103
:105A80005796ED91FC915897828193819183808301
:105A90005996ED91FC915A978081918193838283ED
:105AA0000895DC015B968C915B978823A9F1599648
:105AB000ED91FC915A97208131812F5F3F4F848176
:105AC0009581282339235C968C915C97882329F053
:105AD0008281938128173907F9F0828193812817F1
